{
  "_format": "hh-sol-artifact-1",
  "contractName": "BlastNFTFactory",
  "sourceName": "contracts/BlastNFTFactory.sol",
  "abi": [
    {
      "inputs": [],
      "stateMutability": "nonpayable",
      "type": "constructor"
    },
    {
      "inputs": [
        {
          "internalType": "address",
          "name": "owner",
          "type": "address"
        }
      ],
      "name": "OwnableInvalidOwner",
      "type": "error"
    },
    {
      "inputs": [
        {
          "internalType": "address",
          "name": "account",
          "type": "address"
        }
      ],
      "name": "OwnableUnauthorizedAccount",
      "type": "error"
    },
    {
      "anonymous": false,
      "inputs": [
        {
          "indexed": true,
          "internalType": "address",
          "name": "collection",
          "type": "address"
        },
        {
          "indexed": false,
          "internalType": "string",
          "name": "name",
          "type": "string"
        },
        {
          "indexed": false,
          "internalType": "string",
          "name": "symbol",
          "type": "string"
        },
        {
          "indexed": true,
          "internalType": "address",
          "name": "creator",
          "type": "address"
        }
      ],
      "name": "CollectionCreated",
      "type": "event"
    },
    {
      "anonymous": false,
      "inputs": [
        {
          "indexed": true,
          "internalType": "address",
          "name": "previousOwner",
          "type": "address"
        },
        {
          "indexed": true,
          "internalType": "address",
          "name": "newOwner",
          "type": "address"
        }
      ],
      "name": "OwnershipTransferred",
      "type": "event"
    },
    {
      "inputs": [],
      "name": "_getCollectionIdCounter",
      "outputs": [
        {
          "internalType": "uint256",
          "name": "",
          "type": "uint256"
        }
      ],
      "stateMutability": "view",
      "type": "function"
    },
    {
      "inputs": [
        {
          "internalType": "string",
          "name": "name",
          "type": "string"
        },
        {
          "internalType": "string",
          "name": "symbol",
          "type": "string"
        }
      ],
      "name": "createCollection",
      "outputs": [
        {
          "internalType": "address",
          "name": "",
          "type": "address"
        }
      ],
      "stateMutability": "nonpayable",
      "type": "function"
    },
    {
      "inputs": [],
      "name": "deployed",
      "outputs": [
        {
          "internalType": "address",
          "name": "",
          "type": "address"
        }
      ],
      "stateMutability": "view",
      "type": "function"
    },
    {
      "inputs": [],
      "name": "getCreatorCollections",
      "outputs": [
        {
          "internalType": "address[]",
          "name": "",
          "type": "address[]"
        }
      ],
      "stateMutability": "view",
      "type": "function"
    },
    {
      "inputs": [
        {
          "internalType": "address",
          "name": "collection",
          "type": "address"
        }
      ],
      "name": "isCollectionCreated",
      "outputs": [
        {
          "internalType": "bool",
          "name": "",
          "type": "bool"
        }
      ],
      "stateMutability": "view",
      "type": "function"
    },
    {
      "inputs": [],
      "name": "owner",
      "outputs": [
        {
          "internalType": "address",
          "name": "",
          "type": "address"
        }
      ],
      "stateMutability": "view",
      "type": "function"
    },
    {
      "inputs": [],
      "name": "renounceOwnership",
      "outputs": [],
      "stateMutability": "nonpayable",
      "type": "function"
    },
    {
      "inputs": [
        {
          "internalType": "address",
          "name": "marketplace",
          "type": "address"
        }
      ],
      "name": "setMarketplace",
      "outputs": [],
      "stateMutability": "nonpayable",
      "type": "function"
    },
    {
      "inputs": [
        {
          "internalType": "address",
          "name": "newOwner",
          "type": "address"
        }
      ],
      "name": "transferOwnership",
      "outputs": [],
      "stateMutability": "nonpayable",
      "type": "function"
    }
  ],
  "bytecode": "0x608060405234801561001057600080fd5b5033600073ffffffffffffffffffffffffffffffffffffffff168173ffffffffffffffffffffffffffffffffffffffff16036100845760006040517f1e4fbdf700000000000000000000000000000000000000000000000000000000815260040161007b919061019e565b60405180910390fd5b6100938161009960201b60201c565b506101b9565b60008060009054906101000a900473ffffffffffffffffffffffffffffffffffffffff169050816000806101000a81548173ffffffffffffffffffffffffffffffffffffffff021916908373ffffffffffffffffffffffffffffffffffffffff1602179055508173ffffffffffffffffffffffffffffffffffffffff168173ffffffffffffffffffffffffffffffffffffffff167f8be0079c531659141344cd1fd0a4f28419497f9722a3daafe3b4186f6b6457e060405160405180910390a35050565b600073ffffffffffffffffffffffffffffffffffffffff82169050919050565b60006101888261015d565b9050919050565b6101988161017d565b82525050565b60006020820190506101b3600083018461018f565b92915050565b614d1a80620001c96000396000f3fe60806040523480156200001157600080fd5b5060043610620000a05760003560e01c80637b9c8641116200006f5780637b9c864114620001295780638da5cb5b146200014b578063c785cafb146200016d578063f2fde38b14620001a3578063f905c15a14620001c357620000a0565b8063176b9b7514620000a557806333ce2fe314620000db578063715018a614620000fd57806373ad6c2d1462000109575b600080fd5b620000c36004803603810190620000bd919062000953565b620001e5565b604051620000d2919062000a1d565b60405180910390f35b620000e562000422565b604051620000f4919062000a55565b60405180910390f35b620001076200042c565b005b62000127600480360381019062000121919062000aa3565b62000444565b005b6200013362000492565b60405162000142919062000ba3565b60405180910390f35b620001556200055f565b60405162000164919062000a1d565b60405180910390f35b6200018b600480360381019062000185919062000aa3565b62000588565b6040516200019a919062000be4565b60405180910390f35b620001c16004803603810190620001bb919062000aa3565b620005de565b005b620001cd6200066b565b604051620001dc919062000a1d565b60405180910390f35b6000808383600260009054906101000a900473ffffffffffffffffffffffffffffffffffffffff16336040516200021c90620007cf565b6200022b949392919062000c8a565b604051809103906000f08015801562000248573d6000803e3d6000fd5b509050600081905060006001549050600160008154809291906200026c9062000d14565b919050555080600560008473ffffffffffffffffffffffffffffffffffffffff1673ffffffffffffffffffffffffffffffffffffffff168152602001908152602001600020819055506001600360008473ffffffffffffffffffffffffffffffffffffffff1673ffffffffffffffffffffffffffffffffffffffff16815260200190815260200160002060006101000a81548160ff021916908315150217905550600460003373ffffffffffffffffffffffffffffffffffffffff1673ffffffffffffffffffffffffffffffffffffffff168152602001908152602001600020829080600181540180825580915050600190039060005260206000200160009091909190916101000a81548173ffffffffffffffffffffffffffffffffffffffff021916908373ffffffffffffffffffffffffffffffffffffffff1602179055503373ffffffffffffffffffffffffffffffffffffffff168273ffffffffffffffffffffffffffffffffffffffff167f6974864ab24c795f57c207a650ae6763287c14a1c55fedc8506acb02796eb1a588886040516200040e92919062000d61565b60405180910390a381935050505092915050565b6000600154905090565b6200043662000673565b62000442600062000703565b565b6200044e62000673565b80600260006101000a81548173ffffffffffffffffffffffffffffffffffffffff021916908373ffffffffffffffffffffffffffffffffffffffff16021790555050565b6060600460003373ffffffffffffffffffffffffffffffffffffffff1673ffffffffffffffffffffffffffffffffffffffff1681526020019081526020016000208054806020026020016040519081016040528092919081815260200182805480156200055557602002820191906000526020600020905b8160009054906101000a900473ffffffffffffffffffffffffffffffffffffffff1673ffffffffffffffffffffffffffffffffffffffff16815260200190600101908083116200050a575b5050505050905090565b60008060009054906101000a900473ffffffffffffffffffffffffffffffffffffffff16905090565b6000600360008373ffffffffffffffffffffffffffffffffffffffff1673ffffffffffffffffffffffffffffffffffffffff16815260200190815260200160002060009054906101000a900460ff169050919050565b620005e862000673565b600073ffffffffffffffffffffffffffffffffffffffff168173ffffffffffffffffffffffffffffffffffffffff16036200065d5760006040517f1e4fbdf700000000000000000000000000000000000000000000000000000000815260040162000654919062000a1d565b60405180910390fd5b620006688162000703565b50565b600030905090565b6200067d620007c7565b73ffffffffffffffffffffffffffffffffffffffff166200069d6200055f565b73ffffffffffffffffffffffffffffffffffffffff16146200070157620006c3620007c7565b6040517f118cdaa7000000000000000000000000000000000000000000000000000000008152600401620006f8919062000a1d565b60405180910390fd5b565b60008060009054906101000a900473ffffffffffffffffffffffffffffffffffffffff169050816000806101000a81548173ffffffffffffffffffffffffffffffffffffffff021916908373ffffffffffffffffffffffffffffffffffffffff1602179055508173ffffffffffffffffffffffffffffffffffffffff168173ffffffffffffffffffffffffffffffffffffffff167f8be0079c531659141344cd1fd0a4f28419497f9722a3daafe3b4186f6b6457e060405160405180910390a35050565b600033905090565b613f488062000d9d83390190565b6000604051905090565b600080fd5b600080fd5b600080fd5b600080fd5b6000601f19601f8301169050919050565b7f4e487b7100000000000000000000000000000000000000000000000000000000600052604160045260246000fd5b6200084682620007fb565b810181811067ffffffffffffffff821117156200086857620008676200080c565b5b80604052505050565b60006200087d620007dd565b90506200088b82826200083b565b919050565b600067ffffffffffffffff821115620008ae57620008ad6200080c565b5b620008b982620007fb565b9050602081019050919050565b82818337600083830152505050565b6000620008ec620008e68462000890565b62000871565b9050828152602081018484840111156200090b576200090a620007f6565b5b62000918848285620008c6565b509392505050565b600082601f830112620009385762000937620007f1565b5b81356200094a848260208601620008d5565b91505092915050565b600080604083850312156200096d576200096c620007e7565b5b600083013567ffffffffffffffff8111156200098e576200098d620007ec565b5b6200099c8582860162000920565b925050602083013567ffffffffffffffff811115620009c057620009bf620007ec565b5b620009ce8582860162000920565b9150509250929050565b600073ffffffffffffffffffffffffffffffffffffffff82169050919050565b600062000a0582620009d8565b9050919050565b62000a1781620009f8565b82525050565b600060208201905062000a34600083018462000a0c565b92915050565b6000819050919050565b62000a4f8162000a3a565b82525050565b600060208201905062000a6c600083018462000a44565b92915050565b62000a7d81620009f8565b811462000a8957600080fd5b50565b60008135905062000a9d8162000a72565b92915050565b60006020828403121562000abc5762000abb620007e7565b5b600062000acc8482850162000a8c565b91505092915050565b600081519050919050565b600082825260208201905092915050565b6000819050602082019050919050565b62000b0c81620009f8565b82525050565b600062000b20838362000b01565b60208301905092915050565b6000602082019050919050565b600062000b468262000ad5565b62000b52818562000ae0565b935062000b5f8362000af1565b8060005b8381101562000b9657815162000b7a888262000b12565b975062000b878362000b2c565b92505060018101905062000b63565b5085935050505092915050565b6000602082019050818103600083015262000bbf818462000b39565b905092915050565b60008115159050919050565b62000bde8162000bc7565b82525050565b600060208201905062000bfb600083018462000bd3565b92915050565b600081519050919050565b600082825260208201905092915050565b60005b8381101562000c3d57808201518184015260208101905062000c20565b60008484015250505050565b600062000c568262000c01565b62000c62818562000c0c565b935062000c7481856020860162000c1d565b62000c7f81620007fb565b840191505092915050565b6000608082019050818103600083015262000ca6818762000c49565b9050818103602083015262000cbc818662000c49565b905062000ccd604083018562000a0c565b62000cdc606083018462000a0c565b95945050505050565b7f4e487b7100000000000000000000000000000000000000000000000000000000600052601160045260246000fd5b600062000d218262000a3a565b91507fffffffffffffffffffffffffffffffffffffffffffffffffffffffffffffffff820362000d565762000d5562000ce5565b5b600182019050919050565b6000604082019050818103600083015262000d7d818562000c49565b9050818103602083015262000d93818462000c49565b9050939250505056fe60806040523480156200001157600080fd5b5060405162003f4838038062003f48833981810160405281019062000037919062000612565b80848481600090816200004b91906200090d565b5080600190816200005d91906200090d565b505050600073ffffffffffffffffffffffffffffffffffffffff168173ffffffffffffffffffffffffffffffffffffffff1603620000d55760006040517f1e4fbdf7000000000000000000000000000000000000000000000000000000008152600401620000cc919062000a05565b60405180910390fd5b620000e681620001b260201b60201c565b508360089081620000f891906200090d565b5082600990816200010a91906200090d565b5080600b60006101000a81548173ffffffffffffffffffffffffffffffffffffffff021916908373ffffffffffffffffffffffffffffffffffffffff16021790555081600a60006101000a81548173ffffffffffffffffffffffffffffffffffffffff021916908373ffffffffffffffffffffffffffffffffffffffff1602179055506000600781905550620001a88260016200027860201b60201c565b5050505062000a5c565b6000600660009054906101000a900473ffffffffffffffffffffffffffffffffffffffff16905081600660006101000a81548173ffffffffffffffffffffffffffffffffffffffff021916908373ffffffffffffffffffffffffffffffffffffffff1602179055508173ffffffffffffffffffffffffffffffffffffffff168173ffffffffffffffffffffffffffffffffffffffff167f8be0079c531659141344cd1fd0a4f28419497f9722a3daafe3b4186f6b6457e060405160405180910390a35050565b6200029a6200028c6200029e60201b60201c565b8383620002a660201b60201c565b5050565b600033905090565b600073ffffffffffffffffffffffffffffffffffffffff168273ffffffffffffffffffffffffffffffffffffffff16036200031a57816040517f5b08ba1800000000000000000000000000000000000000000000000000000000815260040162000311919062000a05565b60405180910390fd5b80600560008573ffffffffffffffffffffffffffffffffffffffff1673ffffffffffffffffffffffffffffffffffffffff16815260200190815260200160002060008473ffffffffffffffffffffffffffffffffffffffff1673ffffffffffffffffffffffffffffffffffffffff16815260200190815260200160002060006101000a81548160ff0219169083151502179055508173ffffffffffffffffffffffffffffffffffffffff168373ffffffffffffffffffffffffffffffffffffffff167f17307eab39ab6107e8899845ad3d59bd9653f200f220920489ca2b5937696c31836040516200040d919062000a3f565b60405180910390a3505050565b6000604051905090565b600080fd5b600080fd5b600080fd5b600080fd5b6000601f19601f8301169050919050565b7f4e487b7100000000000000000000000000000000000000000000000000000000600052604160045260246000fd5b620004838262000438565b810181811067ffffffffffffffff82111715620004a557620004a462000449565b5b80604052505050565b6000620004ba6200041a565b9050620004c8828262000478565b919050565b600067ffffffffffffffff821115620004eb57620004ea62000449565b5b620004f68262000438565b9050602081019050919050565b60005b838110156200052357808201518184015260208101905062000506565b60008484015250505050565b6000620005466200054084620004cd565b620004ae565b90508281526020810184848401111562000565576200056462000433565b5b6200057284828562000503565b509392505050565b600082601f8301126200059257620005916200042e565b5b8151620005a48482602086016200052f565b91505092915050565b600073ffffffffffffffffffffffffffffffffffffffff82169050919050565b6000620005da82620005ad565b9050919050565b620005ec81620005cd565b8114620005f857600080fd5b50565b6000815190506200060c81620005e1565b92915050565b600080600080608085870312156200062f576200062e62000424565b5b600085015167ffffffffffffffff81111562000650576200064f62000429565b5b6200065e878288016200057a565b945050602085015167ffffffffffffffff81111562000682576200068162000429565b5b62000690878288016200057a565b9350506040620006a387828801620005fb565b9250506060620006b687828801620005fb565b91505092959194509250565b600081519050919050565b7f4e487b7100000000000000000000000000000000000000000000000000000000600052602260045260246000fd5b600060028204905060018216806200071557607f821691505b6020821081036200072b576200072a620006cd565b5b50919050565b60008190508160005260206000209050919050565b60006020601f8301049050919050565b600082821b905092915050565b600060088302620007957fffffffffffffffffffffffffffffffffffffffffffffffffffffffffffffffff8262000756565b620007a1868362000756565b95508019841693508086168417925050509392505050565b6000819050919050565b6000819050919050565b6000620007ee620007e8620007e284620007b9565b620007c3565b620007b9565b9050919050565b6000819050919050565b6200080a83620007cd565b620008226200081982620007f5565b84845462000763565b825550505050565b600090565b620008396200082a565b62000846818484620007ff565b505050565b5b818110156200086e57620008626000826200082f565b6001810190506200084c565b5050565b601f821115620008bd57620008878162000731565b620008928462000746565b81016020851015620008a2578190505b620008ba620008b18562000746565b8301826200084b565b50505b505050565b600082821c905092915050565b6000620008e260001984600802620008c2565b1980831691505092915050565b6000620008fd8383620008cf565b9150826002028217905092915050565b6200091882620006c2565b67ffffffffffffffff81111562000934576200093362000449565b5b620009408254620006fc565b6200094d82828562000872565b600060209050601f83116001811462000985576000841562000970578287015190505b6200097c8582620008ef565b865550620009ec565b601f198416620009958662000731565b60005b82811015620009bf5784890151825560018201915060208501945060208101905062000998565b86831015620009df5784890151620009db601f891682620008cf565b8355505b6001600288020188555050505b505050505050565b620009ff81620005cd565b82525050565b600060208201905062000a1c6000830184620009f4565b92915050565b60008115159050919050565b62000a398162000a22565b82525050565b600060208201905062000a56600083018462000a2e565b92915050565b6134dc8062000a6c6000396000f3fe608060405234801561001057600080fd5b50600436106101c35760003560e01c806370a08231116100f9578063c87b56dd11610097578063e985e9c511610071578063e985e9c514610519578063f2fde38b14610549578063f905c15a14610565578063fd73183714610583576101c3565b8063c87b56dd1461049d578063dbe16c07146104cd578063e9605544146104fd576101c3565b806395d89b41116100d357806395d89b411461042957806397a0eb5a14610447578063a22cb46514610465578063b88d4fde14610481576101c3565b806370a08231146103d1578063715018a6146104015780638da5cb5b1461040b576101c3565b80632967fdbc116101665780633bb3a24d116101405780633bb3a24d1461033957806342842e0e14610369578063437e0df1146103855780636352211e146103a1576101c3565b80632967fdbc146102df57806332045a85146102fd578063344e8e3f1461031b576101c3565b8063081812fc116101a2578063081812fc14610246578063095ea7b31461027657806323b872dd14610292578063289923b1146102ae576101c3565b8062923f9e146101c857806301ffc9a7146101f857806306fdde0314610228575b600080fd5b6101e260048036038101906101dd9190612409565b6105b3565b6040516101ef9190612451565b60405180910390f35b610212600480360381019061020d91906124c4565b6105c1565b60405161021f9190612451565b60405180910390f35b6102306106a3565b60405161023d9190612581565b60405180910390f35b610260600480360381019061025b9190612409565b610735565b60405161026d91906125e4565b60405180910390f35b610290600480360381019061028b919061262b565b610751565b005b6102ac60048036038101906102a7919061266b565b610767565b005b6102c860048036038101906102c39190612409565b610869565b6040516102d69291906126be565b60405180910390f35b6102e76109b3565b6040516102f49190612581565b60405180910390f35b610305610a45565b6040516103129190612581565b60405180910390f35b610323610ad7565b6040516103309190612845565b60405180910390f35b610353600480360381019061034e9190612409565b610cd0565b6040516103609190612581565b60405180910390f35b610383600480360381019061037e919061266b565b610d75565b005b61039f600480360381019061039a9190612409565b610d95565b005b6103bb60048036038101906103b69190612409565b610dc4565b6040516103c891906125e4565b60405180910390f35b6103eb60048036038101906103e69190612867565b610dd6565b6040516103f891906128a3565b60405180910390f35b610409610e90565b005b610413610ea4565b60405161042091906125e4565b60405180910390f35b610431610ece565b60405161043e9190612581565b60405180910390f35b61044f610f60565b60405161045c91906128a3565b60405180910390f35b61047f600480360381019061047a91906128ea565b610f6a565b005b61049b60048036038101906104969190612a5f565b610f80565b005b6104b760048036038101906104b29190612409565b610f9d565b6040516104c49190612581565b60405180910390f35b6104e760048036038101906104e29190612409565b611006565b6040516104f49190612581565b60405180910390f35b61051760048036038101906105129190612b83565b6110ab565b005b610533600480360381019061052e9190612bfb565b6112c1565b6040516105409190612451565b60405180910390f35b610563600480360381019061055e9190612867565b611355565b005b61056d6113db565b60405161057a91906125e4565b60405180910390f35b61059d60048036038101906105989190612409565b6113e3565b6040516105aa91906125e4565b60405180910390f35b600060075482109050919050565b60007f80ac58cd000000000000000000000000000000000000000000000000000000007bffffffffffffffffffffffffffffffffffffffffffffffffffffffff1916827bffffffffffffffffffffffffffffffffffffffffffffffffffffffff1916148061068c57507f5b5e139f000000000000000000000000000000000000000000000000000000007bffffffffffffffffffffffffffffffffffffffffffffffffffffffff1916827bffffffffffffffffffffffffffffffffffffffffffffffffffffffff1916145b8061069c575061069b8261143d565b5b9050919050565b6060600080546106b290612c6a565b80601f01602080910402602001604051908101604052809291908181526020018280546106de90612c6a565b801561072b5780601f106107005761010080835404028352916020019161072b565b820191906000526020600020905b81548152906001019060200180831161070e57829003601f168201915b5050505050905090565b6000610740826114a7565b5061074a8261152f565b9050919050565b610763828261075e61156c565b611574565b5050565b600073ffffffffffffffffffffffffffffffffffffffff168273ffffffffffffffffffffffffffffffffffffffff16036107d95760006040517f64a0ae920000000000000000000000000000000000000000000000000000000081526004016107d091906125e4565b60405180910390fd5b60006107ed83836107e861156c565b611586565b90508373ffffffffffffffffffffffffffffffffffffffff168173ffffffffffffffffffffffffffffffffffffffff1614610863578382826040517f64283d7b00000000000000000000000000000000000000000000000000000000815260040161085a93929190612c9b565b60405180910390fd5b50505050565b606080600d6000848152602001908152602001600020600e600085815260200190815260200160002081805461089e90612c6a565b80601f01602080910402602001604051908101604052809291908181526020018280546108ca90612c6a565b80156109175780601f106108ec57610100808354040283529160200191610917565b820191906000526020600020905b8154815290600101906020018083116108fa57829003601f168201915b5050505050915080805461092a90612c6a565b80601f016020809104026020016040519081016040528092919081815260200182805461095690612c6a565b80156109a35780601f10610978576101008083540402835291602001916109a3565b820191906000526020600020905b81548152906001019060200180831161098657829003601f168201915b5050505050905091509150915091565b6060600980546109c290612c6a565b80601f01602080910402602001604051908101604052809291908181526020018280546109ee90612c6a565b8015610a3b5780601f10610a1057610100808354040283529160200191610a3b565b820191906000526020600020905b815481529060010190602001808311610a1e57829003601f168201915b5050505050905090565b606060088054610a5490612c6a565b80601f0160208091040260200160405190810160405280929190818152602001828054610a8090612c6a565b8015610acd5780601f10610aa257610100808354040283529160200191610acd565b820191906000526020600020905b815481529060010190602001808311610ab057829003601f168201915b5050505050905090565b6060600060075467ffffffffffffffff811115610af757610af6612934565b5b604051908082528060200260200182016040528015610b3057816020015b610b1d6123a5565b815260200190600190039081610b155790505b50905060005b600754811015610cc8576000600d60008381526020019081526020016000208054610b6090612c6a565b80601f0160208091040260200160405190810160405280929190818152602001828054610b8c90612c6a565b8015610bd95780601f10610bae57610100808354040283529160200191610bd9565b820191906000526020600020905b815481529060010190602001808311610bbc57829003601f168201915b505050505090506000600e60008481526020019081526020016000208054610c0090612c6a565b80601f0160208091040260200160405190810160405280929190818152602001828054610c2c90612c6a565b8015610c795780601f10610c4e57610100808354040283529160200191610c79565b820191906000526020600020905b815481529060010190602001808311610c5c57829003601f168201915b50505050509050604051806040016040528083815260200182815250848481518110610ca857610ca7612cd2565b5b602002602001018190525050508080610cc090612d30565b915050610b36565b508091505090565b6060600d60008381526020019081526020016000208054610cf090612c6a565b80601f0160208091040260200160405190810160405280929190818152602001828054610d1c90612c6a565b8015610d695780601f10610d3e57610100808354040283529160200191610d69565b820191906000526020600020905b815481529060010190602001808311610d4c57829003601f168201915b50505050509050919050565b610d9083838360405180602001604052806000815250610f80565b505050565b610dc1600a60009054906101000a900473ffffffffffffffffffffffffffffffffffffffff1682610751565b50565b6000610dcf826114a7565b9050919050565b60008073ffffffffffffffffffffffffffffffffffffffff168273ffffffffffffffffffffffffffffffffffffffff1603610e495760006040517f89c62b64000000000000000000000000000000000000000000000000000000008152600401610e4091906125e4565b60405180910390fd5b600360008373ffffffffffffffffffffffffffffffffffffffff1673ffffffffffffffffffffffffffffffffffffffff168152602001908152602001600020549050919050565b610e986117a0565b610ea26000611827565b565b6000600660009054906101000a900473ffffffffffffffffffffffffffffffffffffffff16905090565b606060018054610edd90612c6a565b80601f0160208091040260200160405190810160405280929190818152602001828054610f0990612c6a565b8015610f565780601f10610f2b57610100808354040283529160200191610f56565b820191906000526020600020905b815481529060010190602001808311610f3957829003601f168201915b5050505050905090565b6000600754905090565b610f7c610f7561156c565b83836118ed565b5050565b610f8b848484610767565b610f9784848484611a5c565b50505050565b6060610fa8826114a7565b506000610fb3611c13565b90506000815111610fd35760405180602001604052806000815250610ffe565b80610fdd84611c2a565b604051602001610fee929190612db4565b6040516020818303038152906040525b915050919050565b6060600e6000838152602001908152602001600020805461102690612c6a565b80601f016020809104026020016040519081016040528092919081815260200182805461105290612c6a565b801561109f5780601f106110745761010080835404028352916020019161109f565b820191906000526020600020905b81548152906001019060200180831161108257829003601f168201915b50505050509050919050565b3373ffffffffffffffffffffffffffffffffffffffff16600b60009054906101000a900473ffffffffffffffffffffffffffffffffffffffff1673ffffffffffffffffffffffffffffffffffffffff161461113b576040517f08c379a000000000000000000000000000000000000000000000000000000000815260040161113290612e4a565b60405180910390fd5b600073ffffffffffffffffffffffffffffffffffffffff16600a60009054906101000a900473ffffffffffffffffffffffffffffffffffffffff1673ffffffffffffffffffffffffffffffffffffffff16036111cc576040517f08c379a00000000000000000000000000000000000000000000000000000000081526004016111c390612eb6565b60405180910390fd5b6000600754905033600c600083815260200190815260200160002060006101000a81548173ffffffffffffffffffffffffffffffffffffffff021916908373ffffffffffffffffffffffffffffffffffffffff1602179055506007600081548092919061123890612d30565b91905055506112473382611cf8565b6112518184611df1565b61125b8183611e5e565b7f8f14bf3a499be9be1bfdecd062178f4245976705ce8a9ab4464f7e22fb09898381600a60009054906101000a900473ffffffffffffffffffffffffffffffffffffffff163386866040516112b4959493929190612ed6565b60405180910390a1505050565b6000600560008473ffffffffffffffffffffffffffffffffffffffff1673ffffffffffffffffffffffffffffffffffffffff16815260200190815260200160002060008373ffffffffffffffffffffffffffffffffffffffff1673ffffffffffffffffffffffffffffffffffffffff16815260200190815260200160002060009054906101000a900460ff16905092915050565b61135d6117a0565b600073ffffffffffffffffffffffffffffffffffffffff168173ffffffffffffffffffffffffffffffffffffffff16036113cf5760006040517f1e4fbdf70000000000000000000000000000000000000000000000000000000081526004016113c691906125e4565b60405180910390fd5b6113d881611827565b50565b600030905090565b60006113ee826105b3565b61142d576040517f08c379a000000000000000000000000000000000000000000000000000000000815260040161142490612fa9565b60405180910390fd5b61143682610dc4565b9050919050565b60007f01ffc9a7000000000000000000000000000000000000000000000000000000007bffffffffffffffffffffffffffffffffffffffffffffffffffffffff1916827bffffffffffffffffffffffffffffffffffffffffffffffffffffffff1916149050919050565b6000806114b383611ecb565b9050600073ffffffffffffffffffffffffffffffffffffffff168173ffffffffffffffffffffffffffffffffffffffff160361152657826040517f7e27328900000000000000000000000000000000000000000000000000000000815260040161151d91906128a3565b60405180910390fd5b80915050919050565b60006004600083815260200190815260200160002060009054906101000a900473ffffffffffffffffffffffffffffffffffffffff169050919050565b600033905090565b6115818383836001611f08565b505050565b60008061159284611ecb565b9050600073ffffffffffffffffffffffffffffffffffffffff168373ffffffffffffffffffffffffffffffffffffffff16146115d4576115d38184866120cd565b5b600073ffffffffffffffffffffffffffffffffffffffff168173ffffffffffffffffffffffffffffffffffffffff161461166557611616600085600080611f08565b6001600360008373ffffffffffffffffffffffffffffffffffffffff1673ffffffffffffffffffffffffffffffffffffffff168152602001908152602001600020600082825403925050819055505b600073ffffffffffffffffffffffffffffffffffffffff168573ffffffffffffffffffffffffffffffffffffffff16146116e8576001600360008773ffffffffffffffffffffffffffffffffffffffff1673ffffffffffffffffffffffffffffffffffffffff168152602001908152602001600020600082825401925050819055505b846002600086815260200190815260200160002060006101000a81548173ffffffffffffffffffffffffffffffffffffffff021916908373ffffffffffffffffffffffffffffffffffffffff160217905550838573ffffffffffffffffffffffffffffffffffffffff168273ffffffffffffffffffffffffffffffffffffffff167fddf252ad1be2c89b69c2b068fc378daa952ba7f163c4a11628f55a4df523b3ef60405160405180910390a4809150509392505050565b6117a861156c565b73ffffffffffffffffffffffffffffffffffffffff166117c6610ea4565b73ffffffffffffffffffffffffffffffffffffffff1614611825576117e961156c565b6040517f118cdaa700000000000000000000000000000000000000000000000000000000815260040161181c91906125e4565b60405180910390fd5b565b6000600660009054906101000a900473ffffffffffffffffffffffffffffffffffffffff16905081600660006101000a81548173ffffffffffffffffffffffffffffffffffffffff021916908373ffffffffffffffffffffffffffffffffffffffff1602179055508173ffffffffffffffffffffffffffffffffffffffff168173ffffffffffffffffffffffffffffffffffffffff167f8be0079c531659141344cd1fd0a4f28419497f9722a3daafe3b4186f6b6457e060405160405180910390a35050565b600073ffffffffffffffffffffffffffffffffffffffff168273ffffffffffffffffffffffffffffffffffffffff160361195e57816040517f5b08ba1800000000000000000000000000000000000000000000000000000000815260040161195591906125e4565b60405180910390fd5b80600560008573ffffffffffffffffffffffffffffffffffffffff1673ffffffffffffffffffffffffffffffffffffffff16815260200190815260200160002060008473ffffffffffffffffffffffffffffffffffffffff1673ffffffffffffffffffffffffffffffffffffffff16815260200190815260200160002060006101000a81548160ff0219169083151502179055508173ffffffffffffffffffffffffffffffffffffffff168373ffffffffffffffffffffffffffffffffffffffff167f17307eab39ab6107e8899845ad3d59bd9653f200f220920489ca2b5937696c3183604051611a4f9190612451565b60405180910390a3505050565b60008373ffffffffffffffffffffffffffffffffffffffff163b1115611c0d578273ffffffffffffffffffffffffffffffffffffffff1663150b7a02611aa061156c565b8685856040518563ffffffff1660e01b8152600401611ac2949392919061301e565b6020604051808303816000875af1925050508015611afe57506040513d601f19601f82011682018060405250810190611afb919061307f565b60015b611b82573d8060008114611b2e576040519150601f19603f3d011682016040523d82523d6000602084013e611b33565b606091505b506000815103611b7a57836040517f64a0ae92000000000000000000000000000000000000000000000000000000008152600401611b7191906125e4565b60405180910390fd5b805181602001fd5b63150b7a0260e01b7bffffffffffffffffffffffffffffffffffffffffffffffffffffffff1916817bffffffffffffffffffffffffffffffffffffffffffffffffffffffff191614611c0b57836040517f64a0ae92000000000000000000000000000000000000000000000000000000008152600401611c0291906125e4565b60405180910390fd5b505b50505050565b606060405180602001604052806000815250905090565b606060006001611c3984612191565b01905060008167ffffffffffffffff811115611c5857611c57612934565b5b6040519080825280601f01601f191660200182016040528015611c8a5781602001600182028036833780820191505090505b509050600082602001820190505b600115611ced578080600190039150507f3031323334353637383961626364656600000000000000000000000000000000600a86061a8153600a8581611ce157611ce06130ac565b5b04945060008503611c98575b819350505050919050565b600073ffffffffffffffffffffffffffffffffffffffff168273ffffffffffffffffffffffffffffffffffffffff1603611d6a5760006040517f64a0ae92000000000000000000000000000000000000000000000000000000008152600401611d6191906125e4565b60405180910390fd5b6000611d7883836000611586565b9050600073ffffffffffffffffffffffffffffffffffffffff168173ffffffffffffffffffffffffffffffffffffffff1614611dec5760006040517f73c6ac6e000000000000000000000000000000000000000000000000000000008152600401611de391906125e4565b60405180910390fd5b505050565b611dfa826105b3565b611e39576040517f08c379a0000000000000000000000000000000000000000000000000000000008152600401611e309061314d565b60405180910390fd5b80600d60008481526020019081526020016000209081611e599190613319565b505050565b611e67826105b3565b611ea6576040517f08c379a0000000000000000000000000000000000000000000000000000000008152600401611e9d9061345d565b60405180910390fd5b80600e60008481526020019081526020016000209081611ec69190613319565b505050565b60006002600083815260200190815260200160002060009054906101000a900473ffffffffffffffffffffffffffffffffffffffff169050919050565b8080611f415750600073ffffffffffffffffffffffffffffffffffffffff168273ffffffffffffffffffffffffffffffffffffffff1614155b15612075576000611f51846114a7565b9050600073ffffffffffffffffffffffffffffffffffffffff168373ffffffffffffffffffffffffffffffffffffffff1614158015611fbc57508273ffffffffffffffffffffffffffffffffffffffff168173ffffffffffffffffffffffffffffffffffffffff1614155b8015611fcf5750611fcd81846112c1565b155b1561201157826040517fa9fbf51f00000000000000000000000000000000000000000000000000000000815260040161200891906125e4565b60405180910390fd5b811561207357838573ffffffffffffffffffffffffffffffffffffffff168273ffffffffffffffffffffffffffffffffffffffff167f8c5be1e5ebec7d5bd14f71427d1e84f3dd0314c0f7b2291e5b200ac8c7c3b92560405160405180910390a45b505b836004600085815260200190815260200160002060006101000a81548173ffffffffffffffffffffffffffffffffffffffff021916908373ffffffffffffffffffffffffffffffffffffffff16021790555050505050565b6120d88383836122e4565b61218c57600073ffffffffffffffffffffffffffffffffffffffff168373ffffffffffffffffffffffffffffffffffffffff160361214d57806040517f7e27328900000000000000000000000000000000000000000000000000000000815260040161214491906128a3565b60405180910390fd5b81816040517f177e802f00000000000000000000000000000000000000000000000000000000815260040161218392919061347d565b60405180910390fd5b505050565b600080600090507a184f03e93ff9f4daa797ed6e38ed64bf6a1f01000000000000000083106121ef577a184f03e93ff9f4daa797ed6e38ed64bf6a1f01000000000000000083816121e5576121e46130ac565b5b0492506040810190505b6d04ee2d6d415b85acef8100000000831061222c576d04ee2d6d415b85acef81000000008381612222576122216130ac565b5b0492506020810190505b662386f26fc10000831061225b57662386f26fc100008381612251576122506130ac565b5b0492506010810190505b6305f5e1008310612284576305f5e100838161227a576122796130ac565b5b0492506008810190505b61271083106122a957612710838161229f5761229e6130ac565b5b0492506004810190505b606483106122cc57606483816122c2576122c16130ac565b5b0492506002810190505b600a83106122db576001810190505b80915050919050565b60008073ffffffffffffffffffffffffffffffffffffffff168373ffffffffffffffffffffffffffffffffffffffff161415801561239c57508273ffffffffffffffffffffffffffffffffffffffff168473ffffffffffffffffffffffffffffffffffffffff16148061235d575061235c84846112c1565b5b8061239b57508273ffffffffffffffffffffffffffffffffffffffff166123838361152f565b73ffffffffffffffffffffffffffffffffffffffff16145b5b90509392505050565b604051806040016040528060608152602001606081525090565b6000604051905090565b600080fd5b600080fd5b6000819050919050565b6123e6816123d3565b81146123f157600080fd5b50565b600081359050612403816123dd565b92915050565b60006020828403121561241f5761241e6123c9565b5b600061242d848285016123f4565b91505092915050565b60008115159050919050565b61244b81612436565b82525050565b60006020820190506124666000830184612442565b92915050565b60007fffffffff0000000000000000000000000000000000000000000000000000000082169050919050565b6124a18161246c565b81146124ac57600080fd5b50565b6000813590506124be81612498565b92915050565b6000602082840312156124da576124d96123c9565b5b60006124e8848285016124af565b91505092915050565b600081519050919050565b600082825260208201905092915050565b60005b8381101561252b578082015181840152602081019050612510565b60008484015250505050565b6000601f19601f8301169050919050565b6000612553826124f1565b61255d81856124fc565b935061256d81856020860161250d565b61257681612537565b840191505092915050565b6000602082019050818103600083015261259b8184612548565b905092915050565b600073ffffffffffffffffffffffffffffffffffffffff82169050919050565b60006125ce826125a3565b9050919050565b6125de816125c3565b82525050565b60006020820190506125f960008301846125d5565b92915050565b612608816125c3565b811461261357600080fd5b50565b600081359050612625816125ff565b92915050565b60008060408385031215612642576126416123c9565b5b600061265085828601612616565b9250506020612661858286016123f4565b9150509250929050565b600080600060608486031215612684576126836123c9565b5b600061269286828701612616565b93505060206126a386828701612616565b92505060406126b4868287016123f4565b9150509250925092565b600060408201905081810360008301526126d88185612548565b905081810360208301526126ec8184612548565b90509392505050565b600081519050919050565b600082825260208201905092915050565b6000819050602082019050919050565b600082825260208201905092915050565b600061273d826124f1565b6127478185612721565b935061275781856020860161250d565b61276081612537565b840191505092915050565b600060408301600083015184820360008601526127888282612732565b915050602083015184820360208601526127a28282612732565b9150508091505092915050565b60006127bb838361276b565b905092915050565b6000602082019050919050565b60006127db826126f5565b6127e58185612700565b9350836020820285016127f785612711565b8060005b85811015612833578484038952815161281485826127af565b945061281f836127c3565b925060208a019950506001810190506127fb565b50829750879550505050505092915050565b6000602082019050818103600083015261285f81846127d0565b905092915050565b60006020828403121561287d5761287c6123c9565b5b600061288b84828501612616565b91505092915050565b61289d816123d3565b82525050565b60006020820190506128b86000830184612894565b92915050565b6128c781612436565b81146128d257600080fd5b50565b6000813590506128e4816128be565b92915050565b60008060408385031215612901576129006123c9565b5b600061290f85828601612616565b9250506020612920858286016128d5565b9150509250929050565b600080fd5b600080fd5b7f4e487b7100000000000000000000000000000000000000000000000000000000600052604160045260246000fd5b61296c82612537565b810181811067ffffffffffffffff8211171561298b5761298a612934565b5b80604052505050565b600061299e6123bf565b90506129aa8282612963565b919050565b600067ffffffffffffffff8211156129ca576129c9612934565b5b6129d382612537565b9050602081019050919050565b82818337600083830152505050565b6000612a026129fd846129af565b612994565b905082815260208101848484011115612a1e57612a1d61292f565b5b612a298482856129e0565b509392505050565b600082601f830112612a4657612a4561292a565b5b8135612a568482602086016129ef565b91505092915050565b60008060008060808587031215612a7957612a786123c9565b5b6000612a8787828801612616565b9450506020612a9887828801612616565b9350506040612aa9878288016123f4565b925050606085013567ffffffffffffffff811115612aca57612ac96123ce565b5b612ad687828801612a31565b91505092959194509250565b600067ffffffffffffffff821115612afd57612afc612934565b5b612b0682612537565b9050602081019050919050565b6000612b26612b2184612ae2565b612994565b905082815260208101848484011115612b4257612b4161292f565b5b612b4d8482856129e0565b509392505050565b600082601f830112612b6a57612b6961292a565b5b8135612b7a848260208601612b13565b91505092915050565b60008060408385031215612b9a57612b996123c9565b5b600083013567ffffffffffffffff811115612bb857612bb76123ce565b5b612bc485828601612b55565b925050602083013567ffffffffffffffff811115612be557612be46123ce565b5b612bf185828601612b55565b9150509250929050565b60008060408385031215612c1257612c116123c9565b5b6000612c2085828601612616565b9250506020612c3185828601612616565b9150509250929050565b7f4e487b7100000000000000000000000000000000000000000000000000000000600052602260045260246000fd5b60006002820490506001821680612c8257607f821691505b602082108103612c9557612c94612c3b565b5b50919050565b6000606082019050612cb060008301866125d5565b612cbd6020830185612894565b612cca60408301846125d5565b949350505050565b7f4e487b7100000000000000000000000000000000000000000000000000000000600052603260045260246000fd5b7f4e487b7100000000000000000000000000000000000000000000000000000000600052601160045260246000fd5b6000612d3b826123d3565b91507fffffffffffffffffffffffffffffffffffffffffffffffffffffffffffffffff8203612d6d57612d6c612d01565b5b600182019050919050565b600081905092915050565b6000612d8e826124f1565b612d988185612d78565b9350612da881856020860161250d565b80840191505092915050565b6000612dc08285612d83565b9150612dcc8284612d83565b91508190509392505050565b7f596f7520617265206e6f7420746865206f776e6572206f66207468697320636f60008201527f6c6c656374696f6e000000000000000000000000000000000000000000000000602082015250565b6000612e346028836124fc565b9150612e3f82612dd8565b604082019050919050565b60006020820190508181036000830152612e6381612e27565b9050919050565b7f4d61726b6574706c616365206e6f742073657400000000000000000000000000600082015250565b6000612ea06013836124fc565b9150612eab82612e6a565b602082019050919050565b60006020820190508181036000830152612ecf81612e93565b9050919050565b600060a082019050612eeb6000830188612894565b612ef860208301876125d5565b612f0560408301866125d5565b8181036060830152612f178185612548565b90508181036080830152612f2b8184612548565b90509695505050505050565b7f4552433732314d657461646174613a204f776e657220717565727920666f722060008201527f6e6f6e6578697374656e7420746f6b656e000000000000000000000000000000602082015250565b6000612f936031836124fc565b9150612f9e82612f37565b604082019050919050565b60006020820190508181036000830152612fc281612f86565b9050919050565b600081519050919050565b600082825260208201905092915050565b6000612ff082612fc9565b612ffa8185612fd4565b935061300a81856020860161250d565b61301381612537565b840191505092915050565b600060808201905061303360008301876125d5565b61304060208301866125d5565b61304d6040830185612894565b818103606083015261305f8184612fe5565b905095945050505050565b60008151905061307981612498565b92915050565b600060208284031215613095576130946123c9565b5b60006130a38482850161306a565b91505092915050565b7f4e487b7100000000000000000000000000000000000000000000000000000000600052601260045260246000fd5b7f4552433732314d657461646174613a2055524920736574206f66206e6f6e657860008201527f697374656e7420746f6b656e0000000000000000000000000000000000000000602082015250565b6000613137602c836124fc565b9150613142826130db565b604082019050919050565b600060208201905081810360008301526131668161312a565b9050919050565b60008190508160005260206000209050919050565b60006020601f8301049050919050565b600082821b905092915050565b6000600883026131cf7fffffffffffffffffffffffffffffffffffffffffffffffffffffffffffffffff82613192565b6131d98683613192565b95508019841693508086168417925050509392505050565b6000819050919050565b600061321661321161320c846123d3565b6131f1565b6123d3565b9050919050565b6000819050919050565b613230836131fb565b61324461323c8261321d565b84845461319f565b825550505050565b600090565b61325961324c565b613264818484613227565b505050565b5b818110156132885761327d600082613251565b60018101905061326a565b5050565b601f8211156132cd5761329e8161316d565b6132a784613182565b810160208510156132b6578190505b6132ca6132c285613182565b830182613269565b50505b505050565b600082821c905092915050565b60006132f0600019846008026132d2565b1980831691505092915050565b600061330983836132df565b9150826002028217905092915050565b613322826124f1565b67ffffffffffffffff81111561333b5761333a612934565b5b6133458254612c6a565b61335082828561328c565b600060209050601f8311600181146133835760008415613371578287015190505b61337b85826132fd565b8655506133e3565b601f1984166133918661316d565b60005b828110156133b957848901518255600182019150602085019450602081019050613394565b868310156133d657848901516133d2601f8916826132df565b8355505b6001600288020188555050505b505050505050565b7f4552433732314d657461646174613a204e616d6520736574206f66206e6f6e6560008201527f78697374656e7420746f6b656e00000000000000000000000000000000000000602082015250565b6000613447602d836124fc565b9150613452826133eb565b604082019050919050565b600060208201905081810360008301526134768161343a565b9050919050565b600060408201905061349260008301856125d5565b61349f6020830184612894565b939250505056fea26469706673582212203d501a4054d466afd27f3cc1804e2cc248724d94791ed0d4595a3c190a5af10664736f6c63430008140033a2646970667358221220670438c9137e6f65466c5944c2e5abb25c583a8f20cd73abe6bfbbbbe616e7c564736f6c63430008140033",
  "linkReferences": {},
  "deployedLinkReferences": {}
}