{
  "_format": "hh-sol-artifact-1",
  "contractName": "BlastNFTFactory",
  "sourceName": "contracts/BlastNFTFactory.sol",
  "abi": [
    {
      "inputs": [],
      "stateMutability": "nonpayable",
      "type": "constructor"
    },
    {
      "inputs": [
        {
          "internalType": "address",
          "name": "owner",
          "type": "address"
        }
      ],
      "name": "OwnableInvalidOwner",
      "type": "error"
    },
    {
      "inputs": [
        {
          "internalType": "address",
          "name": "account",
          "type": "address"
        }
      ],
      "name": "OwnableUnauthorizedAccount",
      "type": "error"
    },
    {
      "anonymous": false,
      "inputs": [
        {
          "indexed": true,
          "internalType": "address",
          "name": "collection",
          "type": "address"
        },
        {
          "indexed": false,
          "internalType": "string",
          "name": "name",
          "type": "string"
        },
        {
          "indexed": false,
          "internalType": "string",
          "name": "symbol",
          "type": "string"
        },
        {
          "indexed": true,
          "internalType": "address",
          "name": "creator",
          "type": "address"
        }
      ],
      "name": "CollectionCreated",
      "type": "event"
    },
    {
      "anonymous": false,
      "inputs": [
        {
          "indexed": true,
          "internalType": "address",
          "name": "previousOwner",
          "type": "address"
        },
        {
          "indexed": true,
          "internalType": "address",
          "name": "newOwner",
          "type": "address"
        }
      ],
      "name": "OwnershipTransferred",
      "type": "event"
    },
    {
      "inputs": [],
      "name": "_getCollectionIdCounter",
      "outputs": [
        {
          "internalType": "uint256",
          "name": "",
          "type": "uint256"
        }
      ],
      "stateMutability": "view",
      "type": "function"
    },
    {
      "inputs": [
        {
          "internalType": "string",
          "name": "name",
          "type": "string"
        },
        {
          "internalType": "string",
          "name": "symbol",
          "type": "string"
        }
      ],
      "name": "createCollection",
      "outputs": [
        {
          "internalType": "address",
          "name": "",
          "type": "address"
        }
      ],
      "stateMutability": "nonpayable",
      "type": "function"
    },
    {
      "inputs": [],
      "name": "deployed",
      "outputs": [
        {
          "internalType": "address",
          "name": "",
          "type": "address"
        }
      ],
      "stateMutability": "view",
      "type": "function"
    },
    {
      "inputs": [],
      "name": "getCreatorCollections",
      "outputs": [
        {
          "internalType": "address[]",
          "name": "",
          "type": "address[]"
        }
      ],
      "stateMutability": "view",
      "type": "function"
    },
    {
      "inputs": [
        {
          "internalType": "address",
          "name": "collection",
          "type": "address"
        }
      ],
      "name": "isCollectionCreated",
      "outputs": [
        {
          "internalType": "bool",
          "name": "",
          "type": "bool"
        }
      ],
      "stateMutability": "view",
      "type": "function"
    },
    {
      "inputs": [],
      "name": "owner",
      "outputs": [
        {
          "internalType": "address",
          "name": "",
          "type": "address"
        }
      ],
      "stateMutability": "view",
      "type": "function"
    },
    {
      "inputs": [],
      "name": "renounceOwnership",
      "outputs": [],
      "stateMutability": "nonpayable",
      "type": "function"
    },
    {
      "inputs": [
        {
          "internalType": "address",
          "name": "marketplace",
          "type": "address"
        }
      ],
      "name": "setMarketplace",
      "outputs": [],
      "stateMutability": "nonpayable",
      "type": "function"
    },
    {
      "inputs": [
        {
          "internalType": "address",
          "name": "newOwner",
          "type": "address"
        }
      ],
      "name": "transferOwnership",
      "outputs": [],
      "stateMutability": "nonpayable",
      "type": "function"
    }
  ],
  "bytecode": "0x608060405234801561001057600080fd5b5033600073ffffffffffffffffffffffffffffffffffffffff168173ffffffffffffffffffffffffffffffffffffffff16036100845760006040517f1e4fbdf700000000000000000000000000000000000000000000000000000000815260040161007b919061019e565b60405180910390fd5b6100938161009960201b60201c565b506101b9565b60008060009054906101000a900473ffffffffffffffffffffffffffffffffffffffff169050816000806101000a81548173ffffffffffffffffffffffffffffffffffffffff021916908373ffffffffffffffffffffffffffffffffffffffff1602179055508173ffffffffffffffffffffffffffffffffffffffff168173ffffffffffffffffffffffffffffffffffffffff167f8be0079c531659141344cd1fd0a4f28419497f9722a3daafe3b4186f6b6457e060405160405180910390a35050565b600073ffffffffffffffffffffffffffffffffffffffff82169050919050565b60006101888261015d565b9050919050565b6101988161017d565b82525050565b60006020820190506101b3600083018461018f565b92915050565b61503c80620001c96000396000f3fe60806040523480156200001157600080fd5b5060043610620000a05760003560e01c80637b9c8641116200006f5780637b9c864114620001295780638da5cb5b146200014b578063c785cafb146200016d578063f2fde38b14620001a3578063f905c15a14620001c357620000a0565b8063176b9b7514620000a557806333ce2fe314620000db578063715018a614620000fd57806373ad6c2d1462000109575b600080fd5b620000c36004803603810190620000bd919062000953565b620001e5565b604051620000d2919062000a1d565b60405180910390f35b620000e562000422565b604051620000f4919062000a55565b60405180910390f35b620001076200042c565b005b62000127600480360381019062000121919062000aa3565b62000444565b005b6200013362000492565b60405162000142919062000ba3565b60405180910390f35b620001556200055f565b60405162000164919062000a1d565b60405180910390f35b6200018b600480360381019062000185919062000aa3565b62000588565b6040516200019a919062000be4565b60405180910390f35b620001c16004803603810190620001bb919062000aa3565b620005de565b005b620001cd6200066b565b604051620001dc919062000a1d565b60405180910390f35b6000808383600260009054906101000a900473ffffffffffffffffffffffffffffffffffffffff16336040516200021c90620007cf565b6200022b949392919062000c8a565b604051809103906000f08015801562000248573d6000803e3d6000fd5b509050600081905060006001549050600160008154809291906200026c9062000d14565b919050555080600560008473ffffffffffffffffffffffffffffffffffffffff1673ffffffffffffffffffffffffffffffffffffffff168152602001908152602001600020819055506001600360008473ffffffffffffffffffffffffffffffffffffffff1673ffffffffffffffffffffffffffffffffffffffff16815260200190815260200160002060006101000a81548160ff021916908315150217905550600460003373ffffffffffffffffffffffffffffffffffffffff1673ffffffffffffffffffffffffffffffffffffffff168152602001908152602001600020829080600181540180825580915050600190039060005260206000200160009091909190916101000a81548173ffffffffffffffffffffffffffffffffffffffff021916908373ffffffffffffffffffffffffffffffffffffffff1602179055503373ffffffffffffffffffffffffffffffffffffffff168273ffffffffffffffffffffffffffffffffffffffff167f6974864ab24c795f57c207a650ae6763287c14a1c55fedc8506acb02796eb1a588886040516200040e92919062000d61565b60405180910390a381935050505092915050565b6000600154905090565b6200043662000673565b62000442600062000703565b565b6200044e62000673565b80600260006101000a81548173ffffffffffffffffffffffffffffffffffffffff021916908373ffffffffffffffffffffffffffffffffffffffff16021790555050565b6060600460003373ffffffffffffffffffffffffffffffffffffffff1673ffffffffffffffffffffffffffffffffffffffff1681526020019081526020016000208054806020026020016040519081016040528092919081815260200182805480156200055557602002820191906000526020600020905b8160009054906101000a900473ffffffffffffffffffffffffffffffffffffffff1673ffffffffffffffffffffffffffffffffffffffff16815260200190600101908083116200050a575b5050505050905090565b60008060009054906101000a900473ffffffffffffffffffffffffffffffffffffffff16905090565b6000600360008373ffffffffffffffffffffffffffffffffffffffff1673ffffffffffffffffffffffffffffffffffffffff16815260200190815260200160002060009054906101000a900460ff169050919050565b620005e862000673565b600073ffffffffffffffffffffffffffffffffffffffff168173ffffffffffffffffffffffffffffffffffffffff16036200065d5760006040517f1e4fbdf700000000000000000000000000000000000000000000000000000000815260040162000654919062000a1d565b60405180910390fd5b620006688162000703565b50565b600030905090565b6200067d620007c7565b73ffffffffffffffffffffffffffffffffffffffff166200069d6200055f565b73ffffffffffffffffffffffffffffffffffffffff16146200070157620006c3620007c7565b6040517f118cdaa7000000000000000000000000000000000000000000000000000000008152600401620006f8919062000a1d565b60405180910390fd5b565b60008060009054906101000a900473ffffffffffffffffffffffffffffffffffffffff169050816000806101000a81548173ffffffffffffffffffffffffffffffffffffffff021916908373ffffffffffffffffffffffffffffffffffffffff1602179055508173ffffffffffffffffffffffffffffffffffffffff168173ffffffffffffffffffffffffffffffffffffffff167f8be0079c531659141344cd1fd0a4f28419497f9722a3daafe3b4186f6b6457e060405160405180910390a35050565b600033905090565b61426a8062000d9d83390190565b6000604051905090565b600080fd5b600080fd5b600080fd5b600080fd5b6000601f19601f8301169050919050565b7f4e487b7100000000000000000000000000000000000000000000000000000000600052604160045260246000fd5b6200084682620007fb565b810181811067ffffffffffffffff821117156200086857620008676200080c565b5b80604052505050565b60006200087d620007dd565b90506200088b82826200083b565b919050565b600067ffffffffffffffff821115620008ae57620008ad6200080c565b5b620008b982620007fb565b9050602081019050919050565b82818337600083830152505050565b6000620008ec620008e68462000890565b62000871565b9050828152602081018484840111156200090b576200090a620007f6565b5b62000918848285620008c6565b509392505050565b600082601f830112620009385762000937620007f1565b5b81356200094a848260208601620008d5565b91505092915050565b600080604083850312156200096d576200096c620007e7565b5b600083013567ffffffffffffffff8111156200098e576200098d620007ec565b5b6200099c8582860162000920565b925050602083013567ffffffffffffffff811115620009c057620009bf620007ec565b5b620009ce8582860162000920565b9150509250929050565b600073ffffffffffffffffffffffffffffffffffffffff82169050919050565b600062000a0582620009d8565b9050919050565b62000a1781620009f8565b82525050565b600060208201905062000a34600083018462000a0c565b92915050565b6000819050919050565b62000a4f8162000a3a565b82525050565b600060208201905062000a6c600083018462000a44565b92915050565b62000a7d81620009f8565b811462000a8957600080fd5b50565b60008135905062000a9d8162000a72565b92915050565b60006020828403121562000abc5762000abb620007e7565b5b600062000acc8482850162000a8c565b91505092915050565b600081519050919050565b600082825260208201905092915050565b6000819050602082019050919050565b62000b0c81620009f8565b82525050565b600062000b20838362000b01565b60208301905092915050565b6000602082019050919050565b600062000b468262000ad5565b62000b52818562000ae0565b935062000b5f8362000af1565b8060005b8381101562000b9657815162000b7a888262000b12565b975062000b878362000b2c565b92505060018101905062000b63565b5085935050505092915050565b6000602082019050818103600083015262000bbf818462000b39565b905092915050565b60008115159050919050565b62000bde8162000bc7565b82525050565b600060208201905062000bfb600083018462000bd3565b92915050565b600081519050919050565b600082825260208201905092915050565b60005b8381101562000c3d57808201518184015260208101905062000c20565b60008484015250505050565b600062000c568262000c01565b62000c62818562000c0c565b935062000c7481856020860162000c1d565b62000c7f81620007fb565b840191505092915050565b6000608082019050818103600083015262000ca6818762000c49565b9050818103602083015262000cbc818662000c49565b905062000ccd604083018562000a0c565b62000cdc606083018462000a0c565b95945050505050565b7f4e487b7100000000000000000000000000000000000000000000000000000000600052601160045260246000fd5b600062000d218262000a3a565b91507fffffffffffffffffffffffffffffffffffffffffffffffffffffffffffffffff820362000d565762000d5562000ce5565b5b600182019050919050565b6000604082019050818103600083015262000d7d818562000c49565b9050818103602083015262000d93818462000c49565b9050939250505056fe60806040523480156200001157600080fd5b506040516200426a3803806200426a833981810160405281019062000037919062000612565b80848481600090816200004b91906200090d565b5080600190816200005d91906200090d565b505050600073ffffffffffffffffffffffffffffffffffffffff168173ffffffffffffffffffffffffffffffffffffffff1603620000d55760006040517f1e4fbdf7000000000000000000000000000000000000000000000000000000008152600401620000cc919062000a05565b60405180910390fd5b620000e681620001b260201b60201c565b508360089081620000f891906200090d565b5082600990816200010a91906200090d565b5080600b60006101000a81548173ffffffffffffffffffffffffffffffffffffffff021916908373ffffffffffffffffffffffffffffffffffffffff16021790555081600a60006101000a81548173ffffffffffffffffffffffffffffffffffffffff021916908373ffffffffffffffffffffffffffffffffffffffff1602179055506000600781905550620001a88260016200027860201b60201c565b5050505062000a5c565b6000600660009054906101000a900473ffffffffffffffffffffffffffffffffffffffff16905081600660006101000a81548173ffffffffffffffffffffffffffffffffffffffff021916908373ffffffffffffffffffffffffffffffffffffffff1602179055508173ffffffffffffffffffffffffffffffffffffffff168173ffffffffffffffffffffffffffffffffffffffff167f8be0079c531659141344cd1fd0a4f28419497f9722a3daafe3b4186f6b6457e060405160405180910390a35050565b6200029a6200028c6200029e60201b60201c565b8383620002a660201b60201c565b5050565b600033905090565b600073ffffffffffffffffffffffffffffffffffffffff168273ffffffffffffffffffffffffffffffffffffffff16036200031a57816040517f5b08ba1800000000000000000000000000000000000000000000000000000000815260040162000311919062000a05565b60405180910390fd5b80600560008573ffffffffffffffffffffffffffffffffffffffff1673ffffffffffffffffffffffffffffffffffffffff16815260200190815260200160002060008473ffffffffffffffffffffffffffffffffffffffff1673ffffffffffffffffffffffffffffffffffffffff16815260200190815260200160002060006101000a81548160ff0219169083151502179055508173ffffffffffffffffffffffffffffffffffffffff168373ffffffffffffffffffffffffffffffffffffffff167f17307eab39ab6107e8899845ad3d59bd9653f200f220920489ca2b5937696c31836040516200040d919062000a3f565b60405180910390a3505050565b6000604051905090565b600080fd5b600080fd5b600080fd5b600080fd5b6000601f19601f8301169050919050565b7f4e487b7100000000000000000000000000000000000000000000000000000000600052604160045260246000fd5b620004838262000438565b810181811067ffffffffffffffff82111715620004a557620004a462000449565b5b80604052505050565b6000620004ba6200041a565b9050620004c8828262000478565b919050565b600067ffffffffffffffff821115620004eb57620004ea62000449565b5b620004f68262000438565b9050602081019050919050565b60005b838110156200052357808201518184015260208101905062000506565b60008484015250505050565b6000620005466200054084620004cd565b620004ae565b90508281526020810184848401111562000565576200056462000433565b5b6200057284828562000503565b509392505050565b600082601f8301126200059257620005916200042e565b5b8151620005a48482602086016200052f565b91505092915050565b600073ffffffffffffffffffffffffffffffffffffffff82169050919050565b6000620005da82620005ad565b9050919050565b620005ec81620005cd565b8114620005f857600080fd5b50565b6000815190506200060c81620005e1565b92915050565b600080600080608085870312156200062f576200062e62000424565b5b600085015167ffffffffffffffff81111562000650576200064f62000429565b5b6200065e878288016200057a565b945050602085015167ffffffffffffffff81111562000682576200068162000429565b5b62000690878288016200057a565b9350506040620006a387828801620005fb565b9250506060620006b687828801620005fb565b91505092959194509250565b600081519050919050565b7f4e487b7100000000000000000000000000000000000000000000000000000000600052602260045260246000fd5b600060028204905060018216806200071557607f821691505b6020821081036200072b576200072a620006cd565b5b50919050565b60008190508160005260206000209050919050565b60006020601f8301049050919050565b600082821b905092915050565b600060088302620007957fffffffffffffffffffffffffffffffffffffffffffffffffffffffffffffffff8262000756565b620007a1868362000756565b95508019841693508086168417925050509392505050565b6000819050919050565b6000819050919050565b6000620007ee620007e8620007e284620007b9565b620007c3565b620007b9565b9050919050565b6000819050919050565b6200080a83620007cd565b620008226200081982620007f5565b84845462000763565b825550505050565b600090565b620008396200082a565b62000846818484620007ff565b505050565b5b818110156200086e57620008626000826200082f565b6001810190506200084c565b5050565b601f821115620008bd57620008878162000731565b620008928462000746565b81016020851015620008a2578190505b620008ba620008b18562000746565b8301826200084b565b50505b505050565b600082821c905092915050565b6000620008e260001984600802620008c2565b1980831691505092915050565b6000620008fd8383620008cf565b9150826002028217905092915050565b6200091882620006c2565b67ffffffffffffffff81111562000934576200093362000449565b5b620009408254620006fc565b6200094d82828562000872565b600060209050601f83116001811462000985576000841562000970578287015190505b6200097c8582620008ef565b865550620009ec565b601f198416620009958662000731565b60005b82811015620009bf5784890151825560018201915060208501945060208101905062000998565b86831015620009df5784890151620009db601f891682620008cf565b8355505b6001600288020188555050505b505050505050565b620009ff81620005cd565b82525050565b600060208201905062000a1c6000830184620009f4565b92915050565b60008115159050919050565b62000a398162000a22565b82525050565b600060208201905062000a56600083018462000a2e565b92915050565b6137fe8062000a6c6000396000f3fe608060405234801561001057600080fd5b50600436106101ce5760003560e01c806370a0823111610104578063c87b56dd116100a2578063e985e9c511610071578063e985e9c514610542578063f2fde38b14610572578063f905c15a1461058e578063fd731837146105ac576101ce565b8063c87b56dd146104a8578063dbe16c07146104d8578063e546b9a314610508578063e960554414610526576101ce565b806395d89b41116100de57806395d89b411461043457806397a0eb5a14610452578063a22cb46514610470578063b88d4fde1461048c576101ce565b806370a08231146103dc578063715018a61461040c5780638da5cb5b14610416576101ce565b80632967fdbc116101715780633bb3a24d1161014b5780633bb3a24d1461034457806342842e0e14610374578063437e0df1146103905780636352211e146103ac576101ce565b80632967fdbc146102ea57806332045a8514610308578063344e8e3f14610326576101ce565b8063081812fc116101ad578063081812fc14610251578063095ea7b31461028157806323b872dd1461029d578063289923b1146102b9576101ce565b8062923f9e146101d357806301ffc9a71461020357806306fdde0314610233575b600080fd5b6101ed60048036038101906101e89190612709565b6105dc565b6040516101fa9190612751565b60405180910390f35b61021d600480360381019061021891906127c4565b6105ea565b60405161022a9190612751565b60405180910390f35b61023b6106cc565b6040516102489190612881565b60405180910390f35b61026b60048036038101906102669190612709565b61075e565b60405161027891906128e4565b60405180910390f35b61029b6004803603810190610296919061292b565b61077a565b005b6102b760048036038101906102b2919061296b565b610790565b005b6102d360048036038101906102ce9190612709565b610892565b6040516102e19291906129be565b60405180910390f35b6102f26109dc565b6040516102ff9190612881565b60405180910390f35b610310610a6e565b60405161031d9190612881565b60405180910390f35b61032e610b00565b60405161033b9190612b67565b60405180910390f35b61035e60048036038101906103599190612709565b610d05565b60405161036b9190612881565b60405180910390f35b61038e6004803603810190610389919061296b565b610daa565b005b6103aa60048036038101906103a59190612709565b610dca565b005b6103c660048036038101906103c19190612709565b610df9565b6040516103d391906128e4565b60405180910390f35b6103f660048036038101906103f19190612b89565b610e0b565b6040516104039190612bc5565b60405180910390f35b610414610ec5565b005b61041e610ed9565b60405161042b91906128e4565b60405180910390f35b61043c610f03565b6040516104499190612881565b60405180910390f35b61045a610f95565b6040516104679190612bc5565b60405180910390f35b61048a60048036038101906104859190612c0c565b610f9f565b005b6104a660048036038101906104a19190612d81565b610fb5565b005b6104c260048036038101906104bd9190612709565b610fd2565b6040516104cf9190612881565b60405180910390f35b6104f260048036038101906104ed9190612709565b61103b565b6040516104ff9190612881565b60405180910390f35b6105106110e0565b60405161051d9190612b67565b60405180910390f35b610540600480360381019061053b9190612ea5565b611390565b005b61055c60048036038101906105579190612f1d565b6115ba565b6040516105699190612751565b60405180910390f35b61058c60048036038101906105879190612b89565b61164e565b005b6105966116d4565b6040516105a391906128e4565b60405180910390f35b6105c660048036038101906105c19190612709565b6116dc565b6040516105d391906128e4565b60405180910390f35b600060075482109050919050565b60007f80ac58cd000000000000000000000000000000000000000000000000000000007bffffffffffffffffffffffffffffffffffffffffffffffffffffffff1916827bffffffffffffffffffffffffffffffffffffffffffffffffffffffff191614806106b557507f5b5e139f000000000000000000000000000000000000000000000000000000007bffffffffffffffffffffffffffffffffffffffffffffffffffffffff1916827bffffffffffffffffffffffffffffffffffffffffffffffffffffffff1916145b806106c557506106c482611736565b5b9050919050565b6060600080546106db90612f8c565b80601f016020809104026020016040519081016040528092919081815260200182805461070790612f8c565b80156107545780601f1061072957610100808354040283529160200191610754565b820191906000526020600020905b81548152906001019060200180831161073757829003601f168201915b5050505050905090565b6000610769826117a0565b5061077382611828565b9050919050565b61078c8282610787611865565b61186d565b5050565b600073ffffffffffffffffffffffffffffffffffffffff168273ffffffffffffffffffffffffffffffffffffffff16036108025760006040517f64a0ae920000000000000000000000000000000000000000000000000000000081526004016107f991906128e4565b60405180910390fd5b60006108168383610811611865565b61187f565b90508373ffffffffffffffffffffffffffffffffffffffff168173ffffffffffffffffffffffffffffffffffffffff161461088c578382826040517f64283d7b00000000000000000000000000000000000000000000000000000000815260040161088393929190612fbd565b60405180910390fd5b50505050565b606080600d6000848152602001908152602001600020600e60008581526020019081526020016000208180546108c790612f8c565b80601f01602080910402602001604051908101604052809291908181526020018280546108f390612f8c565b80156109405780601f1061091557610100808354040283529160200191610940565b820191906000526020600020905b81548152906001019060200180831161092357829003601f168201915b5050505050915080805461095390612f8c565b80601f016020809104026020016040519081016040528092919081815260200182805461097f90612f8c565b80156109cc5780601f106109a1576101008083540402835291602001916109cc565b820191906000526020600020905b8154815290600101906020018083116109af57829003601f168201915b5050505050905091509150915091565b6060600980546109eb90612f8c565b80601f0160208091040260200160405190810160405280929190818152602001828054610a1790612f8c565b8015610a645780601f10610a3957610100808354040283529160200191610a64565b820191906000526020600020905b815481529060010190602001808311610a4757829003601f168201915b5050505050905090565b606060088054610a7d90612f8c565b80601f0160208091040260200160405190810160405280929190818152602001828054610aa990612f8c565b8015610af65780601f10610acb57610100808354040283529160200191610af6565b820191906000526020600020905b815481529060010190602001808311610ad957829003601f168201915b5050505050905090565b6060600060075467ffffffffffffffff811115610b2057610b1f612c56565b5b604051908082528060200260200182016040528015610b5957816020015b610b4661269e565b815260200190600190039081610b3e5790505b50905060005b600754811015610cfd5760008190506000600d60008481526020019081526020016000208054610b8e90612f8c565b80601f0160208091040260200160405190810160405280929190818152602001828054610bba90612f8c565b8015610c075780601f10610bdc57610100808354040283529160200191610c07565b820191906000526020600020905b815481529060010190602001808311610bea57829003601f168201915b505050505090506000600e60008581526020019081526020016000208054610c2e90612f8c565b80601f0160208091040260200160405190810160405280929190818152602001828054610c5a90612f8c565b8015610ca75780601f10610c7c57610100808354040283529160200191610ca7565b820191906000526020600020905b815481529060010190602001808311610c8a57829003601f168201915b50505050509050604051806060016040528084815260200183815260200182815250858581518110610cdc57610cdb612ff4565b5b60200260200101819052505050508080610cf590613052565b915050610b5f565b508091505090565b6060600d60008381526020019081526020016000208054610d2590612f8c565b80601f0160208091040260200160405190810160405280929190818152602001828054610d5190612f8c565b8015610d9e5780601f10610d7357610100808354040283529160200191610d9e565b820191906000526020600020905b815481529060010190602001808311610d8157829003601f168201915b50505050509050919050565b610dc583838360405180602001604052806000815250610fb5565b505050565b610df6600a60009054906101000a900473ffffffffffffffffffffffffffffffffffffffff168261077a565b50565b6000610e04826117a0565b9050919050565b60008073ffffffffffffffffffffffffffffffffffffffff168273ffffffffffffffffffffffffffffffffffffffff1603610e7e5760006040517f89c62b64000000000000000000000000000000000000000000000000000000008152600401610e7591906128e4565b60405180910390fd5b600360008373ffffffffffffffffffffffffffffffffffffffff1673ffffffffffffffffffffffffffffffffffffffff168152602001908152602001600020549050919050565b610ecd611a99565b610ed76000611b20565b565b6000600660009054906101000a900473ffffffffffffffffffffffffffffffffffffffff16905090565b606060018054610f1290612f8c565b80601f0160208091040260200160405190810160405280929190818152602001828054610f3e90612f8c565b8015610f8b5780601f10610f6057610100808354040283529160200191610f8b565b820191906000526020600020905b815481529060010190602001808311610f6e57829003601f168201915b5050505050905090565b6000600754905090565b610fb1610faa611865565b8383611be6565b5050565b610fc0848484610790565b610fcc84848484611d55565b50505050565b6060610fdd826117a0565b506000610fe8611f0c565b905060008151116110085760405180602001604052806000815250611033565b8061101284611f23565b6040516020016110239291906130d6565b6040516020818303038152906040525b915050919050565b6060600e6000838152602001908152602001600020805461105b90612f8c565b80601f016020809104026020016040519081016040528092919081815260200182805461108790612f8c565b80156110d45780601f106110a9576101008083540402835291602001916110d4565b820191906000526020600020905b8154815290600101906020018083116110b757829003601f168201915b50505050509050919050565b60606000600c60003373ffffffffffffffffffffffffffffffffffffffff1673ffffffffffffffffffffffffffffffffffffffff16815260200190815260200160002080548060200260200160405190810160405280929190818152602001828054801561116d57602002820191906000526020600020905b815481526020019060010190808311611159575b505050505090506000815167ffffffffffffffff81111561119157611190612c56565b5b6040519080825280602002602001820160405280156111ca57816020015b6111b761269e565b8152602001906001900390816111af5790505b50905060005b82518110156113875760008382815181106111ee576111ed612ff4565b5b602002602001015190506000600d6000838152602001908152602001600020805461121890612f8c565b80601f016020809104026020016040519081016040528092919081815260200182805461124490612f8c565b80156112915780601f1061126657610100808354040283529160200191611291565b820191906000526020600020905b81548152906001019060200180831161127457829003601f168201915b505050505090506000600e600084815260200190815260200160002080546112b890612f8c565b80601f01602080910402602001604051908101604052809291908181526020018280546112e490612f8c565b80156113315780601f1061130657610100808354040283529160200191611331565b820191906000526020600020905b81548152906001019060200180831161131457829003601f168201915b5050505050905060405180606001604052808481526020018381526020018281525085858151811061136657611365612ff4565b5b6020026020010181905250505050808061137f90613052565b9150506111d0565b50809250505090565b3373ffffffffffffffffffffffffffffffffffffffff16600b60009054906101000a900473ffffffffffffffffffffffffffffffffffffffff1673ffffffffffffffffffffffffffffffffffffffff1614611420576040517f08c379a00000000000000000000000000000000000000000000000000000000081526004016114179061316c565b60405180910390fd5b600073ffffffffffffffffffffffffffffffffffffffff16600a60009054906101000a900473ffffffffffffffffffffffffffffffffffffffff1673ffffffffffffffffffffffffffffffffffffffff16036114b1576040517f08c379a00000000000000000000000000000000000000000000000000000000081526004016114a8906131d8565b60405180910390fd5b60006007549050600c60003373ffffffffffffffffffffffffffffffffffffffff1673ffffffffffffffffffffffffffffffffffffffff1681526020019081526020016000208190806001815401808255809150506001900390600052602060002001600090919091909150556007600081548092919061153190613052565b91905055506115403382611ff1565b61154a81846120ea565b6115548183612157565b7f8f14bf3a499be9be1bfdecd062178f4245976705ce8a9ab4464f7e22fb09898381600a60009054906101000a900473ffffffffffffffffffffffffffffffffffffffff163386866040516115ad9594939291906131f8565b60405180910390a1505050565b6000600560008473ffffffffffffffffffffffffffffffffffffffff1673ffffffffffffffffffffffffffffffffffffffff16815260200190815260200160002060008373ffffffffffffffffffffffffffffffffffffffff1673ffffffffffffffffffffffffffffffffffffffff16815260200190815260200160002060009054906101000a900460ff16905092915050565b611656611a99565b600073ffffffffffffffffffffffffffffffffffffffff168173ffffffffffffffffffffffffffffffffffffffff16036116c85760006040517f1e4fbdf70000000000000000000000000000000000000000000000000000000081526004016116bf91906128e4565b60405180910390fd5b6116d181611b20565b50565b600030905090565b60006116e7826105dc565b611726576040517f08c379a000000000000000000000000000000000000000000000000000000000815260040161171d906132cb565b60405180910390fd5b61172f82610df9565b9050919050565b60007f01ffc9a7000000000000000000000000000000000000000000000000000000007bffffffffffffffffffffffffffffffffffffffffffffffffffffffff1916827bffffffffffffffffffffffffffffffffffffffffffffffffffffffff1916149050919050565b6000806117ac836121c4565b9050600073ffffffffffffffffffffffffffffffffffffffff168173ffffffffffffffffffffffffffffffffffffffff160361181f57826040517f7e2732890000000000000000000000000000000000000000000000000000000081526004016118169190612bc5565b60405180910390fd5b80915050919050565b60006004600083815260200190815260200160002060009054906101000a900473ffffffffffffffffffffffffffffffffffffffff169050919050565b600033905090565b61187a8383836001612201565b505050565b60008061188b846121c4565b9050600073ffffffffffffffffffffffffffffffffffffffff168373ffffffffffffffffffffffffffffffffffffffff16146118cd576118cc8184866123c6565b5b600073ffffffffffffffffffffffffffffffffffffffff168173ffffffffffffffffffffffffffffffffffffffff161461195e5761190f600085600080612201565b6001600360008373ffffffffffffffffffffffffffffffffffffffff1673ffffffffffffffffffffffffffffffffffffffff168152602001908152602001600020600082825403925050819055505b600073ffffffffffffffffffffffffffffffffffffffff168573ffffffffffffffffffffffffffffffffffffffff16146119e1576001600360008773ffffffffffffffffffffffffffffffffffffffff1673ffffffffffffffffffffffffffffffffffffffff168152602001908152602001600020600082825401925050819055505b846002600086815260200190815260200160002060006101000a81548173ffffffffffffffffffffffffffffffffffffffff021916908373ffffffffffffffffffffffffffffffffffffffff160217905550838573ffffffffffffffffffffffffffffffffffffffff168273ffffffffffffffffffffffffffffffffffffffff167fddf252ad1be2c89b69c2b068fc378daa952ba7f163c4a11628f55a4df523b3ef60405160405180910390a4809150509392505050565b611aa1611865565b73ffffffffffffffffffffffffffffffffffffffff16611abf610ed9565b73ffffffffffffffffffffffffffffffffffffffff1614611b1e57611ae2611865565b6040517f118cdaa7000000000000000000000000000000000000000000000000000000008152600401611b1591906128e4565b60405180910390fd5b565b6000600660009054906101000a900473ffffffffffffffffffffffffffffffffffffffff16905081600660006101000a81548173ffffffffffffffffffffffffffffffffffffffff021916908373ffffffffffffffffffffffffffffffffffffffff1602179055508173ffffffffffffffffffffffffffffffffffffffff168173ffffffffffffffffffffffffffffffffffffffff167f8be0079c531659141344cd1fd0a4f28419497f9722a3daafe3b4186f6b6457e060405160405180910390a35050565b600073ffffffffffffffffffffffffffffffffffffffff168273ffffffffffffffffffffffffffffffffffffffff1603611c5757816040517f5b08ba18000000000000000000000000000000000000000000000000000000008152600401611c4e91906128e4565b60405180910390fd5b80600560008573ffffffffffffffffffffffffffffffffffffffff1673ffffffffffffffffffffffffffffffffffffffff16815260200190815260200160002060008473ffffffffffffffffffffffffffffffffffffffff1673ffffffffffffffffffffffffffffffffffffffff16815260200190815260200160002060006101000a81548160ff0219169083151502179055508173ffffffffffffffffffffffffffffffffffffffff168373ffffffffffffffffffffffffffffffffffffffff167f17307eab39ab6107e8899845ad3d59bd9653f200f220920489ca2b5937696c3183604051611d489190612751565b60405180910390a3505050565b60008373ffffffffffffffffffffffffffffffffffffffff163b1115611f06578273ffffffffffffffffffffffffffffffffffffffff1663150b7a02611d99611865565b8685856040518563ffffffff1660e01b8152600401611dbb9493929190613340565b6020604051808303816000875af1925050508015611df757506040513d601f19601f82011682018060405250810190611df491906133a1565b60015b611e7b573d8060008114611e27576040519150601f19603f3d011682016040523d82523d6000602084013e611e2c565b606091505b506000815103611e7357836040517f64a0ae92000000000000000000000000000000000000000000000000000000008152600401611e6a91906128e4565b60405180910390fd5b805181602001fd5b63150b7a0260e01b7bffffffffffffffffffffffffffffffffffffffffffffffffffffffff1916817bffffffffffffffffffffffffffffffffffffffffffffffffffffffff191614611f0457836040517f64a0ae92000000000000000000000000000000000000000000000000000000008152600401611efb91906128e4565b60405180910390fd5b505b50505050565b606060405180602001604052806000815250905090565b606060006001611f328461248a565b01905060008167ffffffffffffffff811115611f5157611f50612c56565b5b6040519080825280601f01601f191660200182016040528015611f835781602001600182028036833780820191505090505b509050600082602001820190505b600115611fe6578080600190039150507f3031323334353637383961626364656600000000000000000000000000000000600a86061a8153600a8581611fda57611fd96133ce565b5b04945060008503611f91575b819350505050919050565b600073ffffffffffffffffffffffffffffffffffffffff168273ffffffffffffffffffffffffffffffffffffffff16036120635760006040517f64a0ae9200000000000000000000000000000000000000000000000000000000815260040161205a91906128e4565b60405180910390fd5b60006120718383600061187f565b9050600073ffffffffffffffffffffffffffffffffffffffff168173ffffffffffffffffffffffffffffffffffffffff16146120e55760006040517f73c6ac6e0000000000000000000000000000000000000000000000000000000081526004016120dc91906128e4565b60405180910390fd5b505050565b6120f3826105dc565b612132576040517f08c379a00000000000000000000000000000000000000000000000000000000081526004016121299061346f565b60405180910390fd5b80600d60008481526020019081526020016000209081612152919061363b565b505050565b612160826105dc565b61219f576040517f08c379a00000000000000000000000000000000000000000000000000000000081526004016121969061377f565b60405180910390fd5b80600e600084815260200190815260200160002090816121bf919061363b565b505050565b60006002600083815260200190815260200160002060009054906101000a900473ffffffffffffffffffffffffffffffffffffffff169050919050565b808061223a5750600073ffffffffffffffffffffffffffffffffffffffff168273ffffffffffffffffffffffffffffffffffffffff1614155b1561236e57600061224a846117a0565b9050600073ffffffffffffffffffffffffffffffffffffffff168373ffffffffffffffffffffffffffffffffffffffff16141580156122b557508273ffffffffffffffffffffffffffffffffffffffff168173ffffffffffffffffffffffffffffffffffffffff1614155b80156122c857506122c681846115ba565b155b1561230a57826040517fa9fbf51f00000000000000000000000000000000000000000000000000000000815260040161230191906128e4565b60405180910390fd5b811561236c57838573ffffffffffffffffffffffffffffffffffffffff168273ffffffffffffffffffffffffffffffffffffffff167f8c5be1e5ebec7d5bd14f71427d1e84f3dd0314c0f7b2291e5b200ac8c7c3b92560405160405180910390a45b505b836004600085815260200190815260200160002060006101000a81548173ffffffffffffffffffffffffffffffffffffffff021916908373ffffffffffffffffffffffffffffffffffffffff16021790555050505050565b6123d18383836125dd565b61248557600073ffffffffffffffffffffffffffffffffffffffff168373ffffffffffffffffffffffffffffffffffffffff160361244657806040517f7e27328900000000000000000000000000000000000000000000000000000000815260040161243d9190612bc5565b60405180910390fd5b81816040517f177e802f00000000000000000000000000000000000000000000000000000000815260040161247c92919061379f565b60405180910390fd5b505050565b600080600090507a184f03e93ff9f4daa797ed6e38ed64bf6a1f01000000000000000083106124e8577a184f03e93ff9f4daa797ed6e38ed64bf6a1f01000000000000000083816124de576124dd6133ce565b5b0492506040810190505b6d04ee2d6d415b85acef81000000008310612525576d04ee2d6d415b85acef8100000000838161251b5761251a6133ce565b5b0492506020810190505b662386f26fc10000831061255457662386f26fc10000838161254a576125496133ce565b5b0492506010810190505b6305f5e100831061257d576305f5e1008381612573576125726133ce565b5b0492506008810190505b61271083106125a2576127108381612598576125976133ce565b5b0492506004810190505b606483106125c557606483816125bb576125ba6133ce565b5b0492506002810190505b600a83106125d4576001810190505b80915050919050565b60008073ffffffffffffffffffffffffffffffffffffffff168373ffffffffffffffffffffffffffffffffffffffff161415801561269557508273ffffffffffffffffffffffffffffffffffffffff168473ffffffffffffffffffffffffffffffffffffffff161480612656575061265584846115ba565b5b8061269457508273ffffffffffffffffffffffffffffffffffffffff1661267c83611828565b73ffffffffffffffffffffffffffffffffffffffff16145b5b90509392505050565b60405180606001604052806000815260200160608152602001606081525090565b6000604051905090565b600080fd5b600080fd5b6000819050919050565b6126e6816126d3565b81146126f157600080fd5b50565b600081359050612703816126dd565b92915050565b60006020828403121561271f5761271e6126c9565b5b600061272d848285016126f4565b91505092915050565b60008115159050919050565b61274b81612736565b82525050565b60006020820190506127666000830184612742565b92915050565b60007fffffffff0000000000000000000000000000000000000000000000000000000082169050919050565b6127a18161276c565b81146127ac57600080fd5b50565b6000813590506127be81612798565b92915050565b6000602082840312156127da576127d96126c9565b5b60006127e8848285016127af565b91505092915050565b600081519050919050565b600082825260208201905092915050565b60005b8381101561282b578082015181840152602081019050612810565b60008484015250505050565b6000601f19601f8301169050919050565b6000612853826127f1565b61285d81856127fc565b935061286d81856020860161280d565b61287681612837565b840191505092915050565b6000602082019050818103600083015261289b8184612848565b905092915050565b600073ffffffffffffffffffffffffffffffffffffffff82169050919050565b60006128ce826128a3565b9050919050565b6128de816128c3565b82525050565b60006020820190506128f960008301846128d5565b92915050565b612908816128c3565b811461291357600080fd5b50565b600081359050612925816128ff565b92915050565b60008060408385031215612942576129416126c9565b5b600061295085828601612916565b9250506020612961858286016126f4565b9150509250929050565b600080600060608486031215612984576129836126c9565b5b600061299286828701612916565b93505060206129a386828701612916565b92505060406129b4868287016126f4565b9150509250925092565b600060408201905081810360008301526129d88185612848565b905081810360208301526129ec8184612848565b90509392505050565b600081519050919050565b600082825260208201905092915050565b6000819050602082019050919050565b612a2a816126d3565b82525050565b600082825260208201905092915050565b6000612a4c826127f1565b612a568185612a30565b9350612a6681856020860161280d565b612a6f81612837565b840191505092915050565b6000606083016000830151612a926000860182612a21565b5060208301518482036020860152612aaa8282612a41565b91505060408301518482036040860152612ac48282612a41565b9150508091505092915050565b6000612add8383612a7a565b905092915050565b6000602082019050919050565b6000612afd826129f5565b612b078185612a00565b935083602082028501612b1985612a11565b8060005b85811015612b555784840389528151612b368582612ad1565b9450612b4183612ae5565b925060208a01995050600181019050612b1d565b50829750879550505050505092915050565b60006020820190508181036000830152612b818184612af2565b905092915050565b600060208284031215612b9f57612b9e6126c9565b5b6000612bad84828501612916565b91505092915050565b612bbf816126d3565b82525050565b6000602082019050612bda6000830184612bb6565b92915050565b612be981612736565b8114612bf457600080fd5b50565b600081359050612c0681612be0565b92915050565b60008060408385031215612c2357612c226126c9565b5b6000612c3185828601612916565b9250506020612c4285828601612bf7565b9150509250929050565b600080fd5b600080fd5b7f4e487b7100000000000000000000000000000000000000000000000000000000600052604160045260246000fd5b612c8e82612837565b810181811067ffffffffffffffff82111715612cad57612cac612c56565b5b80604052505050565b6000612cc06126bf565b9050612ccc8282612c85565b919050565b600067ffffffffffffffff821115612cec57612ceb612c56565b5b612cf582612837565b9050602081019050919050565b82818337600083830152505050565b6000612d24612d1f84612cd1565b612cb6565b905082815260208101848484011115612d4057612d3f612c51565b5b612d4b848285612d02565b509392505050565b600082601f830112612d6857612d67612c4c565b5b8135612d78848260208601612d11565b91505092915050565b60008060008060808587031215612d9b57612d9a6126c9565b5b6000612da987828801612916565b9450506020612dba87828801612916565b9350506040612dcb878288016126f4565b925050606085013567ffffffffffffffff811115612dec57612deb6126ce565b5b612df887828801612d53565b91505092959194509250565b600067ffffffffffffffff821115612e1f57612e1e612c56565b5b612e2882612837565b9050602081019050919050565b6000612e48612e4384612e04565b612cb6565b905082815260208101848484011115612e6457612e63612c51565b5b612e6f848285612d02565b509392505050565b600082601f830112612e8c57612e8b612c4c565b5b8135612e9c848260208601612e35565b91505092915050565b60008060408385031215612ebc57612ebb6126c9565b5b600083013567ffffffffffffffff811115612eda57612ed96126ce565b5b612ee685828601612e77565b925050602083013567ffffffffffffffff811115612f0757612f066126ce565b5b612f1385828601612e77565b9150509250929050565b60008060408385031215612f3457612f336126c9565b5b6000612f4285828601612916565b9250506020612f5385828601612916565b9150509250929050565b7f4e487b7100000000000000000000000000000000000000000000000000000000600052602260045260246000fd5b60006002820490506001821680612fa457607f821691505b602082108103612fb757612fb6612f5d565b5b50919050565b6000606082019050612fd260008301866128d5565b612fdf6020830185612bb6565b612fec60408301846128d5565b949350505050565b7f4e487b7100000000000000000000000000000000000000000000000000000000600052603260045260246000fd5b7f4e487b7100000000000000000000000000000000000000000000000000000000600052601160045260246000fd5b600061305d826126d3565b91507fffffffffffffffffffffffffffffffffffffffffffffffffffffffffffffffff820361308f5761308e613023565b5b600182019050919050565b600081905092915050565b60006130b0826127f1565b6130ba818561309a565b93506130ca81856020860161280d565b80840191505092915050565b60006130e282856130a5565b91506130ee82846130a5565b91508190509392505050565b7f596f7520617265206e6f7420746865206f776e6572206f66207468697320636f60008201527f6c6c656374696f6e000000000000000000000000000000000000000000000000602082015250565b60006131566028836127fc565b9150613161826130fa565b604082019050919050565b6000602082019050818103600083015261318581613149565b9050919050565b7f4d61726b6574706c616365206e6f742073657400000000000000000000000000600082015250565b60006131c26013836127fc565b91506131cd8261318c565b602082019050919050565b600060208201905081810360008301526131f1816131b5565b9050919050565b600060a08201905061320d6000830188612bb6565b61321a60208301876128d5565b61322760408301866128d5565b81810360608301526132398185612848565b9050818103608083015261324d8184612848565b90509695505050505050565b7f4552433732314d657461646174613a204f776e657220717565727920666f722060008201527f6e6f6e6578697374656e7420746f6b656e000000000000000000000000000000602082015250565b60006132b56031836127fc565b91506132c082613259565b604082019050919050565b600060208201905081810360008301526132e4816132a8565b9050919050565b600081519050919050565b600082825260208201905092915050565b6000613312826132eb565b61331c81856132f6565b935061332c81856020860161280d565b61333581612837565b840191505092915050565b600060808201905061335560008301876128d5565b61336260208301866128d5565b61336f6040830185612bb6565b81810360608301526133818184613307565b905095945050505050565b60008151905061339b81612798565b92915050565b6000602082840312156133b7576133b66126c9565b5b60006133c58482850161338c565b91505092915050565b7f4e487b7100000000000000000000000000000000000000000000000000000000600052601260045260246000fd5b7f4552433732314d657461646174613a2055524920736574206f66206e6f6e657860008201527f697374656e7420746f6b656e0000000000000000000000000000000000000000602082015250565b6000613459602c836127fc565b9150613464826133fd565b604082019050919050565b600060208201905081810360008301526134888161344c565b9050919050565b60008190508160005260206000209050919050565b60006020601f8301049050919050565b600082821b905092915050565b6000600883026134f17fffffffffffffffffffffffffffffffffffffffffffffffffffffffffffffffff826134b4565b6134fb86836134b4565b95508019841693508086168417925050509392505050565b6000819050919050565b600061353861353361352e846126d3565b613513565b6126d3565b9050919050565b6000819050919050565b6135528361351d565b61356661355e8261353f565b8484546134c1565b825550505050565b600090565b61357b61356e565b613586818484613549565b505050565b5b818110156135aa5761359f600082613573565b60018101905061358c565b5050565b601f8211156135ef576135c08161348f565b6135c9846134a4565b810160208510156135d8578190505b6135ec6135e4856134a4565b83018261358b565b50505b505050565b600082821c905092915050565b6000613612600019846008026135f4565b1980831691505092915050565b600061362b8383613601565b9150826002028217905092915050565b613644826127f1565b67ffffffffffffffff81111561365d5761365c612c56565b5b6136678254612f8c565b6136728282856135ae565b600060209050601f8311600181146136a55760008415613693578287015190505b61369d858261361f565b865550613705565b601f1984166136b38661348f565b60005b828110156136db578489015182556001820191506020850194506020810190506136b6565b868310156136f857848901516136f4601f891682613601565b8355505b6001600288020188555050505b505050505050565b7f4552433732314d657461646174613a204e616d6520736574206f66206e6f6e6560008201527f78697374656e7420746f6b656e00000000000000000000000000000000000000602082015250565b6000613769602d836127fc565b91506137748261370d565b604082019050919050565b600060208201905081810360008301526137988161375c565b9050919050565b60006040820190506137b460008301856128d5565b6137c16020830184612bb6565b939250505056fea26469706673582212201a469b5a5c1481c5d2f45db6e0b8c3c4fe212198cf9c5aa7b55bebaa2212f04e64736f6c63430008140033a2646970667358221220255763f5a77acfa65290d4ecc830315291be7071439d668057733efc688ec3bc64736f6c63430008140033",
  "linkReferences": {},
  "deployedLinkReferences": {}
}