{
  "_format": "hh-sol-artifact-1",
  "contractName": "Marketplace",
  "sourceName": "contracts/Marketplace.sol",
  "abi": [
    {
      "inputs": [
        {
          "internalType": "address",
          "name": "_factory",
          "type": "address"
        }
      ],
      "stateMutability": "nonpayable",
      "type": "constructor"
    },
    {
      "inputs": [],
      "name": "ReentrancyGuardReentrantCall",
      "type": "error"
    },
    {
      "anonymous": false,
      "inputs": [
        {
          "indexed": true,
          "internalType": "address",
          "name": "collection",
          "type": "address"
        },
        {
          "indexed": true,
          "internalType": "uint256",
          "name": "tokenId",
          "type": "uint256"
        },
        {
          "indexed": true,
          "internalType": "address",
          "name": "seller",
          "type": "address"
        },
        {
          "indexed": false,
          "internalType": "uint256",
          "name": "price",
          "type": "uint256"
        }
      ],
      "name": "NFTListed",
      "type": "event"
    },
    {
      "anonymous": false,
      "inputs": [
        {
          "indexed": true,
          "internalType": "address",
          "name": "collection",
          "type": "address"
        },
        {
          "indexed": true,
          "internalType": "uint256",
          "name": "tokenId",
          "type": "uint256"
        },
        {
          "indexed": true,
          "internalType": "address",
          "name": "buyer",
          "type": "address"
        }
      ],
      "name": "NFTPurchased",
      "type": "event"
    },
    {
      "inputs": [],
      "name": "factory",
      "outputs": [
        {
          "internalType": "contract BlastNFTFactory",
          "name": "",
          "type": "address"
        }
      ],
      "stateMutability": "view",
      "type": "function"
    },
    {
      "inputs": [],
      "name": "getAllActiveTokens",
      "outputs": [
        {
          "components": [
            {
              "internalType": "address",
              "name": "collection",
              "type": "address"
            },
            {
              "internalType": "uint256",
              "name": "tokenId",
              "type": "uint256"
            },
            {
              "internalType": "uint256",
              "name": "price",
              "type": "uint256"
            }
          ],
          "internalType": "struct Marketplace.TokenInfo[]",
          "name": "",
          "type": "tuple[]"
        }
      ],
      "stateMutability": "view",
      "type": "function"
    },
    {
      "inputs": [],
      "name": "getBuyerToWalletAddress",
      "outputs": [
        {
          "internalType": "address[]",
          "name": "",
          "type": "address[]"
        }
      ],
      "stateMutability": "view",
      "type": "function"
    },
    {
      "inputs": [],
      "name": "getSellerToWalletAddress",
      "outputs": [
        {
          "internalType": "address[]",
          "name": "",
          "type": "address[]"
        }
      ],
      "stateMutability": "view",
      "type": "function"
    },
    {
      "inputs": [
        {
          "internalType": "address",
          "name": "collection",
          "type": "address"
        },
        {
          "internalType": "uint256",
          "name": "tokenId",
          "type": "uint256"
        }
      ],
      "name": "getTokenPrice",
      "outputs": [
        {
          "internalType": "uint256",
          "name": "",
          "type": "uint256"
        }
      ],
      "stateMutability": "view",
      "type": "function"
    },
    {
      "inputs": [],
      "name": "getUserCollectedNFT",
      "outputs": [
        {
          "components": [
            {
              "internalType": "address",
              "name": "collection",
              "type": "address"
            },
            {
              "internalType": "uint256",
              "name": "tokenId",
              "type": "uint256"
            },
            {
              "internalType": "uint256",
              "name": "price",
              "type": "uint256"
            }
          ],
          "internalType": "struct Marketplace.TokenInfo[]",
          "name": "",
          "type": "tuple[]"
        }
      ],
      "stateMutability": "view",
      "type": "function"
    },
    {
      "inputs": [
        {
          "internalType": "address",
          "name": "collection",
          "type": "address"
        },
        {
          "internalType": "uint256",
          "name": "tokenId",
          "type": "uint256"
        }
      ],
      "name": "getWalletContract",
      "outputs": [
        {
          "internalType": "address",
          "name": "",
          "type": "address"
        }
      ],
      "stateMutability": "view",
      "type": "function"
    },
    {
      "inputs": [
        {
          "internalType": "address",
          "name": "collection",
          "type": "address"
        },
        {
          "internalType": "uint256",
          "name": "tokenId",
          "type": "uint256"
        }
      ],
      "name": "isNFTListed",
      "outputs": [
        {
          "internalType": "bool",
          "name": "",
          "type": "bool"
        }
      ],
      "stateMutability": "view",
      "type": "function"
    },
    {
      "inputs": [],
      "name": "owner",
      "outputs": [
        {
          "internalType": "address",
          "name": "",
          "type": "address"
        }
      ],
      "stateMutability": "view",
      "type": "function"
    },
    {
      "inputs": [
        {
          "internalType": "address",
          "name": "collection",
          "type": "address"
        },
        {
          "internalType": "uint256",
          "name": "tokenId",
          "type": "uint256"
        }
      ],
      "name": "purchaseNFT",
      "outputs": [],
      "stateMutability": "payable",
      "type": "function"
    },
    {
      "inputs": [
        {
          "internalType": "address",
          "name": "collection",
          "type": "address"
        },
        {
          "internalType": "uint256",
          "name": "tokenId",
          "type": "uint256"
        }
      ],
      "name": "purchaseNFTWithYeild",
      "outputs": [],
      "stateMutability": "payable",
      "type": "function"
    },
    {
      "inputs": [
        {
          "internalType": "address",
          "name": "collection",
          "type": "address"
        },
        {
          "internalType": "uint256",
          "name": "tokenId",
          "type": "uint256"
        },
        {
          "internalType": "uint256",
          "name": "priceInBlast",
          "type": "uint256"
        }
      ],
      "name": "toggleNFTForSale",
      "outputs": [],
      "stateMutability": "nonpayable",
      "type": "function"
    }
  ],
  "bytecode": "0x60806040523480156200001157600080fd5b50604051620045cf380380620045cf833981810160405281019062000037919062000132565b600160008190555033600160006101000a81548173ffffffffffffffffffffffffffffffffffffffff021916908373ffffffffffffffffffffffffffffffffffffffff16021790555080600260006101000a81548173ffffffffffffffffffffffffffffffffffffffff021916908373ffffffffffffffffffffffffffffffffffffffff1602179055505062000164565b600080fd5b600073ffffffffffffffffffffffffffffffffffffffff82169050919050565b6000620000fa82620000cd565b9050919050565b6200010c81620000ed565b81146200011857600080fd5b50565b6000815190506200012c8162000101565b92915050565b6000602082840312156200014b576200014a620000c8565b5b60006200015b848285016200011b565b91505092915050565b61445b80620001746000396000f3fe608060405260043610620000b65760003560e01c8063c45a0155116200006d578063c45a015514620001cd578063c9f7153c14620001fd578063dd9435221462000241578063e83193461462000271578063e94bf7cc14620002a1578063fab25bb214620002d157620000b6565b80631887910414620000bb57806342fbbf4f14620000db5780638da5cb5b146200010b5780639241d319146200013b578063a87e25ac1462000169578063bdac3d121462000189575b600080fd5b620000d96004803603810190620000d391906200289b565b62000315565b005b348015620000e857600080fd5b50620000f362000b57565b60405162000102919062002a09565b60405180910390f35b3480156200011857600080fd5b506200012362000dcd565b60405162000132919062002a3e565b60405180910390f35b3480156200014857600080fd5b5062000167600480360381019062000161919062002a5b565b62000df3565b005b6200018760048036038101906200018191906200289b565b6200104e565b005b3480156200019657600080fd5b50620001b56004803603810190620001af91906200289b565b6200149e565b604051620001c4919062002a3e565b60405180910390f35b348015620001da57600080fd5b50620001e562001519565b604051620001f4919062002b22565b60405180910390f35b3480156200020a57600080fd5b506200022960048036038101906200022391906200289b565b6200153f565b60405162000238919062002b50565b60405180910390f35b3480156200024e57600080fd5b50620002596200159a565b60405162000268919062002c2a565b60405180910390f35b3480156200027e57600080fd5b506200028962001667565b60405162000298919062002c2a565b60405180910390f35b348015620002ae57600080fd5b50620002b962001734565b604051620002c8919062002a09565b60405180910390f35b348015620002de57600080fd5b50620002fd6004803603810190620002f791906200289b565b62001a80565b6040516200030c919062002c6b565b60405180910390f35b6200031f62001ae8565b6000600360008473ffffffffffffffffffffffffffffffffffffffff1673ffffffffffffffffffffffffffffffffffffffff16815260200190815260200160002060008381526020019081526020016000205411620003b5576040517f08c379a0000000000000000000000000000000000000000000000000000000008152600401620003ac9062002ce9565b60405180910390fd5b6000600360008473ffffffffffffffffffffffffffffffffffffffff1673ffffffffffffffffffffffffffffffffffffffff16815260200190815260200160002060008381526020019081526020016000205490508034101562000450576040517f08c379a0000000000000000000000000000000000000000000000000000000008152600401620004479062002d5b565b60405180910390fd5b60008373ffffffffffffffffffffffffffffffffffffffff16636352211e846040518263ffffffff1660e01b81526004016200048d919062002b50565b602060405180830381865afa158015620004ab573d6000803e3d6000fd5b505050506040513d601f19601f82011682018060405250810190620004d1919062002d94565b90503373ffffffffffffffffffffffffffffffffffffffff168173ffffffffffffffffffffffffffffffffffffffff160362000544576040517f08c379a00000000000000000000000000000000000000000000000000000000081526004016200053b9062002e3c565b60405180910390fd5b3073ffffffffffffffffffffffffffffffffffffffff168473ffffffffffffffffffffffffffffffffffffffff1663081812fc856040518263ffffffff1660e01b815260040162000596919062002b50565b602060405180830381865afa158015620005b4573d6000803e3d6000fd5b505050506040513d601f19601f82011682018060405250810190620005da919062002d94565b73ffffffffffffffffffffffffffffffffffffffff161462000633576040517f08c379a00000000000000000000000000000000000000000000000000000000081526004016200062a9062002eae565b60405180910390fd5b6000600660008673ffffffffffffffffffffffffffffffffffffffff1673ffffffffffffffffffffffffffffffffffffffff168152602001908152602001600020600085815260200190815260200160002060009054906101000a900473ffffffffffffffffffffffffffffffffffffffff1690508073ffffffffffffffffffffffffffffffffffffffff1663a3f09ad6336040518263ffffffff1660e01b8152600401620006e3919062002ef5565b600060405180830381600087803b158015620006fe57600080fd5b505af115801562000713573d6000803e3d6000fd5b505050508073ffffffffffffffffffffffffffffffffffffffff1663e607609b84600360008973ffffffffffffffffffffffffffffffffffffffff1673ffffffffffffffffffffffffffffffffffffffff1681526020019081526020016000206000888152602001908152602001600020546040518363ffffffff1660e01b8152600401620007a3919062002b50565b6000604051808303818588803b158015620007bd57600080fd5b505af1158015620007d2573d6000803e3d6000fd5b50505050508473ffffffffffffffffffffffffffffffffffffffff166323b872dd8333876040518463ffffffff1660e01b8152600401620008169392919062002f37565b600060405180830381600087803b1580156200083157600080fd5b505af115801562000846573d6000803e3d6000fd5b5050505062000856858562001b2f565b62000862338662001feb565b6200090857600860003373ffffffffffffffffffffffffffffffffffffffff1673ffffffffffffffffffffffffffffffffffffffff168152602001908152602001600020859080600181540180825580915050600190039060005260206000200160009091909190916101000a81548173ffffffffffffffffffffffffffffffffffffffff021916908373ffffffffffffffffffffffffffffffffffffffff1602179055505b600960003373ffffffffffffffffffffffffffffffffffffffff1673ffffffffffffffffffffffffffffffffffffffff16815260200190815260200160002060008673ffffffffffffffffffffffffffffffffffffffff1673ffffffffffffffffffffffffffffffffffffffff168152602001908152602001600020849080600181540180825580915050600190039060005260206000200160009091909190915055600a60003373ffffffffffffffffffffffffffffffffffffffff1673ffffffffffffffffffffffffffffffffffffffff168152602001908152602001600020819080600181540180825580915050600190039060005260206000200160009091909190916101000a81548173ffffffffffffffffffffffffffffffffffffffff021916908373ffffffffffffffffffffffffffffffffffffffff160217905550600b60008373ffffffffffffffffffffffffffffffffffffffff1673ffffffffffffffffffffffffffffffffffffffff168152602001908152602001600020819080600181540180825580915050600190039060005260206000200160009091909190916101000a81548173ffffffffffffffffffffffffffffffffffffffff021916908373ffffffffffffffffffffffffffffffffffffffff1602179055503373ffffffffffffffffffffffffffffffffffffffff16848673ffffffffffffffffffffffffffffffffffffffff167f1f7867003b2eba97f0f4836c6c9ca76d182e921e99ba8de6ed63bb5bccad9df560405160405180910390a450505062000b53620020e2565b5050565b6060600062000b65620020ec565b67ffffffffffffffff81111562000b815762000b8062002f74565b5b60405190808252806020026020018201604052801562000bbe57816020015b62000baa620027b1565b81526020019060019003908162000ba05790505b5090506000805b60078054905081101562000dc45760006007828154811062000bec5762000beb62002fa3565b5b9060005260206000200160009054906101000a900473ffffffffffffffffffffffffffffffffffffffff1690506000600560008373ffffffffffffffffffffffffffffffffffffffff1673ffffffffffffffffffffffffffffffffffffffff16815260200190815260200160002080548060200260200160405190810160405280929190818152602001828054801562000ca657602002820191906000526020600020905b81548152602001906001019080831162000c91575b5050505050905060005b815181101562000dab57600082828151811062000cd25762000cd162002fa3565b5b602002602001015190506000600360008673ffffffffffffffffffffffffffffffffffffffff1673ffffffffffffffffffffffffffffffffffffffff168152602001908152602001600020600083815260200190815260200160002054905060405180606001604052808673ffffffffffffffffffffffffffffffffffffffff1681526020018381526020018281525088888151811062000d785762000d7762002fa3565b5b6020026020010181905250868062000d909062003001565b9750505050808062000da29062003001565b91505062000cb0565b505050808062000dbb9062003001565b91505062000bc5565b50819250505090565b600160009054906101000a900473ffffffffffffffffffffffffffffffffffffffff1681565b600260009054906101000a900473ffffffffffffffffffffffffffffffffffffffff1673ffffffffffffffffffffffffffffffffffffffff1663c785cafb846040518263ffffffff1660e01b815260040162000e50919062002a3e565b602060405180830381865afa15801562000e6e573d6000803e3d6000fd5b505050506040513d601f19601f8201168201806040525081019062000e9491906200307f565b62000ed6576040517f08c379a000000000000000000000000000000000000000000000000000000000815260040162000ecd9062003127565b60405180910390fd5b3373ffffffffffffffffffffffffffffffffffffffff168373ffffffffffffffffffffffffffffffffffffffff16636352211e846040518263ffffffff1660e01b815260040162000f28919062002b50565b602060405180830381865afa15801562000f46573d6000803e3d6000fd5b505050506040513d601f19601f8201168201806040525081019062000f6c919062002d94565b73ffffffffffffffffffffffffffffffffffffffff161462000fc5576040517f08c379a000000000000000000000000000000000000000000000000000000000815260040162000fbc9062003199565b60405180910390fd5b600460008473ffffffffffffffffffffffffffffffffffffffff1673ffffffffffffffffffffffffffffffffffffffff168152602001908152602001600020600083815260200190815260200160002060009054906101000a900460ff16156200103b5762001035838362001b2f565b62001049565b62001048838383620021bb565b5b505050565b6200105862001ae8565b6000600360008473ffffffffffffffffffffffffffffffffffffffff1673ffffffffffffffffffffffffffffffffffffffff16815260200190815260200160002060008381526020019081526020016000205411620010ee576040517f08c379a0000000000000000000000000000000000000000000000000000000008152600401620010e59062002ce9565b60405180910390fd5b6000600360008473ffffffffffffffffffffffffffffffffffffffff1673ffffffffffffffffffffffffffffffffffffffff16815260200190815260200160002060008381526020019081526020016000205490508034101562001189576040517f08c379a0000000000000000000000000000000000000000000000000000000008152600401620011809062002d5b565b60405180910390fd5b60008373ffffffffffffffffffffffffffffffffffffffff16636352211e846040518263ffffffff1660e01b8152600401620011c6919062002b50565b602060405180830381865afa158015620011e4573d6000803e3d6000fd5b505050506040513d601f19601f820116820180604052508101906200120a919062002d94565b90503373ffffffffffffffffffffffffffffffffffffffff168173ffffffffffffffffffffffffffffffffffffffff16036200127d576040517f08c379a0000000000000000000000000000000000000000000000000000000008152600401620012749062002e3c565b60405180910390fd5b3073ffffffffffffffffffffffffffffffffffffffff168473ffffffffffffffffffffffffffffffffffffffff1663081812fc856040518263ffffffff1660e01b8152600401620012cf919062002b50565b602060405180830381865afa158015620012ed573d6000803e3d6000fd5b505050506040513d601f19601f8201168201806040525081019062001313919062002d94565b73ffffffffffffffffffffffffffffffffffffffff16146200136c576040517f08c379a0000000000000000000000000000000000000000000000000000000008152600401620013639062002eae565b60405180910390fd5b8073ffffffffffffffffffffffffffffffffffffffff166108fc839081150290604051600060405180830381858888f19350505050158015620013b3573d6000803e3d6000fd5b508373ffffffffffffffffffffffffffffffffffffffff166323b872dd8233866040518463ffffffff1660e01b8152600401620013f39392919062002f37565b600060405180830381600087803b1580156200140e57600080fd5b505af115801562001423573d6000803e3d6000fd5b5050505062001433848462001b2f565b3373ffffffffffffffffffffffffffffffffffffffff16838573ffffffffffffffffffffffffffffffffffffffff167f1f7867003b2eba97f0f4836c6c9ca76d182e921e99ba8de6ed63bb5bccad9df560405160405180910390a450506200149a620020e2565b5050565b6000600660008473ffffffffffffffffffffffffffffffffffffffff1673ffffffffffffffffffffffffffffffffffffffff168152602001908152602001600020600083815260200190815260200160002060009054906101000a900473ffffffffffffffffffffffffffffffffffffffff16905092915050565b600260009054906101000a900473ffffffffffffffffffffffffffffffffffffffff1681565b6000600360008473ffffffffffffffffffffffffffffffffffffffff1673ffffffffffffffffffffffffffffffffffffffff168152602001908152602001600020600083815260200190815260200160002054905092915050565b6060600b60003373ffffffffffffffffffffffffffffffffffffffff1673ffffffffffffffffffffffffffffffffffffffff1681526020019081526020016000208054806020026020016040519081016040528092919081815260200182805480156200165d57602002820191906000526020600020905b8160009054906101000a900473ffffffffffffffffffffffffffffffffffffffff1673ffffffffffffffffffffffffffffffffffffffff168152602001906001019080831162001612575b5050505050905090565b6060600a60003373ffffffffffffffffffffffffffffffffffffffff1673ffffffffffffffffffffffffffffffffffffffff1681526020019081526020016000208054806020026020016040519081016040528092919081815260200182805480156200172a57602002820191906000526020600020905b8160009054906101000a900473ffffffffffffffffffffffffffffffffffffffff1673ffffffffffffffffffffffffffffffffffffffff1681526020019060010190808311620016df575b5050505050905090565b60606000600860003373ffffffffffffffffffffffffffffffffffffffff1673ffffffffffffffffffffffffffffffffffffffff168152602001908152602001600020805480602002602001604051908101604052809291908181526020018280548015620017f957602002820191906000526020600020905b8160009054906101000a900473ffffffffffffffffffffffffffffffffffffffff1673ffffffffffffffffffffffffffffffffffffffff1681526020019060010190808311620017ae575b50505050509050600061271067ffffffffffffffff81111562001821576200182062002f74565b5b6040519080825280602002602001820160405280156200185e57816020015b6200184a620027b1565b815260200190600190039081620018405790505b5090506000805b835181101562001a7357600084828151811062001887576200188662002fa3565b5b6020026020010151905060006200189f33836200261d565b905060005b815181101562001a5a576000828281518110620018c657620018c562002fa3565b5b602002602001015190506000600360008673ffffffffffffffffffffffffffffffffffffffff1673ffffffffffffffffffffffffffffffffffffffff16815260200190815260200160002060008381526020019081526020016000205490503373ffffffffffffffffffffffffffffffffffffffff168573ffffffffffffffffffffffffffffffffffffffff1663fd731837846040518263ffffffff1660e01b815260040162001977919062002b50565b602060405180830381865afa15801562001995573d6000803e3d6000fd5b505050506040513d601f19601f82011682018060405250810190620019bb919062002d94565b73ffffffffffffffffffffffffffffffffffffffff1614620019df57505062001a44565b60405180606001604052808673ffffffffffffffffffffffffffffffffffffffff1681526020018381526020018281525088888151811062001a265762001a2562002fa3565b5b6020026020010181905250868062001a3e9062003001565b97505050505b808062001a519062003001565b915050620018a4565b505050808062001a6a9062003001565b91505062001865565b5080825281935050505090565b6000600460008473ffffffffffffffffffffffffffffffffffffffff1673ffffffffffffffffffffffffffffffffffffffff168152602001908152602001600020600083815260200190815260200160002060009054906101000a900460ff16905092915050565b60026000540362001b25576040517f3ee5aeb500000000000000000000000000000000000000000000000000000000815260040160405180910390fd5b6002600081905550565b600460008373ffffffffffffffffffffffffffffffffffffffff1673ffffffffffffffffffffffffffffffffffffffff168152602001908152602001600020600082815260200190815260200160002060009054906101000a900460ff1662001bcf576040517f08c379a000000000000000000000000000000000000000000000000000000000815260040162001bc6906200320b565b60405180910390fd5b6000600560008473ffffffffffffffffffffffffffffffffffffffff1673ffffffffffffffffffffffffffffffffffffffff168152602001908152602001600020905060005b818054905081101562001ce7578282828154811062001c395762001c3862002fa3565b5b90600052602060002001540362001cd157816001838054905062001c5e91906200322d565b8154811062001c725762001c7162002fa3565b5b906000526020600020015482828154811062001c935762001c9262002fa3565b5b90600052602060002001819055508180548062001cb55762001cb462003268565b5b6001900381819060005260206000200160009055905562001ce7565b808062001cde9062003001565b91505062001c15565b50600081805490500362001e975760005b60078054905081101562001e95578373ffffffffffffffffffffffffffffffffffffffff166007828154811062001d345762001d3362002fa3565b5b9060005260206000200160009054906101000a900473ffffffffffffffffffffffffffffffffffffffff1673ffffffffffffffffffffffffffffffffffffffff160362001e7f576007600160078054905062001d9191906200322d565b8154811062001da55762001da462002fa3565b5b9060005260206000200160009054906101000a900473ffffffffffffffffffffffffffffffffffffffff166007828154811062001de75762001de662002fa3565b5b9060005260206000200160006101000a81548173ffffffffffffffffffffffffffffffffffffffff021916908373ffffffffffffffffffffffffffffffffffffffff160217905550600780548062001e445762001e4362003268565b5b6001900381819060005260206000200160006101000a81549073ffffffffffffffffffffffffffffffffffffffff0219169055905562001e95565b808062001e8c9062003001565b91505062001cf8565b505b6000600460008573ffffffffffffffffffffffffffffffffffffffff1673ffffffffffffffffffffffffffffffffffffffff168152602001908152602001600020600084815260200190815260200160002060006101000a81548160ff0219169083151502179055506000600360008573ffffffffffffffffffffffffffffffffffffffff1673ffffffffffffffffffffffffffffffffffffffff1681526020019081526020016000206000848152602001908152602001600020819055506000600660008573ffffffffffffffffffffffffffffffffffffffff1673ffffffffffffffffffffffffffffffffffffffff168152602001908152602001600020600084815260200190815260200160002060006101000a81548173ffffffffffffffffffffffffffffffffffffffff021916908373ffffffffffffffffffffffffffffffffffffffff160217905550505050565b600080600860008573ffffffffffffffffffffffffffffffffffffffff1673ffffffffffffffffffffffffffffffffffffffff168152602001908152602001600020905060005b8180549050811015620020d5578373ffffffffffffffffffffffffffffffffffffffff168282815481106200206c576200206b62002fa3565b5b9060005260206000200160009054906101000a900473ffffffffffffffffffffffffffffffffffffffff1673ffffffffffffffffffffffffffffffffffffffff1603620020bf57600192505050620020dc565b8080620020cc9062003001565b91505062002032565b5060009150505b92915050565b6001600081905550565b6000806000905060005b600780549050811015620021b3576000600782815481106200211d576200211c62002fa3565b5b9060005260206000200160009054906101000a900473ffffffffffffffffffffffffffffffffffffffff169050600560008273ffffffffffffffffffffffffffffffffffffffff1673ffffffffffffffffffffffffffffffffffffffff16815260200190815260200160002080549050836200219a919062003297565b9250508080620021aa9062003001565b915050620020f6565b508091505090565b600460008473ffffffffffffffffffffffffffffffffffffffff1673ffffffffffffffffffffffffffffffffffffffff168152602001908152602001600020600083815260200190815260200160002060009054906101000a900460ff16156200225c576040517f08c379a0000000000000000000000000000000000000000000000000000000008152600401620022539062003348565b60405180910390fd5b6001600460008573ffffffffffffffffffffffffffffffffffffffff1673ffffffffffffffffffffffffffffffffffffffff168152602001908152602001600020600084815260200190815260200160002060006101000a81548160ff02191690831515021790555080600360008573ffffffffffffffffffffffffffffffffffffffff1673ffffffffffffffffffffffffffffffffffffffff1681526020019081526020016000206000848152602001908152602001600020819055506200232583620026fa565b6200238e576007839080600181540180825580915050600190039060005260206000200160009091909190916101000a81548173ffffffffffffffffffffffffffffffffffffffff021916908373ffffffffffffffffffffffffffffffffffffffff1602179055505b600560008473ffffffffffffffffffffffffffffffffffffffff1673ffffffffffffffffffffffffffffffffffffffff168152602001908152602001600020829080600181540180825580915050600190039060005260206000200160009091909190915055600030826040516200240690620027e8565b620024139291906200336a565b604051809103906000f08015801562002430573d6000803e3d6000fd5b5090508073ffffffffffffffffffffffffffffffffffffffff1663e99d28668573ffffffffffffffffffffffffffffffffffffffff16636352211e866040518263ffffffff1660e01b81526004016200248a919062002b50565b602060405180830381865afa158015620024a8573d6000803e3d6000fd5b505050506040513d601f19601f82011682018060405250810190620024ce919062002d94565b6040518263ffffffff1660e01b8152600401620024ec919062002ef5565b600060405180830381600087803b1580156200250757600080fd5b505af11580156200251c573d6000803e3d6000fd5b5050505080600660008673ffffffffffffffffffffffffffffffffffffffff1673ffffffffffffffffffffffffffffffffffffffff168152602001908152602001600020600085815260200190815260200160002060006101000a81548173ffffffffffffffffffffffffffffffffffffffff021916908373ffffffffffffffffffffffffffffffffffffffff1602179055503373ffffffffffffffffffffffffffffffffffffffff16838573ffffffffffffffffffffffffffffffffffffffff167f392a0f172cb29479635d0b2219b2f96ef24f74dfdf328cb09f1496efe6cfddbe856040516200260f919062002b50565b60405180910390a450505050565b60606000600960008573ffffffffffffffffffffffffffffffffffffffff1673ffffffffffffffffffffffffffffffffffffffff16815260200190815260200160002060008473ffffffffffffffffffffffffffffffffffffffff1673ffffffffffffffffffffffffffffffffffffffff168152602001908152602001600020905080805480602002602001604051908101604052809291908181526020018280548015620026ec57602002820191906000526020600020905b815481526020019060010190808311620026d7575b505050505091505092915050565b600080600090505b600780549050811015620027a6578273ffffffffffffffffffffffffffffffffffffffff16600782815481106200273e576200273d62002fa3565b5b9060005260206000200160009054906101000a900473ffffffffffffffffffffffffffffffffffffffff1673ffffffffffffffffffffffffffffffffffffffff160362002790576001915050620027ac565b80806200279d9062003001565b91505062002702565b50600090505b919050565b6040518060600160405280600073ffffffffffffffffffffffffffffffffffffffff16815260200160008152602001600081525090565b61108e806200339883390190565b600080fd5b600073ffffffffffffffffffffffffffffffffffffffff82169050919050565b60006200282882620027fb565b9050919050565b6200283a816200281b565b81146200284657600080fd5b50565b6000813590506200285a816200282f565b92915050565b6000819050919050565b620028758162002860565b81146200288157600080fd5b50565b60008135905062002895816200286a565b92915050565b60008060408385031215620028b557620028b4620027f6565b5b6000620028c58582860162002849565b9250506020620028d88582860162002884565b9150509250929050565b600081519050919050565b600082825260208201905092915050565b6000819050602082019050919050565b62002919816200281b565b82525050565b6200292a8162002860565b82525050565b6060820160008201516200294860008501826200290e565b5060208201516200295d60208501826200291f565b5060408201516200297260408501826200291f565b50505050565b600062002986838362002930565b60608301905092915050565b6000602082019050919050565b6000620029ac82620028e2565b620029b88185620028ed565b9350620029c583620028fe565b8060005b83811015620029fc578151620029e0888262002978565b9750620029ed8362002992565b925050600181019050620029c9565b5085935050505092915050565b6000602082019050818103600083015262002a2581846200299f565b905092915050565b62002a38816200281b565b82525050565b600060208201905062002a55600083018462002a2d565b92915050565b60008060006060848603121562002a775762002a76620027f6565b5b600062002a878682870162002849565b935050602062002a9a8682870162002884565b925050604062002aad8682870162002884565b9150509250925092565b6000819050919050565b600062002ae262002adc62002ad684620027fb565b62002ab7565b620027fb565b9050919050565b600062002af68262002ac1565b9050919050565b600062002b0a8262002ae9565b9050919050565b62002b1c8162002afd565b82525050565b600060208201905062002b39600083018462002b11565b92915050565b62002b4a8162002860565b82525050565b600060208201905062002b67600083018462002b3f565b92915050565b600081519050919050565b600082825260208201905092915050565b6000819050602082019050919050565b600062002ba783836200290e565b60208301905092915050565b6000602082019050919050565b600062002bcd8262002b6d565b62002bd9818562002b78565b935062002be68362002b89565b8060005b8381101562002c1d57815162002c01888262002b99565b975062002c0e8362002bb3565b92505060018101905062002bea565b5085935050505092915050565b6000602082019050818103600083015262002c46818462002bc0565b905092915050565b60008115159050919050565b62002c658162002c4e565b82525050565b600060208201905062002c82600083018462002c5a565b92915050565b600082825260208201905092915050565b7f4e4654206e6f74206c697374656420666f722073616c65000000000000000000600082015250565b600062002cd160178362002c88565b915062002cde8262002c99565b602082019050919050565b6000602082019050818103600083015262002d048162002cc2565b9050919050565b7f496e73756666696369656e742066756e647320746f2070757263686173650000600082015250565b600062002d43601e8362002c88565b915062002d508262002d0b565b602082019050919050565b6000602082019050818103600083015262002d768162002d34565b9050919050565b60008151905062002d8e816200282f565b92915050565b60006020828403121562002dad5762002dac620027f6565b5b600062002dbd8482850162002d7d565b91505092915050565b7f4275796572206973207468652063757272656e74206f776e6572206f6620746860008201527f6520746f6b656e00000000000000000000000000000000000000000000000000602082015250565b600062002e2460278362002c88565b915062002e318262002dc6565b604082019050919050565b6000602082019050818103600083015262002e578162002e15565b9050919050565b7f4e4654206d75737420626520617070726f76656420746f206d61726b65740000600082015250565b600062002e96601e8362002c88565b915062002ea38262002e5e565b602082019050919050565b6000602082019050818103600083015262002ec98162002e87565b9050919050565b600062002edd82620027fb565b9050919050565b62002eef8162002ed0565b82525050565b600060208201905062002f0c600083018462002ee4565b92915050565b600062002f1f8262002ae9565b9050919050565b62002f318162002f12565b82525050565b600060608201905062002f4e600083018662002f26565b62002f5d602083018562002a2d565b62002f6c604083018462002b3f565b949350505050565b7f4e487b7100000000000000000000000000000000000000000000000000000000600052604160045260246000fd5b7f4e487b7100000000000000000000000000000000000000000000000000000000600052603260045260246000fd5b7f4e487b7100000000000000000000000000000000000000000000000000000000600052601160045260246000fd5b60006200300e8262002860565b91507fffffffffffffffffffffffffffffffffffffffffffffffffffffffffffffffff820362003043576200304262002fd2565b5b600182019050919050565b620030598162002c4e565b81146200306557600080fd5b50565b60008151905062003079816200304e565b92915050565b600060208284031215620030985762003097620027f6565b5b6000620030a88482850162003068565b91505092915050565b7f436f6c6c656374696f6e206e6f7420637265617465642062792074686520666160008201527f63746f7279000000000000000000000000000000000000000000000000000000602082015250565b60006200310f60258362002c88565b91506200311c82620030b1565b604082019050919050565b60006020820190508181036000830152620031428162003100565b9050919050565b7f596f7520617265206e6f7420746865206f776e6572206f6620746865204e4654600082015250565b60006200318160208362002c88565b91506200318e8262003149565b602082019050919050565b60006020820190508181036000830152620031b48162003172565b9050919050565b7f4e4654206973206e6f74206c697374656420666f722073616c65000000000000600082015250565b6000620031f3601a8362002c88565b91506200320082620031bb565b602082019050919050565b600060208201905081810360008301526200322681620031e4565b9050919050565b60006200323a8262002860565b9150620032478362002860565b925082820390508181111562003262576200326162002fd2565b5b92915050565b7f4e487b7100000000000000000000000000000000000000000000000000000000600052603160045260246000fd5b6000620032a48262002860565b9150620032b18362002860565b9250828201905080821115620032cc57620032cb62002fd2565b5b92915050565b7f4d61726b6574706c6163653a204e465420697320616c7265616479206c69737460008201527f6564000000000000000000000000000000000000000000000000000000000000602082015250565b60006200333060228362002c88565b91506200333d82620032d2565b604082019050919050565b60006020820190508181036000830152620033638162003321565b9050919050565b600060408201905062003381600083018562002a2d565b62003390602083018462002b3f565b939250505056fe60806040523480156200001157600080fd5b506040516200108e3803806200108e8339818101604052810190620000379190620001a2565b73430000000000000000000000000000000000000273ffffffffffffffffffffffffffffffffffffffff16637114177a6040518163ffffffff1660e01b8152600401600060405180830381600087803b1580156200009457600080fd5b505af1158015620000a9573d6000803e3d6000fd5b5050505081600460006101000a81548173ffffffffffffffffffffffffffffffffffffffff021916908373ffffffffffffffffffffffffffffffffffffffff160217905550806000819055505050620001e9565b600080fd5b600073ffffffffffffffffffffffffffffffffffffffff82169050919050565b60006200012f8262000102565b9050919050565b620001418162000122565b81146200014d57600080fd5b50565b600081519050620001618162000136565b92915050565b6000819050919050565b6200017c8162000167565b81146200018857600080fd5b50565b6000815190506200019c8162000171565b92915050565b60008060408385031215620001bc57620001bb620000fd565b5b6000620001cc8582860162000150565b9250506020620001df858286016200018b565b9150509250929050565b610e9580620001f96000396000f3fe6080604052600436106100865760003560e01c8063981af53811610059578063981af53814610116578063a3f09ad614610120578063e607609b14610149578063e99d286614610165578063f880aff91461018e57610086565b806301b85bdf1461008b5780632206d2ad146100b65780632aca2ae3146100c0578063322ba9f3146100eb575b600080fd5b34801561009757600080fd5b506100a06101b9565b6040516100ad919061097d565b60405180910390f35b6100be6101c2565b005b3480156100cc57600080fd5b506100d5610392565b6040516100e2919061097d565b60405180910390f35b3480156100f757600080fd5b5061010061039a565b60405161010d919061097d565b60405180910390f35b61011e6103a4565b005b34801561012c57600080fd5b50610147600480360381019061014291906109fb565b6105f5565b005b610163600480360381019061015e9190610a54565b6106c9565b005b34801561017157600080fd5b5061018c600480360381019061018791906109fb565b6107b7565b005b34801561019a57600080fd5b506101a361088b565b6040516101b0919061097d565b60405180910390f35b60008054905090565b3373ffffffffffffffffffffffffffffffffffffffff16600360009054906101000a900473ffffffffffffffffffffffffffffffffffffffff1673ffffffffffffffffffffffffffffffffffffffff1614610252576040517f08c379a000000000000000000000000000000000000000000000000000000000815260040161024990610ade565b60405180910390fd5b61025a6108a0565b610299576040517f08c379a000000000000000000000000000000000000000000000000000000000815260040161029090610b4a565b60405180910390fd5b600360009054906101000a900473ffffffffffffffffffffffffffffffffffffffff1673ffffffffffffffffffffffffffffffffffffffff166108fc6000549081150290604051600060405180830381858888f19350505050158015610303573d6000803e3d6000fd5b506000805490506001600460146101000a81548160ff021916908315150217905550600080819055507f6669e7702345c6490c297c87b9e02b694d5c17178bd83adf3a3e28e0a9966d86600360009054906101000a900473ffffffffffffffffffffffffffffffffffffffff168260405161037f929190610bc9565b60405180910390a161038f6108b2565b50565b600047905090565b6000600154905090565b3373ffffffffffffffffffffffffffffffffffffffff16600260009054906101000a900473ffffffffffffffffffffffffffffffffffffffff1673ffffffffffffffffffffffffffffffffffffffff1614610434576040517f08c379a000000000000000000000000000000000000000000000000000000000815260040161042b90610c3e565b60405180910390fd5b61043c6108a0565b61047b576040517f08c379a000000000000000000000000000000000000000000000000000000000815260040161047290610caa565b60405180910390fd5b6000600460149054906101000a900460ff161561050357479050600260009054906101000a900473ffffffffffffffffffffffffffffffffffffffff1673ffffffffffffffffffffffffffffffffffffffff166108fc479081150290604051600060405180830381858888f193505050501580156104fd573d6000803e3d6000fd5b50610574565b6001549050600260009054906101000a900473ffffffffffffffffffffffffffffffffffffffff1673ffffffffffffffffffffffffffffffffffffffff166108fc6001549081150290604051600060405180830381858888f19350505050158015610572573d6000803e3d6000fd5b505b6001600460156101000a81548160ff0219169083151502179055507f418fac713de1f82de0a5253d31f62701edef3344986980fb64e887009f368d20600260009054906101000a900473ffffffffffffffffffffffffffffffffffffffff16826040516105e2929190610bc9565b60405180910390a16105f26108b2565b50565b3373ffffffffffffffffffffffffffffffffffffffff16600460009054906101000a900473ffffffffffffffffffffffffffffffffffffffff1673ffffffffffffffffffffffffffffffffffffffff1614610685576040517f08c379a000000000000000000000000000000000000000000000000000000000815260040161067c90610d3c565b60405180910390fd5b80600260006101000a81548173ffffffffffffffffffffffffffffffffffffffff021916908373ffffffffffffffffffffffffffffffffffffffff16021790555050565b3373ffffffffffffffffffffffffffffffffffffffff16600460009054906101000a900473ffffffffffffffffffffffffffffffffffffffff1673ffffffffffffffffffffffffffffffffffffffff1614610759576040517f08c379a000000000000000000000000000000000000000000000000000000000815260040161075090610d3c565b60405180910390fd5b80341461079b576040517f08c379a000000000000000000000000000000000000000000000000000000000815260040161079290610da8565b60405180910390fd5b80600160008282546107ad9190610df7565b9250508190555050565b3373ffffffffffffffffffffffffffffffffffffffff16600460009054906101000a900473ffffffffffffffffffffffffffffffffffffffff1673ffffffffffffffffffffffffffffffffffffffff1614610847576040517f08c379a000000000000000000000000000000000000000000000000000000000815260040161083e90610d3c565b60405180910390fd5b80600360006101000a81548173ffffffffffffffffffffffffffffffffffffffff021916908373ffffffffffffffffffffffffffffffffffffffff16021790555050565b60004760015461089b9190610e2b565b905090565b6000476108ab610948565b1115905090565b600460149054906101000a900460ff1680156108da5750600460159054906101000a900460ff165b15610946577fde03921ed85499a33a8a7c878de268d59d2b7839e9fbd415ff4ab0ff18483a6f60405160405180910390a1600460009054906101000a900473ffffffffffffffffffffffffffffffffffffffff1673ffffffffffffffffffffffffffffffffffffffff16ff5b565b60008060005460015461095b9190610df7565b90508091505090565b6000819050919050565b61097781610964565b82525050565b6000602082019050610992600083018461096e565b92915050565b600080fd5b600073ffffffffffffffffffffffffffffffffffffffff82169050919050565b60006109c88261099d565b9050919050565b6109d8816109bd565b81146109e357600080fd5b50565b6000813590506109f5816109cf565b92915050565b600060208284031215610a1157610a10610998565b5b6000610a1f848285016109e6565b91505092915050565b610a3181610964565b8114610a3c57600080fd5b50565b600081359050610a4e81610a28565b92915050565b600060208284031215610a6a57610a69610998565b5b6000610a7884828501610a3f565b91505092915050565b600082825260208201905092915050565b7f596f7520617265206e6f74207468652073656c6c65722e000000000000000000600082015250565b6000610ac8601783610a81565b9150610ad382610a92565b602082019050919050565b60006020820190508181036000830152610af781610abb565b9050919050565b7f4e6f7420436c61696d61626c652042792053656c6c6572205965742e00000000600082015250565b6000610b34601c83610a81565b9150610b3f82610afe565b602082019050919050565b60006020820190508181036000830152610b6381610b27565b9050919050565b6000819050919050565b6000610b8f610b8a610b858461099d565b610b6a565b61099d565b9050919050565b6000610ba182610b74565b9050919050565b6000610bb382610b96565b9050919050565b610bc381610ba8565b82525050565b6000604082019050610bde6000830185610bba565b610beb602083018461096e565b9392505050565b7f596f7520617265206e6f74207468652062757965722e00000000000000000000600082015250565b6000610c28601683610a81565b9150610c3382610bf2565b602082019050919050565b60006020820190508181036000830152610c5781610c1b565b9050919050565b7f4e6f7420436c61696d61626c65204279204275796572205965742e0000000000600082015250565b6000610c94601b83610a81565b9150610c9f82610c5e565b602082019050919050565b60006020820190508181036000830152610cc381610c87565b9050919050565b7f4f6e6c79204d61726b6574706c61636520436f6e747261637420697320616c6c60008201527f6f77656420666f72206465706f736974732e0000000000000000000000000000602082015250565b6000610d26603283610a81565b9150610d3182610cca565b604082019050919050565b60006020820190508181036000830152610d5581610d19565b9050919050565b7f496e636f727265637420616d6f756e742073656e740000000000000000000000600082015250565b6000610d92601583610a81565b9150610d9d82610d5c565b602082019050919050565b60006020820190508181036000830152610dc181610d85565b9050919050565b7f4e487b7100000000000000000000000000000000000000000000000000000000600052601160045260246000fd5b6000610e0282610964565b9150610e0d83610964565b9250828201905080821115610e2557610e24610dc8565b5b92915050565b6000610e3682610964565b9150610e4183610964565b9250828203905081811115610e5957610e58610dc8565b5b9291505056fea26469706673582212208794547e0f5bc8e2e9a8a15c1563e388b94ff08190504bd8f876e09832b7e94964736f6c63430008140033a2646970667358221220f96c5290ef10d8fc106d9c286ffcf00decc0a06d458c8509879c88b914bfa72064736f6c63430008140033",
  "linkReferences": {},
  "deployedLinkReferences": {}
}