{
  "_format": "hh-sol-artifact-1",
  "contractName": "Marketplace",
  "sourceName": "contracts/Marketplace.sol",
  "abi": [
    {
      "inputs": [
        {
          "internalType": "address",
          "name": "_factory",
          "type": "address"
        }
      ],
      "stateMutability": "nonpayable",
      "type": "constructor"
    },
    {
      "inputs": [],
      "name": "ReentrancyGuardReentrantCall",
      "type": "error"
    },
    {
      "anonymous": false,
      "inputs": [
        {
          "indexed": true,
          "internalType": "address",
          "name": "collection",
          "type": "address"
        },
        {
          "indexed": true,
          "internalType": "uint256",
          "name": "tokenId",
          "type": "uint256"
        },
        {
          "indexed": true,
          "internalType": "address",
          "name": "seller",
          "type": "address"
        },
        {
          "indexed": false,
          "internalType": "uint256",
          "name": "price",
          "type": "uint256"
        }
      ],
      "name": "NFTListed",
      "type": "event"
    },
    {
      "anonymous": false,
      "inputs": [
        {
          "indexed": true,
          "internalType": "address",
          "name": "collection",
          "type": "address"
        },
        {
          "indexed": true,
          "internalType": "uint256",
          "name": "tokenId",
          "type": "uint256"
        },
        {
          "indexed": true,
          "internalType": "address",
          "name": "buyer",
          "type": "address"
        }
      ],
      "name": "NFTPurchased",
      "type": "event"
    },
    {
      "inputs": [],
      "name": "factory",
      "outputs": [
        {
          "internalType": "contract BlastNFTFactory",
          "name": "",
          "type": "address"
        }
      ],
      "stateMutability": "view",
      "type": "function"
    },
    {
      "inputs": [],
      "name": "getAllActiveTokens",
      "outputs": [
        {
          "components": [
            {
              "internalType": "address",
              "name": "collection",
              "type": "address"
            },
            {
              "internalType": "uint256",
              "name": "tokenId",
              "type": "uint256"
            },
            {
              "internalType": "uint256",
              "name": "price",
              "type": "uint256"
            }
          ],
          "internalType": "struct Marketplace.TokenInfo[]",
          "name": "",
          "type": "tuple[]"
        }
      ],
      "stateMutability": "view",
      "type": "function"
    },
    {
      "inputs": [
        {
          "internalType": "address",
          "name": "collection",
          "type": "address"
        },
        {
          "internalType": "uint256",
          "name": "tokenId",
          "type": "uint256"
        }
      ],
      "name": "getTokenPrice",
      "outputs": [
        {
          "internalType": "uint256",
          "name": "",
          "type": "uint256"
        }
      ],
      "stateMutability": "view",
      "type": "function"
    },
    {
      "inputs": [],
      "name": "getUserCollectedNFT",
      "outputs": [
        {
          "components": [
            {
              "internalType": "address",
              "name": "collection",
              "type": "address"
            },
            {
              "internalType": "uint256",
              "name": "tokenId",
              "type": "uint256"
            },
            {
              "internalType": "uint256",
              "name": "price",
              "type": "uint256"
            }
          ],
          "internalType": "struct Marketplace.TokenInfo[]",
          "name": "",
          "type": "tuple[]"
        }
      ],
      "stateMutability": "view",
      "type": "function"
    },
    {
      "inputs": [
        {
          "internalType": "address",
          "name": "collection",
          "type": "address"
        },
        {
          "internalType": "uint256",
          "name": "tokenId",
          "type": "uint256"
        }
      ],
      "name": "getWalletContract",
      "outputs": [
        {
          "internalType": "address",
          "name": "",
          "type": "address"
        }
      ],
      "stateMutability": "view",
      "type": "function"
    },
    {
      "inputs": [
        {
          "internalType": "address",
          "name": "collection",
          "type": "address"
        },
        {
          "internalType": "uint256",
          "name": "tokenId",
          "type": "uint256"
        }
      ],
      "name": "isNFTListed",
      "outputs": [
        {
          "internalType": "bool",
          "name": "",
          "type": "bool"
        }
      ],
      "stateMutability": "view",
      "type": "function"
    },
    {
      "inputs": [],
      "name": "owner",
      "outputs": [
        {
          "internalType": "address",
          "name": "",
          "type": "address"
        }
      ],
      "stateMutability": "view",
      "type": "function"
    },
    {
      "inputs": [
        {
          "internalType": "address",
          "name": "collection",
          "type": "address"
        },
        {
          "internalType": "uint256",
          "name": "tokenId",
          "type": "uint256"
        }
      ],
      "name": "purchaseNFT",
      "outputs": [],
      "stateMutability": "payable",
      "type": "function"
    },
    {
      "inputs": [
        {
          "internalType": "address",
          "name": "collection",
          "type": "address"
        },
        {
          "internalType": "uint256",
          "name": "tokenId",
          "type": "uint256"
        }
      ],
      "name": "purchaseNFTWithYeild",
      "outputs": [],
      "stateMutability": "payable",
      "type": "function"
    },
    {
      "inputs": [
        {
          "internalType": "address",
          "name": "collection",
          "type": "address"
        },
        {
          "internalType": "uint256",
          "name": "tokenId",
          "type": "uint256"
        },
        {
          "internalType": "uint256",
          "name": "priceInBlast",
          "type": "uint256"
        }
      ],
      "name": "toggleNFTForSale",
      "outputs": [],
      "stateMutability": "nonpayable",
      "type": "function"
    }
  ],
  "bytecode": "0x60806040523480156200001157600080fd5b5060405162003dd438038062003dd4833981810160405281019062000037919062000132565b600160008190555033600160006101000a81548173ffffffffffffffffffffffffffffffffffffffff021916908373ffffffffffffffffffffffffffffffffffffffff16021790555080600260006101000a81548173ffffffffffffffffffffffffffffffffffffffff021916908373ffffffffffffffffffffffffffffffffffffffff1602179055505062000164565b600080fd5b600073ffffffffffffffffffffffffffffffffffffffff82169050919050565b6000620000fa82620000cd565b9050919050565b6200010c81620000ed565b81146200011857600080fd5b50565b6000815190506200012c8162000101565b92915050565b6000602082840312156200014b576200014a620000c8565b5b60006200015b848285016200011b565b91505092915050565b613c6080620001746000396000f3fe6080604052600436106200009e5760003560e01c8063bdac3d121162000061578063bdac3d121462000171578063c45a015514620001b5578063c9f7153c14620001e5578063e94bf7cc1462000229578063fab25bb21462000259576200009e565b80631887910414620000a357806342fbbf4f14620000c35780638da5cb5b14620000f35780639241d3191462000123578063a87e25ac1462000151575b600080fd5b620000c16004803603810190620000bb9190620023c6565b6200029d565b005b348015620000d057600080fd5b50620000db6200099f565b604051620000ea919062002534565b60405180910390f35b3480156200010057600080fd5b506200010b62000c15565b6040516200011a919062002569565b60405180910390f35b3480156200013057600080fd5b506200014f600480360381019062000149919062002586565b62000c3b565b005b6200016f6004803603810190620001699190620023c6565b62000e96565b005b3480156200017e57600080fd5b506200019d6004803603810190620001979190620023c6565b620012e6565b604051620001ac919062002569565b60405180910390f35b348015620001c257600080fd5b50620001cd62001361565b604051620001dc91906200264d565b60405180910390f35b348015620001f257600080fd5b506200021160048036038101906200020b9190620023c6565b62001387565b6040516200022091906200267b565b60405180910390f35b3480156200023657600080fd5b5062000241620013e2565b60405162000250919062002534565b60405180910390f35b3480156200026657600080fd5b506200028560048036038101906200027f9190620023c6565b62001673565b604051620002949190620026b5565b60405180910390f35b620002a7620016db565b6000600360008473ffffffffffffffffffffffffffffffffffffffff1673ffffffffffffffffffffffffffffffffffffffff168152602001908152602001600020600083815260200190815260200160002054116200033d576040517f08c379a0000000000000000000000000000000000000000000000000000000008152600401620003349062002733565b60405180910390fd5b6000600360008473ffffffffffffffffffffffffffffffffffffffff1673ffffffffffffffffffffffffffffffffffffffff168152602001908152602001600020600083815260200190815260200160002054905080341015620003d8576040517f08c379a0000000000000000000000000000000000000000000000000000000008152600401620003cf90620027a5565b60405180910390fd5b60008373ffffffffffffffffffffffffffffffffffffffff16636352211e846040518263ffffffff1660e01b81526004016200041591906200267b565b602060405180830381865afa15801562000433573d6000803e3d6000fd5b505050506040513d601f19601f82011682018060405250810190620004599190620027de565b90503373ffffffffffffffffffffffffffffffffffffffff168173ffffffffffffffffffffffffffffffffffffffff1603620004cc576040517f08c379a0000000000000000000000000000000000000000000000000000000008152600401620004c39062002886565b60405180910390fd5b3073ffffffffffffffffffffffffffffffffffffffff168473ffffffffffffffffffffffffffffffffffffffff1663081812fc856040518263ffffffff1660e01b81526004016200051e91906200267b565b602060405180830381865afa1580156200053c573d6000803e3d6000fd5b505050506040513d601f19601f82011682018060405250810190620005629190620027de565b73ffffffffffffffffffffffffffffffffffffffff1614620005bb576040517f08c379a0000000000000000000000000000000000000000000000000000000008152600401620005b290620028f8565b60405180910390fd5b6000600660008673ffffffffffffffffffffffffffffffffffffffff1673ffffffffffffffffffffffffffffffffffffffff168152602001908152602001600020600085815260200190815260200160002060009054906101000a900473ffffffffffffffffffffffffffffffffffffffff1690508073ffffffffffffffffffffffffffffffffffffffff1663a3f09ad6336040518263ffffffff1660e01b81526004016200066b91906200293f565b600060405180830381600087803b1580156200068657600080fd5b505af11580156200069b573d6000803e3d6000fd5b505050508073ffffffffffffffffffffffffffffffffffffffff1663e607609b84600360008973ffffffffffffffffffffffffffffffffffffffff1673ffffffffffffffffffffffffffffffffffffffff1681526020019081526020016000206000888152602001908152602001600020546040518363ffffffff1660e01b81526004016200072b91906200267b565b6000604051808303818588803b1580156200074557600080fd5b505af11580156200075a573d6000803e3d6000fd5b50505050508473ffffffffffffffffffffffffffffffffffffffff166323b872dd8333876040518463ffffffff1660e01b81526004016200079e9392919062002981565b600060405180830381600087803b158015620007b957600080fd5b505af1158015620007ce573d6000803e3d6000fd5b50505050620007de858562001722565b620007ea338662001bde565b6200089057600860003373ffffffffffffffffffffffffffffffffffffffff1673ffffffffffffffffffffffffffffffffffffffff168152602001908152602001600020859080600181540180825580915050600190039060005260206000200160009091909190916101000a81548173ffffffffffffffffffffffffffffffffffffffff021916908373ffffffffffffffffffffffffffffffffffffffff1602179055505b600960003373ffffffffffffffffffffffffffffffffffffffff1673ffffffffffffffffffffffffffffffffffffffff16815260200190815260200160002060008673ffffffffffffffffffffffffffffffffffffffff1673ffffffffffffffffffffffffffffffffffffffff1681526020019081526020016000208490806001815401808255809150506001900390600052602060002001600090919091909150553373ffffffffffffffffffffffffffffffffffffffff16848673ffffffffffffffffffffffffffffffffffffffff167f1f7867003b2eba97f0f4836c6c9ca76d182e921e99ba8de6ed63bb5bccad9df560405160405180910390a45050506200099b62001cd5565b5050565b60606000620009ad62001cdf565b67ffffffffffffffff811115620009c957620009c8620029be565b5b60405190808252806020026020018201604052801562000a0657816020015b620009f2620022dc565b815260200190600190039081620009e85790505b5090506000805b60078054905081101562000c0c5760006007828154811062000a345762000a33620029ed565b5b9060005260206000200160009054906101000a900473ffffffffffffffffffffffffffffffffffffffff1690506000600560008373ffffffffffffffffffffffffffffffffffffffff1673ffffffffffffffffffffffffffffffffffffffff16815260200190815260200160002080548060200260200160405190810160405280929190818152602001828054801562000aee57602002820191906000526020600020905b81548152602001906001019080831162000ad9575b5050505050905060005b815181101562000bf357600082828151811062000b1a5762000b19620029ed565b5b602002602001015190506000600360008673ffffffffffffffffffffffffffffffffffffffff1673ffffffffffffffffffffffffffffffffffffffff168152602001908152602001600020600083815260200190815260200160002054905060405180606001604052808673ffffffffffffffffffffffffffffffffffffffff1681526020018381526020018281525088888151811062000bc05762000bbf620029ed565b5b6020026020010181905250868062000bd89062002a4b565b9750505050808062000bea9062002a4b565b91505062000af8565b505050808062000c039062002a4b565b91505062000a0d565b50819250505090565b600160009054906101000a900473ffffffffffffffffffffffffffffffffffffffff1681565b600260009054906101000a900473ffffffffffffffffffffffffffffffffffffffff1673ffffffffffffffffffffffffffffffffffffffff1663c785cafb846040518263ffffffff1660e01b815260040162000c98919062002569565b602060405180830381865afa15801562000cb6573d6000803e3d6000fd5b505050506040513d601f19601f8201168201806040525081019062000cdc919062002ac9565b62000d1e576040517f08c379a000000000000000000000000000000000000000000000000000000000815260040162000d159062002b71565b60405180910390fd5b3373ffffffffffffffffffffffffffffffffffffffff168373ffffffffffffffffffffffffffffffffffffffff16636352211e846040518263ffffffff1660e01b815260040162000d7091906200267b565b602060405180830381865afa15801562000d8e573d6000803e3d6000fd5b505050506040513d601f19601f8201168201806040525081019062000db49190620027de565b73ffffffffffffffffffffffffffffffffffffffff161462000e0d576040517f08c379a000000000000000000000000000000000000000000000000000000000815260040162000e049062002be3565b60405180910390fd5b600460008473ffffffffffffffffffffffffffffffffffffffff1673ffffffffffffffffffffffffffffffffffffffff168152602001908152602001600020600083815260200190815260200160002060009054906101000a900460ff161562000e835762000e7d838362001722565b62000e91565b62000e9083838362001dae565b5b505050565b62000ea0620016db565b6000600360008473ffffffffffffffffffffffffffffffffffffffff1673ffffffffffffffffffffffffffffffffffffffff1681526020019081526020016000206000838152602001908152602001600020541162000f36576040517f08c379a000000000000000000000000000000000000000000000000000000000815260040162000f2d9062002733565b60405180910390fd5b6000600360008473ffffffffffffffffffffffffffffffffffffffff1673ffffffffffffffffffffffffffffffffffffffff16815260200190815260200160002060008381526020019081526020016000205490508034101562000fd1576040517f08c379a000000000000000000000000000000000000000000000000000000000815260040162000fc890620027a5565b60405180910390fd5b60008373ffffffffffffffffffffffffffffffffffffffff16636352211e846040518263ffffffff1660e01b81526004016200100e91906200267b565b602060405180830381865afa1580156200102c573d6000803e3d6000fd5b505050506040513d601f19601f82011682018060405250810190620010529190620027de565b90503373ffffffffffffffffffffffffffffffffffffffff168173ffffffffffffffffffffffffffffffffffffffff1603620010c5576040517f08c379a0000000000000000000000000000000000000000000000000000000008152600401620010bc9062002886565b60405180910390fd5b3073ffffffffffffffffffffffffffffffffffffffff168473ffffffffffffffffffffffffffffffffffffffff1663081812fc856040518263ffffffff1660e01b81526004016200111791906200267b565b602060405180830381865afa15801562001135573d6000803e3d6000fd5b505050506040513d601f19601f820116820180604052508101906200115b9190620027de565b73ffffffffffffffffffffffffffffffffffffffff1614620011b4576040517f08c379a0000000000000000000000000000000000000000000000000000000008152600401620011ab90620028f8565b60405180910390fd5b8073ffffffffffffffffffffffffffffffffffffffff166108fc839081150290604051600060405180830381858888f19350505050158015620011fb573d6000803e3d6000fd5b508373ffffffffffffffffffffffffffffffffffffffff166323b872dd8233866040518463ffffffff1660e01b81526004016200123b9392919062002981565b600060405180830381600087803b1580156200125657600080fd5b505af11580156200126b573d6000803e3d6000fd5b505050506200127b848462001722565b3373ffffffffffffffffffffffffffffffffffffffff16838573ffffffffffffffffffffffffffffffffffffffff167f1f7867003b2eba97f0f4836c6c9ca76d182e921e99ba8de6ed63bb5bccad9df560405160405180910390a45050620012e262001cd5565b5050565b6000600660008473ffffffffffffffffffffffffffffffffffffffff1673ffffffffffffffffffffffffffffffffffffffff168152602001908152602001600020600083815260200190815260200160002060009054906101000a900473ffffffffffffffffffffffffffffffffffffffff16905092915050565b600260009054906101000a900473ffffffffffffffffffffffffffffffffffffffff1681565b6000600360008473ffffffffffffffffffffffffffffffffffffffff1673ffffffffffffffffffffffffffffffffffffffff168152602001908152602001600020600083815260200190815260200160002054905092915050565b60606000600860003373ffffffffffffffffffffffffffffffffffffffff1673ffffffffffffffffffffffffffffffffffffffff168152602001908152602001600020805480602002602001604051908101604052809291908181526020018280548015620014a757602002820191906000526020600020905b8160009054906101000a900473ffffffffffffffffffffffffffffffffffffffff1673ffffffffffffffffffffffffffffffffffffffff16815260200190600101908083116200145c575b50505050509050600061271067ffffffffffffffff811115620014cf57620014ce620029be565b5b6040519080825280602002602001820160405280156200150c57816020015b620014f8620022dc565b815260200190600190039081620014ee5790505b5090506000805b835181101562001666576000848281518110620015355762001534620029ed565b5b6020026020010151905060006200154d3383620021ff565b905060005b81518110156200164d576000828281518110620015745762001573620029ed565b5b602002602001015190506000600360008673ffffffffffffffffffffffffffffffffffffffff1673ffffffffffffffffffffffffffffffffffffffff168152602001908152602001600020600083815260200190815260200160002054905060405180606001604052808673ffffffffffffffffffffffffffffffffffffffff168152602001838152602001828152508888815181106200161a5762001619620029ed565b5b60200260200101819052508680620016329062002a4b565b97505050508080620016449062002a4b565b91505062001552565b50505080806200165d9062002a4b565b91505062001513565b5080825281935050505090565b6000600460008473ffffffffffffffffffffffffffffffffffffffff1673ffffffffffffffffffffffffffffffffffffffff168152602001908152602001600020600083815260200190815260200160002060009054906101000a900460ff16905092915050565b60026000540362001718576040517f3ee5aeb500000000000000000000000000000000000000000000000000000000815260040160405180910390fd5b6002600081905550565b600460008373ffffffffffffffffffffffffffffffffffffffff1673ffffffffffffffffffffffffffffffffffffffff168152602001908152602001600020600082815260200190815260200160002060009054906101000a900460ff16620017c2576040517f08c379a0000000000000000000000000000000000000000000000000000000008152600401620017b99062002c55565b60405180910390fd5b6000600560008473ffffffffffffffffffffffffffffffffffffffff1673ffffffffffffffffffffffffffffffffffffffff168152602001908152602001600020905060005b8180549050811015620018da57828282815481106200182c576200182b620029ed565b5b906000526020600020015403620018c457816001838054905062001851919062002c77565b81548110620018655762001864620029ed565b5b9060005260206000200154828281548110620018865762001885620029ed565b5b906000526020600020018190555081805480620018a857620018a762002cb2565b5b60019003818190600052602060002001600090559055620018da565b8080620018d19062002a4b565b91505062001808565b50600081805490500362001a8a5760005b60078054905081101562001a88578373ffffffffffffffffffffffffffffffffffffffff1660078281548110620019275762001926620029ed565b5b9060005260206000200160009054906101000a900473ffffffffffffffffffffffffffffffffffffffff1673ffffffffffffffffffffffffffffffffffffffff160362001a72576007600160078054905062001984919062002c77565b81548110620019985762001997620029ed565b5b9060005260206000200160009054906101000a900473ffffffffffffffffffffffffffffffffffffffff1660078281548110620019da57620019d9620029ed565b5b9060005260206000200160006101000a81548173ffffffffffffffffffffffffffffffffffffffff021916908373ffffffffffffffffffffffffffffffffffffffff160217905550600780548062001a375762001a3662002cb2565b5b6001900381819060005260206000200160006101000a81549073ffffffffffffffffffffffffffffffffffffffff0219169055905562001a88565b808062001a7f9062002a4b565b915050620018eb565b505b6000600460008573ffffffffffffffffffffffffffffffffffffffff1673ffffffffffffffffffffffffffffffffffffffff168152602001908152602001600020600084815260200190815260200160002060006101000a81548160ff0219169083151502179055506000600360008573ffffffffffffffffffffffffffffffffffffffff1673ffffffffffffffffffffffffffffffffffffffff1681526020019081526020016000206000848152602001908152602001600020819055506000600660008573ffffffffffffffffffffffffffffffffffffffff1673ffffffffffffffffffffffffffffffffffffffff168152602001908152602001600020600084815260200190815260200160002060006101000a81548173ffffffffffffffffffffffffffffffffffffffff021916908373ffffffffffffffffffffffffffffffffffffffff160217905550505050565b600080600860008573ffffffffffffffffffffffffffffffffffffffff1673ffffffffffffffffffffffffffffffffffffffff168152602001908152602001600020905060005b818054905081101562001cc8578373ffffffffffffffffffffffffffffffffffffffff1682828154811062001c5f5762001c5e620029ed565b5b9060005260206000200160009054906101000a900473ffffffffffffffffffffffffffffffffffffffff1673ffffffffffffffffffffffffffffffffffffffff160362001cb25760019250505062001ccf565b808062001cbf9062002a4b565b91505062001c25565b5060009150505b92915050565b6001600081905550565b6000806000905060005b60078054905081101562001da65760006007828154811062001d105762001d0f620029ed565b5b9060005260206000200160009054906101000a900473ffffffffffffffffffffffffffffffffffffffff169050600560008273ffffffffffffffffffffffffffffffffffffffff1673ffffffffffffffffffffffffffffffffffffffff168152602001908152602001600020805490508362001d8d919062002ce1565b925050808062001d9d9062002a4b565b91505062001ce9565b508091505090565b600460008473ffffffffffffffffffffffffffffffffffffffff1673ffffffffffffffffffffffffffffffffffffffff168152602001908152602001600020600083815260200190815260200160002060009054906101000a900460ff161562001e4f576040517f08c379a000000000000000000000000000000000000000000000000000000000815260040162001e469062002d92565b60405180910390fd5b6001600460008573ffffffffffffffffffffffffffffffffffffffff1673ffffffffffffffffffffffffffffffffffffffff168152602001908152602001600020600084815260200190815260200160002060006101000a81548160ff02191690831515021790555080600360008573ffffffffffffffffffffffffffffffffffffffff1673ffffffffffffffffffffffffffffffffffffffff1681526020019081526020016000206000848152602001908152602001600020819055506007839080600181540180825580915050600190039060005260206000200160009091909190916101000a81548173ffffffffffffffffffffffffffffffffffffffff021916908373ffffffffffffffffffffffffffffffffffffffff160217905550600560008473ffffffffffffffffffffffffffffffffffffffff1673ffffffffffffffffffffffffffffffffffffffff1681526020019081526020016000208290806001815401808255809150506001900390600052602060002001600090919091909150556000308260405162001fe89062002313565b62001ff592919062002db4565b604051809103906000f08015801562002012573d6000803e3d6000fd5b5090508073ffffffffffffffffffffffffffffffffffffffff1663e99d28668573ffffffffffffffffffffffffffffffffffffffff16636352211e866040518263ffffffff1660e01b81526004016200206c91906200267b565b602060405180830381865afa1580156200208a573d6000803e3d6000fd5b505050506040513d601f19601f82011682018060405250810190620020b09190620027de565b6040518263ffffffff1660e01b8152600401620020ce91906200293f565b600060405180830381600087803b158015620020e957600080fd5b505af1158015620020fe573d6000803e3d6000fd5b5050505080600660008673ffffffffffffffffffffffffffffffffffffffff1673ffffffffffffffffffffffffffffffffffffffff168152602001908152602001600020600085815260200190815260200160002060006101000a81548173ffffffffffffffffffffffffffffffffffffffff021916908373ffffffffffffffffffffffffffffffffffffffff1602179055503373ffffffffffffffffffffffffffffffffffffffff16838573ffffffffffffffffffffffffffffffffffffffff167f392a0f172cb29479635d0b2219b2f96ef24f74dfdf328cb09f1496efe6cfddbe85604051620021f191906200267b565b60405180910390a450505050565b60606000600960008573ffffffffffffffffffffffffffffffffffffffff1673ffffffffffffffffffffffffffffffffffffffff16815260200190815260200160002060008473ffffffffffffffffffffffffffffffffffffffff1673ffffffffffffffffffffffffffffffffffffffff168152602001908152602001600020905080805480602002602001604051908101604052809291908181526020018280548015620022ce57602002820191906000526020600020905b815481526020019060010190808311620022b9575b505050505091505092915050565b6040518060600160405280600073ffffffffffffffffffffffffffffffffffffffff16815260200160008152602001600081525090565b610e498062002de283390190565b600080fd5b600073ffffffffffffffffffffffffffffffffffffffff82169050919050565b6000620023538262002326565b9050919050565b620023658162002346565b81146200237157600080fd5b50565b60008135905062002385816200235a565b92915050565b6000819050919050565b620023a0816200238b565b8114620023ac57600080fd5b50565b600081359050620023c08162002395565b92915050565b60008060408385031215620023e057620023df62002321565b5b6000620023f08582860162002374565b92505060206200240385828601620023af565b9150509250929050565b600081519050919050565b600082825260208201905092915050565b6000819050602082019050919050565b620024448162002346565b82525050565b62002455816200238b565b82525050565b60608201600082015162002473600085018262002439565b5060208201516200248860208501826200244a565b5060408201516200249d60408501826200244a565b50505050565b6000620024b183836200245b565b60608301905092915050565b6000602082019050919050565b6000620024d7826200240d565b620024e3818562002418565b9350620024f08362002429565b8060005b83811015620025275781516200250b8882620024a3565b97506200251883620024bd565b925050600181019050620024f4565b5085935050505092915050565b60006020820190508181036000830152620025508184620024ca565b905092915050565b620025638162002346565b82525050565b600060208201905062002580600083018462002558565b92915050565b600080600060608486031215620025a257620025a162002321565b5b6000620025b28682870162002374565b9350506020620025c586828701620023af565b9250506040620025d886828701620023af565b9150509250925092565b6000819050919050565b60006200260d62002607620026018462002326565b620025e2565b62002326565b9050919050565b60006200262182620025ec565b9050919050565b6000620026358262002614565b9050919050565b620026478162002628565b82525050565b60006020820190506200266460008301846200263c565b92915050565b62002675816200238b565b82525050565b60006020820190506200269260008301846200266a565b92915050565b60008115159050919050565b620026af8162002698565b82525050565b6000602082019050620026cc6000830184620026a4565b92915050565b600082825260208201905092915050565b7f4e4654206e6f74206c697374656420666f722073616c65000000000000000000600082015250565b60006200271b601783620026d2565b91506200272882620026e3565b602082019050919050565b600060208201905081810360008301526200274e816200270c565b9050919050565b7f496e73756666696369656e742066756e647320746f2070757263686173650000600082015250565b60006200278d601e83620026d2565b91506200279a8262002755565b602082019050919050565b60006020820190508181036000830152620027c0816200277e565b9050919050565b600081519050620027d8816200235a565b92915050565b600060208284031215620027f757620027f662002321565b5b60006200280784828501620027c7565b91505092915050565b7f4275796572206973207468652063757272656e74206f776e6572206f6620746860008201527f6520746f6b656e00000000000000000000000000000000000000000000000000602082015250565b60006200286e602783620026d2565b91506200287b8262002810565b604082019050919050565b60006020820190508181036000830152620028a1816200285f565b9050919050565b7f4e4654206d75737420626520617070726f76656420746f206d61726b65740000600082015250565b6000620028e0601e83620026d2565b9150620028ed82620028a8565b602082019050919050565b600060208201905081810360008301526200291381620028d1565b9050919050565b6000620029278262002326565b9050919050565b62002939816200291a565b82525050565b60006020820190506200295660008301846200292e565b92915050565b6000620029698262002614565b9050919050565b6200297b816200295c565b82525050565b600060608201905062002998600083018662002970565b620029a7602083018562002558565b620029b660408301846200266a565b949350505050565b7f4e487b7100000000000000000000000000000000000000000000000000000000600052604160045260246000fd5b7f4e487b7100000000000000000000000000000000000000000000000000000000600052603260045260246000fd5b7f4e487b7100000000000000000000000000000000000000000000000000000000600052601160045260246000fd5b600062002a58826200238b565b91507fffffffffffffffffffffffffffffffffffffffffffffffffffffffffffffffff820362002a8d5762002a8c62002a1c565b5b600182019050919050565b62002aa38162002698565b811462002aaf57600080fd5b50565b60008151905062002ac38162002a98565b92915050565b60006020828403121562002ae25762002ae162002321565b5b600062002af28482850162002ab2565b91505092915050565b7f436f6c6c656374696f6e206e6f7420637265617465642062792074686520666160008201527f63746f7279000000000000000000000000000000000000000000000000000000602082015250565b600062002b59602583620026d2565b915062002b668262002afb565b604082019050919050565b6000602082019050818103600083015262002b8c8162002b4a565b9050919050565b7f596f7520617265206e6f7420746865206f776e6572206f6620746865204e4654600082015250565b600062002bcb602083620026d2565b915062002bd88262002b93565b602082019050919050565b6000602082019050818103600083015262002bfe8162002bbc565b9050919050565b7f4e4654206973206e6f74206c697374656420666f722073616c65000000000000600082015250565b600062002c3d601a83620026d2565b915062002c4a8262002c05565b602082019050919050565b6000602082019050818103600083015262002c708162002c2e565b9050919050565b600062002c84826200238b565b915062002c91836200238b565b925082820390508181111562002cac5762002cab62002a1c565b5b92915050565b7f4e487b7100000000000000000000000000000000000000000000000000000000600052603160045260246000fd5b600062002cee826200238b565b915062002cfb836200238b565b925082820190508082111562002d165762002d1562002a1c565b5b92915050565b7f4d61726b6574706c6163653a204e465420697320616c7265616479206c69737460008201527f6564000000000000000000000000000000000000000000000000000000000000602082015250565b600062002d7a602283620026d2565b915062002d878262002d1c565b604082019050919050565b6000602082019050818103600083015262002dad8162002d6b565b9050919050565b600060408201905062002dcb600083018562002558565b62002dda60208301846200266a565b939250505056fe60806040523480156200001157600080fd5b5060405162000e4938038062000e4983398181016040528101906200003791906200012c565b81600460006101000a81548173ffffffffffffffffffffffffffffffffffffffff021916908373ffffffffffffffffffffffffffffffffffffffff16021790555080600081905550505062000173565b600080fd5b600073ffffffffffffffffffffffffffffffffffffffff82169050919050565b6000620000b9826200008c565b9050919050565b620000cb81620000ac565b8114620000d757600080fd5b50565b600081519050620000eb81620000c0565b92915050565b6000819050919050565b6200010681620000f1565b81146200011257600080fd5b50565b6000815190506200012681620000fb565b92915050565b6000806040838503121562000146576200014562000087565b5b60006200015685828601620000da565b9250506020620001698582860162000115565b9150509250929050565b610cc680620001836000396000f3fe6080604052600436106100555760003560e01c80632206d2ad1461005a5780632aca2ae314610064578063981af5381461008f578063a3f09ad614610099578063e607609b146100c2578063e99d2866146100de575b600080fd5b610062610107565b005b34801561007057600080fd5b506100796102cf565b60405161008691906107e2565b60405180910390f35b6100976102d7565b005b3480156100a557600080fd5b506100c060048036038101906100bb9190610860565b610505565b005b6100dc60048036038101906100d791906108b9565b6105d9565b005b3480156100ea57600080fd5b5061010560048036038101906101009190610860565b6106c7565b005b3373ffffffffffffffffffffffffffffffffffffffff16600360009054906101000a900473ffffffffffffffffffffffffffffffffffffffff1673ffffffffffffffffffffffffffffffffffffffff1614610197576040517f08c379a000000000000000000000000000000000000000000000000000000000815260040161018e90610943565b60405180910390fd5b61019f61079b565b6101de576040517f08c379a00000000000000000000000000000000000000000000000000000000081526004016101d5906109af565b60405180910390fd5b600360009054906101000a900473ffffffffffffffffffffffffffffffffffffffff1673ffffffffffffffffffffffffffffffffffffffff166108fc6000549081150290604051600060405180830381858888f19350505050158015610248573d6000803e3d6000fd5b506000805490506001600460146101000a81548160ff021916908315150217905550600080819055507f6669e7702345c6490c297c87b9e02b694d5c17178bd83adf3a3e28e0a9966d86600360009054906101000a900473ffffffffffffffffffffffffffffffffffffffff16826040516102c4929190610a2e565b60405180910390a150565b600047905090565b3373ffffffffffffffffffffffffffffffffffffffff16600260009054906101000a900473ffffffffffffffffffffffffffffffffffffffff1673ffffffffffffffffffffffffffffffffffffffff1614610367576040517f08c379a000000000000000000000000000000000000000000000000000000000815260040161035e90610aa3565b60405180910390fd5b61036f61079b565b6103ae576040517f08c379a00000000000000000000000000000000000000000000000000000000081526004016103a590610b0f565b60405180910390fd5b6000600460149054906101000a900460ff161561043657479050600260009054906101000a900473ffffffffffffffffffffffffffffffffffffffff1673ffffffffffffffffffffffffffffffffffffffff166108fc479081150290604051600060405180830381858888f19350505050158015610430573d6000803e3d6000fd5b506104a7565b6001549050600260009054906101000a900473ffffffffffffffffffffffffffffffffffffffff1673ffffffffffffffffffffffffffffffffffffffff166108fc6001549081150290604051600060405180830381858888f193505050501580156104a5573d6000803e3d6000fd5b505b7f418fac713de1f82de0a5253d31f62701edef3344986980fb64e887009f368d20600260009054906101000a900473ffffffffffffffffffffffffffffffffffffffff16826040516104fa929190610a2e565b60405180910390a150565b3373ffffffffffffffffffffffffffffffffffffffff16600460009054906101000a900473ffffffffffffffffffffffffffffffffffffffff1673ffffffffffffffffffffffffffffffffffffffff1614610595576040517f08c379a000000000000000000000000000000000000000000000000000000000815260040161058c90610ba1565b60405180910390fd5b80600260006101000a81548173ffffffffffffffffffffffffffffffffffffffff021916908373ffffffffffffffffffffffffffffffffffffffff16021790555050565b3373ffffffffffffffffffffffffffffffffffffffff16600460009054906101000a900473ffffffffffffffffffffffffffffffffffffffff1673ffffffffffffffffffffffffffffffffffffffff1614610669576040517f08c379a000000000000000000000000000000000000000000000000000000000815260040161066090610ba1565b60405180910390fd5b8034146106ab576040517f08c379a00000000000000000000000000000000000000000000000000000000081526004016106a290610c0d565b60405180910390fd5b80600160008282546106bd9190610c5c565b9250508190555050565b3373ffffffffffffffffffffffffffffffffffffffff16600460009054906101000a900473ffffffffffffffffffffffffffffffffffffffff1673ffffffffffffffffffffffffffffffffffffffff1614610757576040517f08c379a000000000000000000000000000000000000000000000000000000000815260040161074e90610ba1565b60405180910390fd5b80600360006101000a81548173ffffffffffffffffffffffffffffffffffffffff021916908373ffffffffffffffffffffffffffffffffffffffff16021790555050565b6000476107a66107ad565b1115905090565b6000806000546001546107c09190610c5c565b90508091505090565b6000819050919050565b6107dc816107c9565b82525050565b60006020820190506107f760008301846107d3565b92915050565b600080fd5b600073ffffffffffffffffffffffffffffffffffffffff82169050919050565b600061082d82610802565b9050919050565b61083d81610822565b811461084857600080fd5b50565b60008135905061085a81610834565b92915050565b600060208284031215610876576108756107fd565b5b60006108848482850161084b565b91505092915050565b610896816107c9565b81146108a157600080fd5b50565b6000813590506108b38161088d565b92915050565b6000602082840312156108cf576108ce6107fd565b5b60006108dd848285016108a4565b91505092915050565b600082825260208201905092915050565b7f596f7520617265206e6f74207468652073656c6c65722e000000000000000000600082015250565b600061092d6017836108e6565b9150610938826108f7565b602082019050919050565b6000602082019050818103600083015261095c81610920565b9050919050565b7f4e6f7420436c61696d61626c652042792053656c6c6572205965742e00000000600082015250565b6000610999601c836108e6565b91506109a482610963565b602082019050919050565b600060208201905081810360008301526109c88161098c565b9050919050565b6000819050919050565b60006109f46109ef6109ea84610802565b6109cf565b610802565b9050919050565b6000610a06826109d9565b9050919050565b6000610a18826109fb565b9050919050565b610a2881610a0d565b82525050565b6000604082019050610a436000830185610a1f565b610a5060208301846107d3565b9392505050565b7f596f7520617265206e6f74207468652062757965722e00000000000000000000600082015250565b6000610a8d6016836108e6565b9150610a9882610a57565b602082019050919050565b60006020820190508181036000830152610abc81610a80565b9050919050565b7f4e6f7420436c61696d61626c65204279204275796572205965742e0000000000600082015250565b6000610af9601b836108e6565b9150610b0482610ac3565b602082019050919050565b60006020820190508181036000830152610b2881610aec565b9050919050565b7f4f6e6c79204d61726b6574706c61636520436f6e747261637420697320616c6c60008201527f6f77656420666f72206465706f736974732e0000000000000000000000000000602082015250565b6000610b8b6032836108e6565b9150610b9682610b2f565b604082019050919050565b60006020820190508181036000830152610bba81610b7e565b9050919050565b7f496e636f727265637420616d6f756e742073656e740000000000000000000000600082015250565b6000610bf76015836108e6565b9150610c0282610bc1565b602082019050919050565b60006020820190508181036000830152610c2681610bea565b9050919050565b7f4e487b7100000000000000000000000000000000000000000000000000000000600052601160045260246000fd5b6000610c67826107c9565b9150610c72836107c9565b9250828201905080821115610c8a57610c89610c2d565b5b9291505056fea26469706673582212203098a06f78d7224572ea80955fa5a56d7e19b317ff70be5dfab057b90d2d447e64736f6c63430008140033a2646970667358221220c802c973212680ca4564995a95e47a05b2c558bbb43819d85b43ff855022574a64736f6c63430008140033",
  "linkReferences": {},
  "deployedLinkReferences": {}
}