{
  "_format": "hh-sol-artifact-1",
  "contractName": "Marketplace",
  "sourceName": "contracts/Marketplace.sol",
  "abi": [
    {
      "inputs": [
        {
          "internalType": "address",
          "name": "_factory",
          "type": "address"
        }
      ],
      "stateMutability": "nonpayable",
      "type": "constructor"
    },
    {
      "inputs": [],
      "name": "ReentrancyGuardReentrantCall",
      "type": "error"
    },
    {
      "anonymous": false,
      "inputs": [
        {
          "indexed": true,
          "internalType": "address",
          "name": "collection",
          "type": "address"
        },
        {
          "indexed": true,
          "internalType": "uint256",
          "name": "tokenId",
          "type": "uint256"
        },
        {
          "indexed": true,
          "internalType": "address",
          "name": "seller",
          "type": "address"
        },
        {
          "indexed": false,
          "internalType": "uint256",
          "name": "price",
          "type": "uint256"
        }
      ],
      "name": "NFTListed",
      "type": "event"
    },
    {
      "anonymous": false,
      "inputs": [
        {
          "indexed": true,
          "internalType": "address",
          "name": "collection",
          "type": "address"
        },
        {
          "indexed": true,
          "internalType": "uint256",
          "name": "tokenId",
          "type": "uint256"
        },
        {
          "indexed": true,
          "internalType": "address",
          "name": "buyer",
          "type": "address"
        }
      ],
      "name": "NFTPurchased",
      "type": "event"
    },
    {
      "inputs": [],
      "name": "factory",
      "outputs": [
        {
          "internalType": "contract BlastNFTFactory",
          "name": "",
          "type": "address"
        }
      ],
      "stateMutability": "view",
      "type": "function"
    },
    {
      "inputs": [],
      "name": "getAllActiveTokens",
      "outputs": [
        {
          "components": [
            {
              "internalType": "address",
              "name": "collection",
              "type": "address"
            },
            {
              "internalType": "uint256",
              "name": "tokenId",
              "type": "uint256"
            },
            {
              "internalType": "uint256",
              "name": "price",
              "type": "uint256"
            }
          ],
          "internalType": "struct Marketplace.TokenInfo[]",
          "name": "",
          "type": "tuple[]"
        }
      ],
      "stateMutability": "view",
      "type": "function"
    },
    {
      "inputs": [
        {
          "internalType": "address",
          "name": "collection",
          "type": "address"
        },
        {
          "internalType": "uint256",
          "name": "tokenId",
          "type": "uint256"
        }
      ],
      "name": "getTokenPrice",
      "outputs": [
        {
          "internalType": "uint256",
          "name": "",
          "type": "uint256"
        }
      ],
      "stateMutability": "view",
      "type": "function"
    },
    {
      "inputs": [
        {
          "internalType": "address",
          "name": "collection",
          "type": "address"
        },
        {
          "internalType": "uint256",
          "name": "tokenId",
          "type": "uint256"
        }
      ],
      "name": "isNFTListed",
      "outputs": [
        {
          "internalType": "bool",
          "name": "",
          "type": "bool"
        }
      ],
      "stateMutability": "view",
      "type": "function"
    },
    {
      "inputs": [],
      "name": "owner",
      "outputs": [
        {
          "internalType": "address",
          "name": "",
          "type": "address"
        }
      ],
      "stateMutability": "view",
      "type": "function"
    },
    {
      "inputs": [
        {
          "internalType": "address",
          "name": "collection",
          "type": "address"
        },
        {
          "internalType": "uint256",
          "name": "tokenId",
          "type": "uint256"
        }
      ],
      "name": "purchaseNFT",
      "outputs": [],
      "stateMutability": "payable",
      "type": "function"
    },
    {
      "inputs": [
        {
          "internalType": "address",
          "name": "collection",
          "type": "address"
        },
        {
          "internalType": "uint256",
          "name": "tokenId",
          "type": "uint256"
        },
        {
          "internalType": "uint256",
          "name": "priceInBlast",
          "type": "uint256"
        }
      ],
      "name": "toggleNFTForSale",
      "outputs": [],
      "stateMutability": "nonpayable",
      "type": "function"
    }
  ],
  "bytecode": "0x60806040523480156200001157600080fd5b5060405162001eba38038062001eba833981810160405281019062000037919062000132565b600160008190555033600160006101000a81548173ffffffffffffffffffffffffffffffffffffffff021916908373ffffffffffffffffffffffffffffffffffffffff16021790555080600260006101000a81548173ffffffffffffffffffffffffffffffffffffffff021916908373ffffffffffffffffffffffffffffffffffffffff1602179055505062000164565b600080fd5b600073ffffffffffffffffffffffffffffffffffffffff82169050919050565b6000620000fa82620000cd565b9050919050565b6200010c81620000ed565b81146200011857600080fd5b50565b6000815190506200012c8162000101565b92915050565b6000602082840312156200014b576200014a620000c8565b5b60006200015b848285016200011b565b91505092915050565b611d4680620001746000396000f3fe6080604052600436106100705760003560e01c8063a87e25ac1161004e578063a87e25ac146100f4578063c45a015514610110578063c9f7153c1461013b578063fab25bb21461017857610070565b806342fbbf4f146100755780638da5cb5b146100a05780639241d319146100cb575b600080fd5b34801561008157600080fd5b5061008a6101b5565b60405161009791906114b8565b60405180910390f35b3480156100ac57600080fd5b506100b561040d565b6040516100c291906114e9565b60405180910390f35b3480156100d757600080fd5b506100f260048036038101906100ed9190611561565b610433565b005b61010e600480360381019061010991906115b4565b610678565b005b34801561011c57600080fd5b50610125610aa7565b6040516101329190611653565b60405180910390f35b34801561014757600080fd5b50610162600480360381019061015d91906115b4565b610acd565b60405161016f919061167d565b60405180910390f35b34801561018457600080fd5b5061019f600480360381019061019a91906115b4565b610b28565b6040516101ac91906116b3565b60405180910390f35b606060006101c1610b90565b67ffffffffffffffff8111156101da576101d96116ce565b5b60405190808252806020026020018201604052801561021357816020015b610200611336565b8152602001906001900390816101f85790505b5090506000805b6006805490508110156104045760006006828154811061023d5761023c6116fd565b5b9060005260206000200160009054906101000a900473ffffffffffffffffffffffffffffffffffffffff1690506000600560008373ffffffffffffffffffffffffffffffffffffffff1673ffffffffffffffffffffffffffffffffffffffff1681526020019081526020016000208054806020026020016040519081016040528092919081815260200182805480156102f557602002820191906000526020600020905b8154815260200190600101908083116102e1575b5050505050905060005b81518110156103ee57600082828151811061031d5761031c6116fd565b5b602002602001015190506000600360008673ffffffffffffffffffffffffffffffffffffffff1673ffffffffffffffffffffffffffffffffffffffff168152602001908152602001600020600083815260200190815260200160002054905060405180606001604052808673ffffffffffffffffffffffffffffffffffffffff168152602001838152602001828152508888815181106103c0576103bf6116fd565b5b602002602001018190525086806103d69061175b565b975050505080806103e69061175b565b9150506102ff565b50505080806103fc9061175b565b91505061021a565b50819250505090565b600160009054906101000a900473ffffffffffffffffffffffffffffffffffffffff1681565b600260009054906101000a900473ffffffffffffffffffffffffffffffffffffffff1673ffffffffffffffffffffffffffffffffffffffff1663c785cafb846040518263ffffffff1660e01b815260040161048e91906114e9565b602060405180830381865afa1580156104ab573d6000803e3d6000fd5b505050506040513d601f19601f820116820180604052508101906104cf91906117cf565b61050e576040517f08c379a00000000000000000000000000000000000000000000000000000000081526004016105059061187f565b60405180910390fd5b3373ffffffffffffffffffffffffffffffffffffffff168373ffffffffffffffffffffffffffffffffffffffff16636352211e846040518263ffffffff1660e01b815260040161055e919061167d565b602060405180830381865afa15801561057b573d6000803e3d6000fd5b505050506040513d601f19601f8201168201806040525081019061059f91906118b4565b73ffffffffffffffffffffffffffffffffffffffff16146105f5576040517f08c379a00000000000000000000000000000000000000000000000000000000081526004016105ec9061192d565b60405180910390fd5b600460008473ffffffffffffffffffffffffffffffffffffffff1673ffffffffffffffffffffffffffffffffffffffff168152602001908152602001600020600083815260200190815260200160002060009054906101000a900460ff1615610667576106628383610c56565b610673565b610672838383611056565b5b505050565b6106806112e6565b6000600360008473ffffffffffffffffffffffffffffffffffffffff1673ffffffffffffffffffffffffffffffffffffffff16815260200190815260200160002060008381526020019081526020016000205411610713576040517f08c379a000000000000000000000000000000000000000000000000000000000815260040161070a90611999565b60405180910390fd5b6000600360008473ffffffffffffffffffffffffffffffffffffffff1673ffffffffffffffffffffffffffffffffffffffff1681526020019081526020016000206000838152602001908152602001600020549050803410156107ab576040517f08c379a00000000000000000000000000000000000000000000000000000000081526004016107a290611a05565b60405180910390fd5b60008373ffffffffffffffffffffffffffffffffffffffff16636352211e846040518263ffffffff1660e01b81526004016107e6919061167d565b602060405180830381865afa158015610803573d6000803e3d6000fd5b505050506040513d601f19601f8201168201806040525081019061082791906118b4565b90503373ffffffffffffffffffffffffffffffffffffffff168173ffffffffffffffffffffffffffffffffffffffff1603610897576040517f08c379a000000000000000000000000000000000000000000000000000000000815260040161088e90611a97565b60405180910390fd5b3073ffffffffffffffffffffffffffffffffffffffff168473ffffffffffffffffffffffffffffffffffffffff1663081812fc856040518263ffffffff1660e01b81526004016108e7919061167d565b602060405180830381865afa158015610904573d6000803e3d6000fd5b505050506040513d601f19601f8201168201806040525081019061092891906118b4565b73ffffffffffffffffffffffffffffffffffffffff161461097e576040517f08c379a000000000000000000000000000000000000000000000000000000000815260040161097590611b03565b60405180910390fd5b8073ffffffffffffffffffffffffffffffffffffffff166108fc839081150290604051600060405180830381858888f193505050501580156109c4573d6000803e3d6000fd5b508373ffffffffffffffffffffffffffffffffffffffff166323b872dd8233866040518463ffffffff1660e01b8152600401610a0293929190611b44565b600060405180830381600087803b158015610a1c57600080fd5b505af1158015610a30573d6000803e3d6000fd5b50505050610a3e8484610c56565b3373ffffffffffffffffffffffffffffffffffffffff16838573ffffffffffffffffffffffffffffffffffffffff167f1f7867003b2eba97f0f4836c6c9ca76d182e921e99ba8de6ed63bb5bccad9df560405160405180910390a45050610aa361132c565b5050565b600260009054906101000a900473ffffffffffffffffffffffffffffffffffffffff1681565b6000600360008473ffffffffffffffffffffffffffffffffffffffff1673ffffffffffffffffffffffffffffffffffffffff168152602001908152602001600020600083815260200190815260200160002054905092915050565b6000600460008473ffffffffffffffffffffffffffffffffffffffff1673ffffffffffffffffffffffffffffffffffffffff168152602001908152602001600020600083815260200190815260200160002060009054906101000a900460ff16905092915050565b6000806000905060005b600680549050811015610c4e57600060068281548110610bbd57610bbc6116fd565b5b9060005260206000200160009054906101000a900473ffffffffffffffffffffffffffffffffffffffff169050600560008273ffffffffffffffffffffffffffffffffffffffff1673ffffffffffffffffffffffffffffffffffffffff1681526020019081526020016000208054905083610c389190611b7b565b9250508080610c469061175b565b915050610b9a565b508091505090565b600460008373ffffffffffffffffffffffffffffffffffffffff1673ffffffffffffffffffffffffffffffffffffffff168152602001908152602001600020600082815260200190815260200160002060009054906101000a900460ff16610cf3576040517f08c379a0000000000000000000000000000000000000000000000000000000008152600401610cea90611bfb565b60405180910390fd5b6000600560008473ffffffffffffffffffffffffffffffffffffffff1673ffffffffffffffffffffffffffffffffffffffff168152602001908152602001600020905060005b8180549050811015610df75782828281548110610d5957610d586116fd565b5b906000526020600020015403610de4578160018380549050610d7b9190611c1b565b81548110610d8c57610d8b6116fd565b5b9060005260206000200154828281548110610daa57610da96116fd565b5b906000526020600020018190555081805480610dc957610dc8611c4f565b5b60019003818190600052602060002001600090559055610df7565b8080610def9061175b565b915050610d39565b506000818054905003610f925760005b600680549050811015610f90578373ffffffffffffffffffffffffffffffffffffffff1660068281548110610e3f57610e3e6116fd565b5b9060005260206000200160009054906101000a900473ffffffffffffffffffffffffffffffffffffffff1673ffffffffffffffffffffffffffffffffffffffff1603610f7d5760066001600680549050610e999190611c1b565b81548110610eaa57610ea96116fd565b5b9060005260206000200160009054906101000a900473ffffffffffffffffffffffffffffffffffffffff1660068281548110610ee957610ee86116fd565b5b9060005260206000200160006101000a81548173ffffffffffffffffffffffffffffffffffffffff021916908373ffffffffffffffffffffffffffffffffffffffff1602179055506006805480610f4357610f42611c4f565b5b6001900381819060005260206000200160006101000a81549073ffffffffffffffffffffffffffffffffffffffff02191690559055610f90565b8080610f889061175b565b915050610e07565b505b6000600460008573ffffffffffffffffffffffffffffffffffffffff1673ffffffffffffffffffffffffffffffffffffffff168152602001908152602001600020600084815260200190815260200160002060006101000a81548160ff0219169083151502179055506000600360008573ffffffffffffffffffffffffffffffffffffffff1673ffffffffffffffffffffffffffffffffffffffff168152602001908152602001600020600084815260200190815260200160002081905550505050565b600460008473ffffffffffffffffffffffffffffffffffffffff1673ffffffffffffffffffffffffffffffffffffffff168152602001908152602001600020600083815260200190815260200160002060009054906101000a900460ff16156110f4576040517f08c379a00000000000000000000000000000000000000000000000000000000081526004016110eb90611cf0565b60405180910390fd5b6001600460008573ffffffffffffffffffffffffffffffffffffffff1673ffffffffffffffffffffffffffffffffffffffff168152602001908152602001600020600084815260200190815260200160002060006101000a81548160ff02191690831515021790555080600360008573ffffffffffffffffffffffffffffffffffffffff1673ffffffffffffffffffffffffffffffffffffffff1681526020019081526020016000206000848152602001908152602001600020819055506006839080600181540180825580915050600190039060005260206000200160009091909190916101000a81548173ffffffffffffffffffffffffffffffffffffffff021916908373ffffffffffffffffffffffffffffffffffffffff160217905550600560008473ffffffffffffffffffffffffffffffffffffffff1673ffffffffffffffffffffffffffffffffffffffff1681526020019081526020016000208290806001815401808255809150506001900390600052602060002001600090919091909150553373ffffffffffffffffffffffffffffffffffffffff16828473ffffffffffffffffffffffffffffffffffffffff167f392a0f172cb29479635d0b2219b2f96ef24f74dfdf328cb09f1496efe6cfddbe846040516112d9919061167d565b60405180910390a4505050565b600260005403611322576040517f3ee5aeb500000000000000000000000000000000000000000000000000000000815260040160405180910390fd5b6002600081905550565b6001600081905550565b6040518060600160405280600073ffffffffffffffffffffffffffffffffffffffff16815260200160008152602001600081525090565b600081519050919050565b600082825260208201905092915050565b6000819050602082019050919050565b600073ffffffffffffffffffffffffffffffffffffffff82169050919050565b60006113c482611399565b9050919050565b6113d4816113b9565b82525050565b6000819050919050565b6113ed816113da565b82525050565b60608201600082015161140960008501826113cb565b50602082015161141c60208501826113e4565b50604082015161142f60408501826113e4565b50505050565b600061144183836113f3565b60608301905092915050565b6000602082019050919050565b60006114658261136d565b61146f8185611378565b935061147a83611389565b8060005b838110156114ab5781516114928882611435565b975061149d8361144d565b92505060018101905061147e565b5085935050505092915050565b600060208201905081810360008301526114d2818461145a565b905092915050565b6114e3816113b9565b82525050565b60006020820190506114fe60008301846114da565b92915050565b600080fd5b611512816113b9565b811461151d57600080fd5b50565b60008135905061152f81611509565b92915050565b61153e816113da565b811461154957600080fd5b50565b60008135905061155b81611535565b92915050565b60008060006060848603121561157a57611579611504565b5b600061158886828701611520565b93505060206115998682870161154c565b92505060406115aa8682870161154c565b9150509250925092565b600080604083850312156115cb576115ca611504565b5b60006115d985828601611520565b92505060206115ea8582860161154c565b9150509250929050565b6000819050919050565b600061161961161461160f84611399565b6115f4565b611399565b9050919050565b600061162b826115fe565b9050919050565b600061163d82611620565b9050919050565b61164d81611632565b82525050565b60006020820190506116686000830184611644565b92915050565b611677816113da565b82525050565b6000602082019050611692600083018461166e565b92915050565b60008115159050919050565b6116ad81611698565b82525050565b60006020820190506116c860008301846116a4565b92915050565b7f4e487b7100000000000000000000000000000000000000000000000000000000600052604160045260246000fd5b7f4e487b7100000000000000000000000000000000000000000000000000000000600052603260045260246000fd5b7f4e487b7100000000000000000000000000000000000000000000000000000000600052601160045260246000fd5b6000611766826113da565b91507fffffffffffffffffffffffffffffffffffffffffffffffffffffffffffffffff82036117985761179761172c565b5b600182019050919050565b6117ac81611698565b81146117b757600080fd5b50565b6000815190506117c9816117a3565b92915050565b6000602082840312156117e5576117e4611504565b5b60006117f3848285016117ba565b91505092915050565b600082825260208201905092915050565b7f436f6c6c656374696f6e206e6f7420637265617465642062792074686520666160008201527f63746f7279000000000000000000000000000000000000000000000000000000602082015250565b60006118696025836117fc565b91506118748261180d565b604082019050919050565b600060208201905081810360008301526118988161185c565b9050919050565b6000815190506118ae81611509565b92915050565b6000602082840312156118ca576118c9611504565b5b60006118d88482850161189f565b91505092915050565b7f596f7520617265206e6f7420746865206f776e6572206f6620746865204e4654600082015250565b60006119176020836117fc565b9150611922826118e1565b602082019050919050565b600060208201905081810360008301526119468161190a565b9050919050565b7f4e4654206e6f74206c697374656420666f722073616c65000000000000000000600082015250565b60006119836017836117fc565b915061198e8261194d565b602082019050919050565b600060208201905081810360008301526119b281611976565b9050919050565b7f496e73756666696369656e742066756e647320746f2070757263686173650000600082015250565b60006119ef601e836117fc565b91506119fa826119b9565b602082019050919050565b60006020820190508181036000830152611a1e816119e2565b9050919050565b7f4275796572206973207468652063757272656e74206f776e6572206f6620746860008201527f6520746f6b656e00000000000000000000000000000000000000000000000000602082015250565b6000611a816027836117fc565b9150611a8c82611a25565b604082019050919050565b60006020820190508181036000830152611ab081611a74565b9050919050565b7f4e4654206d75737420626520617070726f76656420746f206d61726b65740000600082015250565b6000611aed601e836117fc565b9150611af882611ab7565b602082019050919050565b60006020820190508181036000830152611b1c81611ae0565b9050919050565b6000611b2e82611620565b9050919050565b611b3e81611b23565b82525050565b6000606082019050611b596000830186611b35565b611b6660208301856114da565b611b73604083018461166e565b949350505050565b6000611b86826113da565b9150611b91836113da565b9250828201905080821115611ba957611ba861172c565b5b92915050565b7f4e4654206973206e6f74206c697374656420666f722073616c65000000000000600082015250565b6000611be5601a836117fc565b9150611bf082611baf565b602082019050919050565b60006020820190508181036000830152611c1481611bd8565b9050919050565b6000611c26826113da565b9150611c31836113da565b9250828203905081811115611c4957611c4861172c565b5b92915050565b7f4e487b7100000000000000000000000000000000000000000000000000000000600052603160045260246000fd5b7f4d61726b6574706c6163653a204e465420697320616c7265616479206c69737460008201527f6564000000000000000000000000000000000000000000000000000000000000602082015250565b6000611cda6022836117fc565b9150611ce582611c7e565b604082019050919050565b60006020820190508181036000830152611d0981611ccd565b905091905056fea2646970667358221220a46d5d1373bf1b4f8636ac202ced45e7732f36047281b41ff32307e95dfb02cb64736f6c63430008140033",
  "linkReferences": {},
  "deployedLinkReferences": {}
}