{
  "_format": "hh-sol-artifact-1",
  "contractName": "Marketplace",
  "sourceName": "contracts/Marketplace.sol",
  "abi": [
    {
      "inputs": [
        {
          "internalType": "address",
          "name": "_factory",
          "type": "address"
        }
      ],
      "stateMutability": "nonpayable",
      "type": "constructor"
    },
    {
      "inputs": [],
      "name": "ReentrancyGuardReentrantCall",
      "type": "error"
    },
    {
      "anonymous": false,
      "inputs": [
        {
          "indexed": true,
          "internalType": "address",
          "name": "collection",
          "type": "address"
        },
        {
          "indexed": true,
          "internalType": "uint256",
          "name": "tokenId",
          "type": "uint256"
        },
        {
          "indexed": true,
          "internalType": "address",
          "name": "seller",
          "type": "address"
        },
        {
          "indexed": false,
          "internalType": "uint256",
          "name": "price",
          "type": "uint256"
        }
      ],
      "name": "NFTListed",
      "type": "event"
    },
    {
      "anonymous": false,
      "inputs": [
        {
          "indexed": true,
          "internalType": "address",
          "name": "collection",
          "type": "address"
        },
        {
          "indexed": true,
          "internalType": "uint256",
          "name": "tokenId",
          "type": "uint256"
        },
        {
          "indexed": true,
          "internalType": "address",
          "name": "buyer",
          "type": "address"
        }
      ],
      "name": "NFTPurchased",
      "type": "event"
    },
    {
      "inputs": [],
      "name": "factory",
      "outputs": [
        {
          "internalType": "contract BlastNFTFactory",
          "name": "",
          "type": "address"
        }
      ],
      "stateMutability": "view",
      "type": "function"
    },
    {
      "inputs": [
        {
          "internalType": "address",
          "name": "collection",
          "type": "address"
        },
        {
          "internalType": "uint256",
          "name": "tokenId",
          "type": "uint256"
        }
      ],
      "name": "getTokenPrice",
      "outputs": [
        {
          "internalType": "uint256",
          "name": "",
          "type": "uint256"
        }
      ],
      "stateMutability": "view",
      "type": "function"
    },
    {
      "inputs": [
        {
          "internalType": "address",
          "name": "collection",
          "type": "address"
        },
        {
          "internalType": "uint256",
          "name": "tokenId",
          "type": "uint256"
        }
      ],
      "name": "isNFTListed",
      "outputs": [
        {
          "internalType": "bool",
          "name": "",
          "type": "bool"
        }
      ],
      "stateMutability": "view",
      "type": "function"
    },
    {
      "inputs": [],
      "name": "owner",
      "outputs": [
        {
          "internalType": "address",
          "name": "",
          "type": "address"
        }
      ],
      "stateMutability": "view",
      "type": "function"
    },
    {
      "inputs": [
        {
          "internalType": "address",
          "name": "collection",
          "type": "address"
        },
        {
          "internalType": "uint256",
          "name": "tokenId",
          "type": "uint256"
        }
      ],
      "name": "purchaseNFT",
      "outputs": [],
      "stateMutability": "payable",
      "type": "function"
    },
    {
      "inputs": [
        {
          "internalType": "address",
          "name": "collection",
          "type": "address"
        },
        {
          "internalType": "uint256",
          "name": "tokenId",
          "type": "uint256"
        },
        {
          "internalType": "uint256",
          "name": "priceInBlast",
          "type": "uint256"
        }
      ],
      "name": "toggleNFTForSale",
      "outputs": [],
      "stateMutability": "nonpayable",
      "type": "function"
    }
  ],
  "bytecode": "0x60806040523480156200001157600080fd5b506040516200151938038062001519833981810160405281019062000037919062000132565b600160008190555033600160006101000a81548173ffffffffffffffffffffffffffffffffffffffff021916908373ffffffffffffffffffffffffffffffffffffffff16021790555080600260006101000a81548173ffffffffffffffffffffffffffffffffffffffff021916908373ffffffffffffffffffffffffffffffffffffffff1602179055505062000164565b600080fd5b600073ffffffffffffffffffffffffffffffffffffffff82169050919050565b6000620000fa82620000cd565b9050919050565b6200010c81620000ed565b81146200011857600080fd5b50565b6000815190506200012c8162000101565b92915050565b6000602082840312156200014b576200014a620000c8565b5b60006200015b848285016200011b565b91505092915050565b6113a580620001746000396000f3fe6080604052600436106100555760003560e01c80638da5cb5b1461005a5780639241d31914610085578063a87e25ac146100ae578063c45a0155146100ca578063c9f7153c146100f5578063fab25bb214610132575b600080fd5b34801561006657600080fd5b5061006f61016f565b60405161007c9190610caa565b60405180910390f35b34801561009157600080fd5b506100ac60048036038101906100a79190610d2c565b610195565b005b6100c860048036038101906100c39190610d7f565b6103da565b005b3480156100d657600080fd5b506100df610809565b6040516100ec9190610e1e565b60405180910390f35b34801561010157600080fd5b5061011c60048036038101906101179190610d7f565b61082f565b6040516101299190610e48565b60405180910390f35b34801561013e57600080fd5b5061015960048036038101906101549190610d7f565b61088a565b6040516101669190610e7e565b60405180910390f35b600160009054906101000a900473ffffffffffffffffffffffffffffffffffffffff1681565b600260009054906101000a900473ffffffffffffffffffffffffffffffffffffffff1673ffffffffffffffffffffffffffffffffffffffff1663c785cafb846040518263ffffffff1660e01b81526004016101f09190610caa565b602060405180830381865afa15801561020d573d6000803e3d6000fd5b505050506040513d601f19601f820116820180604052508101906102319190610ec5565b610270576040517f08c379a000000000000000000000000000000000000000000000000000000000815260040161026790610f75565b60405180910390fd5b3373ffffffffffffffffffffffffffffffffffffffff168373ffffffffffffffffffffffffffffffffffffffff16636352211e846040518263ffffffff1660e01b81526004016102c09190610e48565b602060405180830381865afa1580156102dd573d6000803e3d6000fd5b505050506040513d601f19601f820116820180604052508101906103019190610faa565b73ffffffffffffffffffffffffffffffffffffffff1614610357576040517f08c379a000000000000000000000000000000000000000000000000000000000815260040161034e90611023565b60405180910390fd5b600460008473ffffffffffffffffffffffffffffffffffffffff1673ffffffffffffffffffffffffffffffffffffffff168152602001908152602001600020600083815260200190815260200160002060009054906101000a900460ff16156103c9576103c483836108f2565b6103d5565b6103d4838383610a52565b5b505050565b6103e2610c19565b6000600360008473ffffffffffffffffffffffffffffffffffffffff1673ffffffffffffffffffffffffffffffffffffffff16815260200190815260200160002060008381526020019081526020016000205411610475576040517f08c379a000000000000000000000000000000000000000000000000000000000815260040161046c9061108f565b60405180910390fd5b6000600360008473ffffffffffffffffffffffffffffffffffffffff1673ffffffffffffffffffffffffffffffffffffffff16815260200190815260200160002060008381526020019081526020016000205490508034101561050d576040517f08c379a0000000000000000000000000000000000000000000000000000000008152600401610504906110fb565b60405180910390fd5b60008373ffffffffffffffffffffffffffffffffffffffff16636352211e846040518263ffffffff1660e01b81526004016105489190610e48565b602060405180830381865afa158015610565573d6000803e3d6000fd5b505050506040513d601f19601f820116820180604052508101906105899190610faa565b90503373ffffffffffffffffffffffffffffffffffffffff168173ffffffffffffffffffffffffffffffffffffffff16036105f9576040517f08c379a00000000000000000000000000000000000000000000000000000000081526004016105f09061118d565b60405180910390fd5b3073ffffffffffffffffffffffffffffffffffffffff168473ffffffffffffffffffffffffffffffffffffffff1663081812fc856040518263ffffffff1660e01b81526004016106499190610e48565b602060405180830381865afa158015610666573d6000803e3d6000fd5b505050506040513d601f19601f8201168201806040525081019061068a9190610faa565b73ffffffffffffffffffffffffffffffffffffffff16146106e0576040517f08c379a00000000000000000000000000000000000000000000000000000000081526004016106d7906111f9565b60405180910390fd5b8073ffffffffffffffffffffffffffffffffffffffff166108fc839081150290604051600060405180830381858888f19350505050158015610726573d6000803e3d6000fd5b508373ffffffffffffffffffffffffffffffffffffffff166323b872dd8233866040518463ffffffff1660e01b81526004016107649392919061123a565b600060405180830381600087803b15801561077e57600080fd5b505af1158015610792573d6000803e3d6000fd5b505050506107a084846108f2565b3373ffffffffffffffffffffffffffffffffffffffff16838573ffffffffffffffffffffffffffffffffffffffff167f1f7867003b2eba97f0f4836c6c9ca76d182e921e99ba8de6ed63bb5bccad9df560405160405180910390a45050610805610c5f565b5050565b600260009054906101000a900473ffffffffffffffffffffffffffffffffffffffff1681565b6000600360008473ffffffffffffffffffffffffffffffffffffffff1673ffffffffffffffffffffffffffffffffffffffff168152602001908152602001600020600083815260200190815260200160002054905092915050565b6000600460008473ffffffffffffffffffffffffffffffffffffffff1673ffffffffffffffffffffffffffffffffffffffff168152602001908152602001600020600083815260200190815260200160002060009054906101000a900460ff16905092915050565b600460008373ffffffffffffffffffffffffffffffffffffffff1673ffffffffffffffffffffffffffffffffffffffff168152602001908152602001600020600082815260200190815260200160002060009054906101000a900460ff1661098f576040517f08c379a0000000000000000000000000000000000000000000000000000000008152600401610986906112bd565b60405180910390fd5b6000600460008473ffffffffffffffffffffffffffffffffffffffff1673ffffffffffffffffffffffffffffffffffffffff168152602001908152602001600020600083815260200190815260200160002060006101000a81548160ff0219169083151502179055506000600360008473ffffffffffffffffffffffffffffffffffffffff1673ffffffffffffffffffffffffffffffffffffffff1681526020019081526020016000206000838152602001908152602001600020819055505050565b600460008473ffffffffffffffffffffffffffffffffffffffff1673ffffffffffffffffffffffffffffffffffffffff168152602001908152602001600020600083815260200190815260200160002060009054906101000a900460ff1615610af0576040517f08c379a0000000000000000000000000000000000000000000000000000000008152600401610ae79061134f565b60405180910390fd5b6001600460008573ffffffffffffffffffffffffffffffffffffffff1673ffffffffffffffffffffffffffffffffffffffff168152602001908152602001600020600084815260200190815260200160002060006101000a81548160ff02191690831515021790555080600360008573ffffffffffffffffffffffffffffffffffffffff1673ffffffffffffffffffffffffffffffffffffffff1681526020019081526020016000206000848152602001908152602001600020819055503373ffffffffffffffffffffffffffffffffffffffff16828473ffffffffffffffffffffffffffffffffffffffff167f392a0f172cb29479635d0b2219b2f96ef24f74dfdf328cb09f1496efe6cfddbe84604051610c0c9190610e48565b60405180910390a4505050565b600260005403610c55576040517f3ee5aeb500000000000000000000000000000000000000000000000000000000815260040160405180910390fd5b6002600081905550565b6001600081905550565b600073ffffffffffffffffffffffffffffffffffffffff82169050919050565b6000610c9482610c69565b9050919050565b610ca481610c89565b82525050565b6000602082019050610cbf6000830184610c9b565b92915050565b600080fd5b610cd381610c89565b8114610cde57600080fd5b50565b600081359050610cf081610cca565b92915050565b6000819050919050565b610d0981610cf6565b8114610d1457600080fd5b50565b600081359050610d2681610d00565b92915050565b600080600060608486031215610d4557610d44610cc5565b5b6000610d5386828701610ce1565b9350506020610d6486828701610d17565b9250506040610d7586828701610d17565b9150509250925092565b60008060408385031215610d9657610d95610cc5565b5b6000610da485828601610ce1565b9250506020610db585828601610d17565b9150509250929050565b6000819050919050565b6000610de4610ddf610dda84610c69565b610dbf565b610c69565b9050919050565b6000610df682610dc9565b9050919050565b6000610e0882610deb565b9050919050565b610e1881610dfd565b82525050565b6000602082019050610e336000830184610e0f565b92915050565b610e4281610cf6565b82525050565b6000602082019050610e5d6000830184610e39565b92915050565b60008115159050919050565b610e7881610e63565b82525050565b6000602082019050610e936000830184610e6f565b92915050565b610ea281610e63565b8114610ead57600080fd5b50565b600081519050610ebf81610e99565b92915050565b600060208284031215610edb57610eda610cc5565b5b6000610ee984828501610eb0565b91505092915050565b600082825260208201905092915050565b7f436f6c6c656374696f6e206e6f7420637265617465642062792074686520666160008201527f63746f7279000000000000000000000000000000000000000000000000000000602082015250565b6000610f5f602583610ef2565b9150610f6a82610f03565b604082019050919050565b60006020820190508181036000830152610f8e81610f52565b9050919050565b600081519050610fa481610cca565b92915050565b600060208284031215610fc057610fbf610cc5565b5b6000610fce84828501610f95565b91505092915050565b7f596f7520617265206e6f7420746865206f776e6572206f6620746865204e4654600082015250565b600061100d602083610ef2565b915061101882610fd7565b602082019050919050565b6000602082019050818103600083015261103c81611000565b9050919050565b7f4e4654206e6f74206c697374656420666f722073616c65000000000000000000600082015250565b6000611079601783610ef2565b915061108482611043565b602082019050919050565b600060208201905081810360008301526110a88161106c565b9050919050565b7f496e73756666696369656e742066756e647320746f2070757263686173650000600082015250565b60006110e5601e83610ef2565b91506110f0826110af565b602082019050919050565b60006020820190508181036000830152611114816110d8565b9050919050565b7f4275796572206973207468652063757272656e74206f776e6572206f6620746860008201527f6520746f6b656e00000000000000000000000000000000000000000000000000602082015250565b6000611177602783610ef2565b91506111828261111b565b604082019050919050565b600060208201905081810360008301526111a68161116a565b9050919050565b7f4e4654206d75737420626520617070726f76656420746f206d61726b65740000600082015250565b60006111e3601e83610ef2565b91506111ee826111ad565b602082019050919050565b60006020820190508181036000830152611212816111d6565b9050919050565b600061122482610deb565b9050919050565b61123481611219565b82525050565b600060608201905061124f600083018661122b565b61125c6020830185610c9b565b6112696040830184610e39565b949350505050565b7f4e4654206973206e6f74206c697374656420666f722073616c65000000000000600082015250565b60006112a7601a83610ef2565b91506112b282611271565b602082019050919050565b600060208201905081810360008301526112d68161129a565b9050919050565b7f4d61726b6574706c6163653a204e465420697320616c7265616479206c69737460008201527f6564000000000000000000000000000000000000000000000000000000000000602082015250565b6000611339602283610ef2565b9150611344826112dd565b604082019050919050565b600060208201905081810360008301526113688161132c565b905091905056fea2646970667358221220e32b2efb44d347335a1f1aad77e659e1d58d96f04348b6501035f4afae9e470964736f6c63430008140033",
  "linkReferences": {},
  "deployedLinkReferences": {}
}